:020000040800F2
:1000000078F70020B9020008B94F0008814B0008BA
:10001000AD4E0008B1130008858300080000000001
:100020000000000000000000000000004D6D00080E
:10003000DD1500080000000057020008717000087C
:10004000D3020008D3020008D3020008D30200083C
:10005000D3020008D3020008213000080131000853
:1000600025310008493100086D310008D30200082D
:10007000D3020008D3020008D3020008D30200080C
:10008000D3020008D3020008D3020008D3020008FC
:1000900045830008D3020008D3020008913100080C
:1000A000D3020008D3020008D3020008D3020008DC
:1000B000057100082D71000859710008D30200086D
:1000C000D3020008D3020008D3020008D3020008BC
:1000D000D3020008A9800008BD800008ED80000858
:1000E00045300008D3020008D3020008D3020008FC
:1000F000D3020008D3020008D3020008D30200088C
:10010000D3020008D302000885710008D30200085A
:1001100079800008D3020008B1710008DD71000881
:10012000D3020008D3020008D3020008D30200085B
:1001300000F002F800F05EF80AA090E8000C82449B
:100140008344AAF10107DA4501D100F053F8AFF278
:10015000090EBAE80F0013F0010F18BFFB1A43F0A5
:1001600001031847FCB500001CB600000A444FF01C
:10017000000C10F8013B13F0070408BF10F8014B06
:100180001D1108BF10F8015B641E05D010F8016B4B
:10019000641E01F8016BF9D113F0080F1EBF10F8AF
:1001A000014BAD1C0C1B09D16D1E58BF01F801CBD2
:1001B000FAD505E014F8016B01F8016B6D1EF9D555
:1001C0009142D6D37047000000230024002500266A
:1001D000103A28BF78C1FBD8520728BF30C148BFAA
:1001E0000B6070471FB59DE8030000F075F91FBD57
:1001F00010B510BD00F034FA1146FFF7F3FF09F017
:1002000085FA00F052FA03B4FFF7F2FF03BC08F0DE
:10021000FDFF0000EFF3108072B6704780F3108886
:1002200070471D484FF0FF010170002080F30988DE
:100230001A48012101701A484FF08051016062B6DE
:10024000FEE717484FF080510160704714484FF0A7
:1002500080510160704772B6EFF3098028B12038F1
:1002600080E8F00F0F490968086000B50E48804724
:100270005DF804EB0D480E490A78027009480D49F3
:100280000A680260106890E8F00F203080F3098857
:100290004EF0040E62B6704722ED00E040000020F0
:1002A00004ED00E048000020195B00083900002040
:1002B0003A000020500000200948804709480047C4
:1002C000FEE7FEE7FEE7FEE7FEE7FEE7FEE7FEE706
:1002D000FEE7FEE704480549054A064B7047000063
:1002E000A5700008310100087857002078F7002039
:1002F00078C7002078C7002070B5A0FB0140B4F19A
:10030000805170F1000024BF002070BD204600F035
:1003100007F805001CBF214600F09DF8284670BD77
:1003200070B5064600F0BCF8056806F10B0020F039
:100330000704B4429CBF002070BD2B466A68BAB166
:100340001068A04210D304F1080188423CBF5068F5
:10035000586007D35168101941601168091B01608A
:1003600058601460101D70BD13465268002AE7D112
:100370002146284600F09CF80028DED170BD70B5FB
:100380000446051F00F08CF80068002C14BF446878
:1003900070BD002C18BFAC423CBF20466468F8D347
:1003A00001680A18AA4218BF456003D12A680546A9
:1003B0001144016028684119A1421CBF6C6070BDE6
:1003C0006168696021680844286070BD032A40F2B2
:1003D000308010F0030C00F0158011F8013BBCF1E7
:1003E000020F624498BF11F801CB00F8013B38BFFF
:1003F00011F8013BA2F1040298BF00F801CB38BF0D
:1004000000F8013B11F0030300F0A780083AC0F0A8
:10041000088051F8043B083A51F804CBA0E80810D2
:10042000F5E7121D5CBF51F8043B40F8043BAFF305
:100430000080D20724BF11F8013B11F801CB48BF5F
:1004400011F8012B24BF00F8013B00F801CB48BF95
:1004500000F8012B70474FF000020429C0F0128011
:1004600010F0030C00F0AD80CCF1040CBCF1020FD5
:1004700018BF00F8012BA8BF20F8022BA1EB0C013C
:1004800000F09FB85FEAC17C24BF00F8012B00F8A0
:10049000012B48BF00F8012B704770477047704729
:1004A00000487047205700207047704770477047DA
:1004B00038B504460A4600206946AFF3008000289C
:1004C00008BF38BD02460099204600F0A7F8012079
:1004D00038BD012000F0BCB8F8B5AFF30080054688
:1004E00000200C46102000BF0646A819A0420DD9D6
:1004F000324669460020AFF30080070008BF00F0D5
:10050000A7F80098A04218BF0546C419FFF7C8FF16
:1005100005600746F01D20F007004619284600F048
:100520000AF8B44208BFF8BDA21B31463868BDE8DE
:10053000F84000F073B800210160C0E90110704775
:100540001020704710B500F065F8006810BD10B5B8
:10055000044600F05FF8046010BD10B5203AC0F00A
:100560000B80B1E81850203AA0E81850B1E81850B4
:10057000A0E81850BFF4F5AF5FEA027C24BFB1E8F1
:100580001850A0E8185044BF18C918C0BDE8104062
:100590005FEA827C24BF51F8043B40F8043B08BF6B
:1005A0007047D20728BF31F8023B48BF11F8012B32
:1005B00028BF20F8023B48BF00F8012B70474FF0DE
:1005C000000200B5134694469646203922BFA0E8A3
:1005D0000C50A0E80C50B1F12001BFF4F7AF0907AF
:1005E00028BFA0E80C5048BF0CC05DF804EB8900A0
:1005F00028BF40F8042B08BF704748BF20F8022BE3
:1006000011F0804F18BF00F8012B70470048704769
:1006100018570020004870471857002003464068CC
:100620008C46002818BF88423CBF03464068F8D378
:1006300018681844884207D00CF1030020F0070026
:10064000001D411A521A0146081D0A60FFF797BEA5
:1006500010B500F039F8BDE8104000F02FB8704731
:100660007546FFF7D3FFAE4605006946534620F0B6
:100670000700854618B020B5FFF72CFEBDE82040E6
:100680004FF000064FF000074FF000084FF0000B4E
:1006900021F00701AC46ACE8C009ACE8C009ACE801
:1006A000C009ACE8C0098D46704710B50446AFF3E9
:1006B00000802046BDE81040FFF7A5BD002801D00E
:1006C00008F0A4BD7047000010B5012805D0002136
:1006D00003A000F021F8012010BD09A1F8E70000F7
:1006E00053494752544D454D3A204F7574206F661B
:1006F0002068656170206D656D6F72790000000083
:100700003A2048656170206D656D6F727920636F66
:10071000727275707465640070B505460C460A20E7
:1007200000E06D1C00F011F835B128780028F8D1F0
:1007300002E0641C00F009F814B120780028F8D118
:10074000BDE870400A20AFF3008008B569468DF817
:1007500000000320ABBE08BD21B1826842F0010257
:10076000826003E0826822F00102826070470146E5
:1007700000208A6802F004020AB1012000E0002093
:1007800070470146C86C80B270470246002013686B
:100790000B400BB1012000E0002070470146002013
:1007A0008A6802F008020AB1012000E000207047C8
:1007B00030B502460020002350680F4C20400D79D0
:1007C0000C6844EA05242043506090680B4C20409C
:1007D000D1E902542C434D7944EA4504204390600A
:1007E000D06A20F470000C7C641EE4B2234340EA1B
:1007F0000350D06230BD0000FFFEF0FFFDF7F1FFB7
:10080000F0B504460D4600200021092D11DDE068F9
:10081000A5F10A0606EB4607072606FA07F1884304
:10082000A5F10A0606EB460603FA06F10843E06066
:100830000CE0206905EB4507072606FA07F1884317
:1008400005EB450603FA06F108432061072A0FDA93
:10085000606B561E06EB86071F2606FA07F18843D3
:10086000561E06EB860605FA06F10843606322E091
:100870000D2A0FDA206BD61F06EB86071F2606FA15
:1008800007F18843D61F06EB860605FA06F10843F2
:10089000206310E0E06AA2F10D0606EB86071F2632
:1008A00006FA07F18843A2F10D0606EB860605FA63
:1008B00006F10843E062F0BD816841F00801816003
:1008C000704721B1826842F4A002826003E082682E
:1008D00022F4A00282607047816841F004018160C7
:1008E000704700002DE9FC4705460E46174698461E
:1008F000DDF8289008210120FFF7FEFC044614B91A
:100900000020BDE8FC87012D04DB2046FFF737FD02
:100910000020F6E70F4850F8250030B12046FFF7D9
:100920002EFD0C4850F8254002E00A4840F82540CA
:10093000E5704B46424604210020CDE9006706F0F1
:100940007BFA60600120207000206070A07020465B
:10095000D7E700008400002070B504460D4600264D
:10096000606801F0E2FFA021606801F0B2FF6068FA
:1009700002F018F820B9606801F0F3FF002070BDA4
:100980002912606801F0A5FF606802F00BF820B939
:10099000606801F0E6FF0020F1E7E9B2606801F06D
:1009A00098FF606801F0FEFF20B9606801F0D9FF90
:1009B0000020E4E7606801F0B8FFA121606801F061
:1009C00088FF606801F0EEFF20B9606801F0C9FFA0
:1009D0000020D4E7606801F05BFF0646606801F024
:1009E00027FF606801F0BDFF3046C8E72DE9F04100
:1009F00004460E4617460025606801F096FFA021C8
:100A0000606801F066FF606801F0CCFF28B960689B
:100A100001F0A7FF0020BDE8F0817201C2F30721B9
:100A2000606801F056FF606801F0BCFF20B96068A3
:100A300001F097FF0020EEE77207110E606801F0E9
:100A400048FF606801F0AEFF20B9606801F089FFDF
:100A50000020E0E7606801F068FFA121606801F014
:100A600038FF606801F09EFF20B9606801F079FFEF
:100A70000020D0E7002508E0606801F009FF785504
:100A8000606801F09AFE681CC5B21F2DF4DB606837
:100A900001F0FEFE7855606801F0CAFE606801F062
:100AA00060FF0120B7E72DE9F04104460E461746E6
:100AB0000025606801F039FFA021606801F009FF9E
:100AC000606801F06FFF28B9606801F04AFF0020FC
:100AD000BDE8F0817201C2F30721606801F0F9FE00
:100AE000606801F05FFF20B9606801F03AFF002004
:100AF000EEE77207110E606801F0EBFE606801F02E
:100B000051FF20B9606801F02CFF0020E0E70025CC
:100B10000EE0795D606801F0DCFE606801F042FF84
:100B200020B9606801F01DFF0020D1E7681CC5B244
:100B3000202DEEDB606801F014FF00250CE005EBD2
:100B4000461081B22046FFF707FF795D884201D049
:100B50000020BDE7681CC5B2202DF0DB0120B7E7FF
:100B6000014908607047000000860D4210B5044638
:100B7000A10201F18040002106F058FBA10201F121
:100B80008040012106F04FFBA10201F180400021CD
:100B900006F071FC10BD10B50446A10201F18040C1
:100BA000012106F043FB10BD10B502464FF0E020D6
:100BB000006920F004004FF0E02420611046D417B3
:100BC00002EB5474E3100A4890FBF1F043434FF0FA
:100BD000E020006940F002004FF0E0242061204650
:100BE0004361006940F001002061012010BD000058
:100BF00040420F00F8B505460C461646072D01DBAE
:100C00000020F8BD102C01DB0020FAE7062E01DBE6
:100C10000020F6E7042101FA05F0012105F0F2FFBA
:100C2000022D0CD10D2C01D00E2C08D1012005F085
:100C300009FF002006F070F80020FFF791FF012D5A
:100C400003D1032C04D0042C02D02DB90F2C03D1D6
:100C50000121264803F03EFF5DB90D2C01D00E2C7A
:100C600007D10121084605F0CDFF01211F4803F0FF
:100C700031FF0120A04080B2ADF80000062E1CD24A
:100C8000DFE806F003070B0F131704208DF80300AD
:100C900015E010208DF8030011E014208DF80300FA
:100CA0000DE028208DF8030009E048208DF80300AE
:100CB00005E000208DF8030001E00020A1E700BF5F
:100CC00003208DF802000A490A1502FB0510694647
:100CD00003F074FE022D06D10D2C01D00E2C02D192
:100CE000002005F0AFFE01208BE70000000230007D
:100CF000000801402DE9FF4780460F460020039081
:100D0000019002900090B8F1070F02DB04B0BDE83B
:100D1000F087102F01DB0020F8E7042101FA08F129
:100D200041F00100012105F06DFFB8F1020F0CD177
:100D30000D2F01D00E2F08D1012005F083FE0020D9
:100D400005F0EAFF0020FFF70BFF0120B84080B25A
:100D5000ADF80C0004208DF80F0003208DF80E0074
:100D600057490A1502FB081003A903F027FEB8F142
:100D7000020F06D10D2F01D00E2F02D1002005F059
:100D800061FE4FF4A06004F051F9B8F1070F1AD2D8
:100D9000DFE808F004070A0D101316004FF00009F1
:100DA00013E04FF0010910E04FF002090DE04FF0A1
:100DB00003090AE04FF0040907E04FF0050904E0D9
:100DC0004FF0060901E00020A0E700BF102F51D22C
:100DD000DFE807F0080C1014181C2024282D3237E7
:100DE0003C41464B06250124002645E00725022408
:100DF000012641E00825042402263DE009250824B7
:100E0000032639E00A251024042635E0172520247E
:100E1000052631E01725402406262DE017258024DD
:100E2000072629E017254FF48074082624E01725AB
:100E30004FF4007409261FE028254FF480640A2629
:100E40001AE028254FF400640B2615E028254FF4FE
:100E500080540C2610E028254FF400540D260BE09A
:100E600028254FF480440E2606E028254FF4004440
:100E70000F2601E0002049E700BFE8B28DF800002E
:100E800001208DF801008DF802008DF803006846FE
:100E900004F094F8204602F0C5F93146484603F0C4
:100EA0006DFD019400208DF8080010208DF80900D8
:100EB00001208DF80A0001A802F0CEF9012025E7F3
:100EC000000801407FB504460D46164600200190FB
:100ED000029003900090012101FA04F005F072FEE7
:100EE000062C1CD2DFE804F003070B0F13171C209D
:100EF0008DF8000016E01D208DF8000012E01E2085
:100F00008DF800000EE032208DF800000AE0362057
:100F10008DF8000006E037208DF8000002E0002088
:100F200004B070BD00BF4FF4A06004F07FF8012052
:100F30008DF801008DF802008DF80300684604F07A
:100F40003DF8A10201F1804006F07CF901A806F00D
:100F5000E7FAADF80850ADF804600020ADF80A00DB
:100F6000ADF80600A10201F1804001A906F086FA61
:100F7000A10201F18040002106F046F9A10201F131
:100F80008040202106F06CFAA10201F1804001218D
:100F900006F046F9A10201F180400122114606F057
:100FA00056FA0120BCE700002DE9F04786B005465F
:100FB0000F4614469846DDE90E9A35B1012D09D049
:100FC000022D0CD0032D14D10EE00121880305F071
:100FD00019FE12E00121480405F0F4FD0DE00121A5
:100FE000880405F0EFFD08E00121C80405F0EAFDE2
:100FF00003E0002006B0BDE8F08700BF0421A14057
:10100000042202FA09F2114341F00100012105F026
:10101000F9FD35B1012D0BD0022D10D0032D1ED1BD
:101020001CE0012C03D10121042003F053FD18E042
:10103000032C03D10121082003F04CFD11E0022C08
:1010400004D10121594803F045FD06E0032C04D1E9
:1010500001215648203003F03DFD02E001E0002070
:10106000C8E700BF012000FA08F080B2ADF8140014
:1010700018208DF8170003208DF816004C490A152A
:1010800002FB041005A903F099FC012000FA0AF004
:1010900080B2ADF8140004208DF817004449020214
:1010A00002FB091005A903F089FC01970020ADF8A7
:1010B0000800ADF80A00ADF80C00ADF810000C20E7
:1010C000ADF80E0035B1012D0ED0022D16D0032D36
:1010D00028D11DE001A9374807F0BEF801213548A5
:1010E00007F048F825261FE001A9334807F0B4F8B7
:1010F0000121314807F03EF8262615E001A92F48C6
:1011000007F0AAF801212D4807F034F827260BE054
:1011100001A92B4807F0A0F80121294807F02AF877
:10112000342601E0002065E700BF4FF4A06003F023
:101130007DFF8DF8006001208DF801008DF8020020
:101140008DF80300684603F039FF35B1012D0BD04F
:10115000022D10D0032D1CD114E0012240F22441B5
:10116000144807F053F816E0012240F225511248C6
:1011700007F04CF80FE0012240F225510F4807F02C
:1011800045F808E0012240F225510D4807F03EF8ED
:1011900001E000202EE700BF01224021054806F0B3
:1011A000F5FF00F0C1F9012024E700001000140051
:1011B0000008014000380140004400400048004061
:1011C000004C004070B504460D4624B1012C17D0E8
:1011D000022C3FD129E001231A4629461E48FFF779
:1011E0000FFB01211C48FFF76CFB00BF02211A48CE
:1011F000FFF7CBFA0028F9D01748FFF7C2FA70BD05
:1012000001231A4629461548FFF7FAFA0121134827
:10121000FFF757FB00BF02211048FFF7B6FA00287E
:10122000F9D00E48FFF7ADFAE9E701231A4629463F
:101230000B48FFF7E5FA01210948FFF742FB00BF21
:1012400002210748FFF7A1FA0028F9D00448FFF768
:1012500098FAD4E70020D2E700240140002801409A
:10126000003C014070B504460D460122AA4091B2EF
:10127000054A131503FB042003F074FC08B1012098
:1012800070BD0020FCE700000008014070B5044676
:101290000D46A9B2A20202F1804006F0EAF870BD44
:1012A00010B5044634B1012C09D0022C0CD0032C0B
:1012B00014D10EE00A4807F03BF8C0B210BD09484F
:1012C00007F036F8C0B2F9E7074807F031F8C0B2C6
:1012D000F4E7064807F02CF8C0B2EFE70020EDE78E
:1012E000003801400044004000480040004C0040ED
:1012F00070B504460D46FEF78DFF064634B1012C4D
:1013000010D0022C1AD0032C30D123E029461B48E0
:1013100007F013F800BF4021184806F040FF0028EE
:10132000F9D025E02946164807F007F800BF8021CC
:10133000134806F034FF0028F9D019E02946114877
:1013400006F0FBFF00BF80210E4806F028FF0028B2
:10135000F9D00DE029460C4806F0EFFF00BF8021D0
:10136000094806F01CFF0028F9D001E0002070BDFC
:1013700000BF3046FEF752FF0120F8E70038014079
:101380000044004000480040004C004070B5044656
:101390000D4616460122AA4091B2044A131503FBDA
:1013A0000420324603F0E7FB70BD00000008014056
:1013B00000BFFEE710B500F5D87303EB01131B68FF
:1013C00003F004031372137A53B900F5D87303EBD7
:1013D00001131B6840F2FF7404EA5353136009E0E1
:1013E00000F5D87303EB01131B686FF0604404EA47
:1013F000D303536000F5D87303EB01131B6803F0AC
:101400000203537200F5D87303EB01135B6803F01A
:101410000F03937200F5D87303EB01135B681B0A8B
:10142000D37400F5D87303EB01139B68D37200F5F6
:10143000D87303EB01139B681C0A147300F5D8736F
:1014400003EB01139B681C0C547300F5D87303EB7A
:1014500001139B681B0E937300F5D87303EB011304
:10146000DB68D37300F5D87303EB0113DB681C0A48
:10147000147400F5D87303EB0113DB681C0C54746F
:1014800000F5D87303EB0113DB681B0E937421B9CD
:10149000C36843F02003C36003E0036943F0200303
:1014A000036110BD2DE9F04107460C46154629465B
:1014B000204607F036F8064616B90020BDE8F08150
:1014C00032460021384607F0ADFE0120F6E7000065
:1014D00070B505460E4608210120FEF70DFF0446B3
:1014E0000CB9002070BD022D04DB2046FEF747FF3B
:1014F0000020F7E70B4850F8250030B12046FEF7F2
:101500003EFF084850F8254002E0064840F82540D4
:101510002570667007F0EEFE6060606802F054FCB3
:101520002046DFE78C07002000B58BB0012108467C
:1015300005F038FB0F4800900F4801900020029002
:1015400064200390002004908020059000200690E5
:10155000079008904FF40050099000200A906946C7
:10156000064800F01DF80121044800F009F80BB00E
:1015700000BD000004380140542C002058000240F7
:1015800021B1026842F00102026004E002684FF6F5
:10159000FE731A40026070470146486880B2704787
:1015A00010B50022026847F6F0739A430C6A8B6804
:1015B00023430C6923434C6923438C692343CC693F
:1015C00023434C6A23438C6A23431A430260CB684B
:1015D00043600B6883604B68C36010BD70470000B8
:1015E000014621B101290AD0022918D10FE00E4885
:1015F000806900F4007008B90020704711E00A48C3
:10160000806900F4806008B90020F6E709E0064828
:10161000806900F4004008B90020EEE701E00020F6
:10162000EBE700BF0120E8E700100240014621B1CE
:1016300001290AD0022918D10FE00E48806900F470
:10164000007008B90020704711E00A48806900F472
:10165000806008B90020F6E709E00648806900F4D8
:10166000004008B90020EEE701E00020EBE700BFF2
:101670000120E8E700100240002400255CE001237F
:1016800000221146104604F085FA002452E02B484F
:1016900050F8240000284BD0284A52F82420517CCE
:1016A000264A52F82420107CFFF7DCFD054623482B
:1016B00050F824004078A8423AD001230022114675
:1016C000104604F067FA1D4A52F82420517C1B4A48
:1016D00052F82420107CFFF7C5FDA84228D11748F6
:1016E00050F824004078A84222D0144850F8240032
:1016F000407A01280CD1114850F824004078A842C3
:1017000012DA0E4951F82410C86803F009FF0BE003
:101710000A4850F824004078A84205DD074951F8EE
:101720002410C86803F0FCFE044850F824004570FB
:10173000601CC4B20A2CAADBA1E70000F02D002037
:101740002DE9F05F83460E4615461F46DDF838A0AA
:10175000DDF83090DDF828801020FEF7E1FD04462A
:1017600014B90020BDE8F09F84F800B0A670E570C1
:10177000277184F805800B98A07184F807900D9864
:10178000207284F809A0114803F0F8FCE0602946B3
:101790003046FFF7AFFA41463846FFF7ABFA494605
:1017A0000B98FFF7A7FA51460D98FFF7A3FA0848E0
:1017B000084941F82500084841F82800074841F841
:1017C0002900074841F82A002046CBE700070020FF
:1017D000ED320008EC2B002071330008F5330008CF
:1017E000793400082DE9F0410546884616461F4623
:1017F00006210120FEF780FD044614B90020BDE853
:10180000F081072D04DB2046FEF7B9FD0020F6E746
:10181000154850F8250030B12046FEF7B0FD1248BB
:1018200050F8254002E0104840F82540A57084F8A3
:10183000038026716771012239463046FFF7DAF9D5
:10184000E07838B900206070627861792079FFF71C
:101850009DFD06E001206070627861792079FFF7D4
:1018600095FD2046CBE70000D82C002010B504469B
:10187000E07838B900206070627861792079FFF7EC
:1018800085FD06E001206070627861792079FFF7BC
:101890007DFD0220207010BD10B50446E07838B9F7
:1018A00001206070627861792079FFF76FFD06E0B2
:1018B00000206070627861792079FFF767FD012070
:1018C000207010BD0246D2E9020170472DE9F04FA9
:1018D000F9B004464FF0000B00202082322104F1C1
:1018E0001200FEF7B8FDD9460AE009EB4900C549E8
:1018F000084400210180817009F1010000F0FF0916
:10190000B9F1320FF1DBB4F85000E8B9204601F02C
:1019100075FB78AA4FF4FA71606C03F087FD9DF8AF
:10192000E00120B10020014679B0BDE8F08FA17C34
:10193000E07C61F31F20A4F85000002020823221B7
:1019400004F11200FEF787FD012084F848002046CC
:1019500001F048F978AA40F6B831606C03F066FDF2
:10196000204601F0B9FA002084F848009DF8E00113
:1019700010B100200146D7E74FF00009B6E009EBAF
:101980004900A049085CFF280BD109EB4900084435
:101990004078FF2805D109EB490008448078FF28EA
:1019A0007DD009EB4901974A1144887808F0CCFEB4
:1019B0000022954BCDE9100108F0BEFCCDE91201E3
:1019C00009EB49018F4A525C09EB49018D4B1944DF
:1019D000497862F31F21084608F09FFE0746DDE9BB
:1019E000122308F0EDFB14AA02EBCB0203C2606ED7
:1019F00009F00AFACDE91201206E09F005FACDE9E5
:101A00000A0114A800EBCB00D0E900733A460A980B
:101A100008F0EAFECDE90E0114A800EBCB0000228D
:101A20004FF08043D0E90071384607F085FECDE9DC
:101A30000601E06D09F0E8F9CDE90401DDE90623CE
:101A400008F0D2FECDE90A0114A800EBCB00002279
:101A50006E4BD0E90071384607F06EFECDE9020109
:101A6000A06D09F0D1F9CDE90001DDE9022308F00C
:101A7000BBFECDE9060114A800EBCB01D1E9007152
:101A80000022634B384607F057FECDE90201606D36
:101A900009F0BAF9CDE90001DDE9022300E021E017
:101AA00008F0A2FECDE90401DDE9062308F088FB79
:101AB000CDE90801DDE90A2308F082FBCDE90C013C
:101AC000DDE90E2308F07CFBCDE91001DDE91223EE
:101AD00008F076FB14AA02EBCB0203C20BF1010063
:101AE00000F0FF0B09F1010000F0FF09B9F1320F1E
:101AF000FFF645AFBBF1280F6ADD4FF0000A43E067
:101B000014A800EBCA0000221346D0E90071384641
:101B100008F06AFD34D014A90AF1010001EBC000FD
:101B200000221346D0E90071384608F05DFD27D049
:101B300014A90AF1010001EBC00103C9CDE91201AA
:101B400014A800EBCA00D0E900780B46384641469D
:101B5000129A08F00DFE13D214A800EBCA0060C858
:101B600014A90AF1010001EBC000D0E9001014AA89
:101B700002EBCA02C2E9001014A800EBCA0060C060
:101B80000AF1010000F0FF0ADA45B9DD4FF0000A62
:101B90000021216061604FF00E0915E014A800EBF0
:101BA000C901D1E90073D4E900013A46CDE9120137
:101BB00008F006FBC4E900010AF1010000F0FF0A89
:101BC00009F1010000F0FF09ABF10F004845E5DC29
:101BD000BAF1010F03DC0020206060600EE0504687
:101BE00008F0B2FDCDE9120102460B46D4E90078B7
:101BF0003846414608F0A0FBC4E90001D4E90001E1
:101C000092E60000CC320020000070400000084046
:101C10000000104010B50446002060706278217901
:101C2000E078FFF7B3FB0220207010BD2DE9F041F2
:101C300005460E46174605210120FEF75DFB0446CA
:101C400014B90020BDE8F081082D04DB2046FEF722
:101C500096FB0020F6E7104850F8250030B12046EA
:101C6000FEF78DFB0C4850F8254002E00A4840F88A
:101C70002540A570E6702771012239463046FEF7EF
:101C8000B9FF022020700020607062782179E0782E
:101C9000FFF77CFB2046D5E7F42C002010B5044666
:101CA0000120607062782179E078FFF76FFB0120F6
:101CB000207010BD70B586B004460D46164605224C
:101CC00031462846FEF796FF2046FFF789FC10B103
:101CD000012006B070BD002001908DF808008DF83D
:101CE00009004FF4602003900020049001208DF83B
:101CF000140024B1012C25D0022C69D145E001212A
:101D0000480204F07FFF01A93448FEF751FD4FF46B
:101D1000404004F03BFF01213048FEF71DFD2F48F5
:101D2000FEF7CAFD00BF2D48FEF738FD0028FAD1A6
:101D30002A48FEF7D1FD00BF2848FEF718FD00280D
:101D4000FAD147E00121880204F05CFF01A9244890
:101D5000FEF72EFD4FF4404004F018FF012120480B
:101D6000FEF7FAFC1E48FEF7A7FD00BF1C48FEF771
:101D700015FD0028FAD11A48FEF7AEFD00BF18483D
:101D8000FEF7F5FC0028FAD124E00121C80304F095
:101D900039FF01A91348FEF70BFD4FF4404004F052
:101DA000F5FE01210F48FEF7D7FC0E48FEF784FD33
:101DB00000BF0C48FEF7F2FC0028FAD10948FEF7F4
:101DC0008BFD00BF0748FEF7D2FC0028FAD101E0E6
:101DD00000207EE700BF01207BE7000000240140D7
:101DE00000280140003C01402DE9F0410024AEE014
:101DF000594850F8240000287ED0574A52F8242031
:101E000092F85210544A52F8242092F85100FFF7E9
:101E1000D9F9514951F8241048604F4951F824101C
:101E2000486808F091FC07464FF066324B4B08F0CB
:101E3000DBFC054600224A4B08F07EFA464A52F87F
:101E40002420C2E90201444850F82400D0E912736A
:101E5000414850F824003A46D0E90251284608F09B
:101E60006BFA3D4A52F82420C2E904013A4850F87E
:101E70002400D0E90873384850F824003A46D0E9E5
:101E80000451284608F058FA334A52F82420C2E98F
:101E90000201314850F82400D0E90221104607F031
:101EA00087FA2D4A52F82420C2E902012A4850F844
:101EB0002400D0E90A73284850F824003A46D0E9B3
:101EC0000251284608F038FA234A52F82420C2E981
:101ED0000201214850F82410D1E90C532A46002071
:101EE000204908F029FA07461B4850F82400D0E999
:101EF00002532A46384600E027E008F061F9164A06
:101F000052F82420C2E90201134850F82400D0E915
:101F100002532A460020134908F00EFA0E4A52F8DE
:101F20002420C2E902010C4850F82410D1E90E73B4
:101F300050F82410D1E902513A46284608F07AFEBA
:101F4000054A52F82420C2E90201601CC4B20A2CDE
:101F5000FFF64EAFBDE8F0818C32002066661A4075
:101F60000000B0400000F03F2DE9F04706468A46E9
:101F700091461D46DDE9087858210120FEF7BCF99D
:101F8000044614B90020BDE8F0870A2E04DB204681
:101F9000FEF7F5F90020F6E73D4850F8260030B18D
:101FA0002046FEF7ECF93A4850F8264002E038485F
:101FB00040F82640B9F1000F06D0B9F1010F0FD05B
:101FC000B9F1020F28D119E0002D04DB072D02DC46
:101FD00084F8525022E02046FEF7D1F90020D2E7E3
:101FE000002D06DB012D04DC05F1080084F8520009
:101FF00014E02046FEF7C3F90020C4E7002D06DBFD
:10200000052D04DC05F10A0084F8520006E02046A4
:10201000FEF7B5F90020B6E70020B4E700BF84F86A
:10202000506084F851A084F8539084F85450C4E967
:102030000678DDE90A01C4E90801DDE90C01C4E91B
:102040000A01DDE90E01C4E91001DDE91001C4E96E
:1020500012014FF066310F48C4E90C100E48C4E974
:102060000E102A4649465046FFF724FE20B9204666
:10207000FEF785F9002086E7012020700021A1608D
:10208000E160002060602161616120467BE7000023
:102090008C32002066A27240661271402DE9FF5F0B
:1020A00004468A464FF0000B0020039002900190F6
:1020B00081460090206860605146206909F07EF9F1
:1020C00020602168A06808F0CBFEA060206808F0BE
:1020D0009BFE054621F00041052801DD0020A0609F
:1020E000A06908F091FE054621F00041804609F004
:1020F00007F807464FF0505109F02EF90ED2A069AB
:1021000008F082FE07463A460B460020244908F0B4
:1021100013F9054608F022F8814601E04FF0000966
:102120004946A06809F018F902D2C4F8089009E0FD
:1021300089F000452846A16809F00EF902D289F01D
:102140000040A0602168606909F03AF88346A16800
:10215000A06909F035F80390D4E9000109F02EF9DF
:102160000546E16909F02CF802905846039908F0F9
:1021700077FE0546029908F073FE01900021019850
:1021800008F0EAFF03D8002004B0BDE8F09F05493D
:10219000019809F0E1F801D80248F5E70198F3E762
:1021A00000006940000048432DE9F04705460E460F
:1021B00017469846DDF8209020210120FEF79CF874
:1021C000044614B90020BDE8F087082D04DB204642
:1021D000FEF7D5F80020F6E70E4850F8250030B19C
:1021E0002046FEF7CCF80B4850F8254002E009489D
:1021F00040F82540657326616761C4F81880C4F80B
:102200001C9001202073002020606060A0602046A8
:10221000D9E70000B82C00200021416001608160F6
:1022200070472DE9F04104460D4620680669E07EBE
:1022300007287ED0E07E05287CD2DFE800F0032B63
:10224000537EAF002946304609F086F80FD2A06AC7
:10225000002801DA0020A062A06A401CA062A06AE7
:10226000032816DB0020A062A068804711E0A06A66
:10227000002801DD0020A062A06A401EA062A06AC2
:1022800010F1030F05DC0020A0620120E076E06879
:102290008047D2E02946304609F05EF811D2A06AA4
:1022A000002801DA0020A062A06A401CA062A06A97
:1022B000032816DB0020A0620220E076A068804799
:1022C0000FE0A06A002801DD0020A062A06A401E85
:1022D000A062A06A10F1030F03DC0020A062E06896
:1022E0008047AAE02946304609F036F80FD2A06AA6
:1022F000002801DA0020A062A06A401CA062A06A47
:10230000032819DB0020A062A068804714E0A06ABF
:10231000002801DD0020A062A06A401EA062A06A21
:1023200010F1030F08DC0020A0620320E076E068D3
:1023300001E083E080E080477FE02946304609F0F5
:102340000BF811D2A06A002801DA0020A062A06A6E
:10235000401CA062A06A032816DB0020A0620420B3
:10236000E076A06880470FE0A06A002801DD002029
:10237000A062A06A401EA062A06A10F1030F03DCF5
:102380000020A062E0688047606A401C60622946C5
:10239000E06908F0E1FE00D2E5614EE029463046F2
:1023A00008F0DAFF0FD2A06A002801DA0020A0624C
:1023B000A06A401CA062A06A032833DB0020A06250
:1023C000A06880472EE0A06A002801DD0020A062FE
:1023D000A06A401EA062A06A10F1030F22DC002058
:1023E000A0620720E076012021680873606A08F087
:1023F0009FFE8046216908F0E3FE074608F060FE74
:102400006062D4E9070108F0D9FF80464FF08041AF
:1024100008F094FD07463A462046616A06F0D2F875
:10242000E0688047606A401C60622946206A08F0C4
:1024300093FF00D2256200E000BF00BFE07EBDE850
:10244000F081000070B5049C0160002506683573BA
:1024500042608360C4604FF07E5505610025C576FB
:102460008576C561034D0562002585624561C825F5
:10247000058370BD0000C84270B586B004460D46A5
:102480001646052231462846FEF7B4FB2046FFF7E4
:10249000CDF810B1012006B070BD002001908DF87C
:1024A00008008DF809004FF460200390002004908C
:1024B00001208DF8140024B1012C25D0022C69D103
:1024C00045E00121480204F09DFB01A93448FEF7D4
:1024D0006FF94FF4404004F059FB01213048FEF7FA
:1024E0003BF92F48FEF7E8F900BF2D48FEF756F9F3
:1024F0000028FAD12A48FEF7EFF900BF2848FEF776
:1025000036F90028FAD147E00121880204F07AFB6D
:1025100001A92448FEF74CF94FF4404004F036FB83
:1025200001212048FEF718F91E48FEF7C5F900BF43
:102530001C48FEF733F90028FAD11A48FEF7CCF907
:1025400000BF1848FEF713F90028FAD124E0012152
:10255000C80304F057FB01A91348FEF729F94FF40B
:10256000404004F013FB01210F48FEF7F5F80E4838
:10257000FEF7A2F900BF0C48FEF710F90028FAD1C7
:102580000948FEF7A9F900BF0748FEF7F0F8002850
:10259000FAD101E000207EE700BF01207BE70000C8
:1025A0000024014000280140003C01402DE9FC4787
:1025B0004FF0000A4EE02A4850F82A00007801281F
:1025C00044D1274A52F82A20117C254A52F82A2061
:1025D000D07BFEF7F7FD044608F0AAFD204951F82C
:1025E0002A1048601E4951F82A10486808F00CFC6F
:1025F00006464FF066321B4B08F0F6F80446002200
:10260000194B07F099FE80460022184B07F094FE04
:10261000CDE9000107F0A2FD114951F82A104860E8
:102620000F4951F82A10888908F082FD05460C49A7
:1026300051F82A104868294608F080FC04460C49E5
:1026400008F0BEFD064951F82A1088600AF1010021
:1026500000F0FF0ABAF1060FADDBBDE8FC87000011
:10266000B432002066660A400000B04000004940D5
:1026700000007A4410B50446002060706278A17CA6
:10268000607CFEF783FE0220207010BD2DE9F05F14
:1026900006460F4690469946DDE90B5BDDF828A01B
:1026A00018210120FDF728FE044614B90020BDE8DA
:1026B000F09F062E04DB2046FDF761FE0020F6E7C2
:1026C000334850F8260030B12046FDF758FE304818
:1026D00050F8264002E02E4840F82640BAF1000F9C
:1026E00006D0BAF1010F0ED0BAF1020F25D117E0D2
:1026F000002D03DB072D01DC257420E02046FDF7CB
:102700003EFE0020D3E7002D05DB012D03DC05F1A3
:102710000800207413E02046FDF731FE0020C6E7D4
:10272000002D05DB052D03DC05F10A00207406E011
:102730002046FDF724FE0020B9E70020B7E700BFE0
:10274000A67384F80F90A4F80CB0677484F8128014
:1027500084F813A025752A4651464846FFF78CFE9B
:1027600020B92046FDF70BFE0020A0E701224146DC
:102770003846FEF73FFA0220207000206060A0601B
:1027800060706278A17C607CFEF700FE20468EE7D8
:10279000B432002001460878012800D1704700209B
:1027A000FCE710B50446012060706278A17C607C73
:1027B000FEF7ECFD0120207010BD10B5044600218D
:1027C000204605F0DFFF0021204605F0EAFF052145
:1027D000204600F01AF80121204605F0D3FF05211C
:1027E000204600F012F80021204605F0CBFF05211D
:1027F000204600F00AF80121204605F0D2FF05210D
:10280000204600F002F8012010BD10B5024600235A
:1028100007E0108983B200BF181EA3F10104A3B220
:10282000FAD1081EA1F10104A1B2F2D1012010BD1C
:1028300010B504460021204605F0A4FF00212046E3
:1028400005F0AFFF05212046FFF7DFFF01212046FD
:1028500005F0A7FF05212046FFF7D7FF01212046FD
:1028600005F090FF05212046FFF7CFFF002120460D
:1028700005F088FF05212046FFF7C7FF002120460D
:1028800005F08FFF05212046FFF7BFFF012010BD97
:1028900070B506460025002417E00021304605F0FB
:1028A00071FF05213046FFF7B0FF0121304605F0EA
:1028B00069FF304605F05EFF40EA4500C5B20521DC
:1028C0003046FFF7A2FF601CC4B2082CE5DB2846A7
:1028D00070BD70B506460C460021304605F052FF2B
:1028E00000251EE0E00920B10121304605F059FF26
:1028F00003E00021304605F054FF6006040E052178
:102900003046FFF782FF0121304605F03BFF0521ED
:102910003046FFF77AFF0021304605F033FF681C90
:10292000C5B2082DDEDB012070BD10B504460121C3
:10293000204605F036FF0121204605F023FF052142
:102940002046FFF762FF0021204605F02AFF0521FF
:102950002046FFF75AFF0021204605F013FF012013
:1029600010BD10B504460021204605F00BFF0021E4
:10297000204605F016FF05212046FFF746FF0121FE
:10298000204605F0FFFE05212046FFF73EFF01210E
:10299000204605F006FF4CF250312046FFF735FF88
:1029A000012010BD70B5054600240121284605F020
:1029B000F8FE05212846FFF728FF0121284605F0EB
:1029C000E1FE05212846FFF720FF05E0601C84B2E8
:1029D000FA2C01DD002070BD284605F0CBFE002852
:1029E000F4D10021284605F0CDFE0120F3E70000D8
:1029F0002DE9F04705460F4690461E46DDF820902B
:102A000014210120FDF778FC044614B90020BDE82C
:102A1000F0870A2D04DB2046FDF7B1FC0020F6E725
:102A2000144850F8250030B12046FDF7A8FC1148A5
:102A300050F8254002E00F4840F8254025726772A3
:102A4000A4F80A80E06818B9002002F0C5FCE06034
:102A5000267484F81190002249463046FEF7CAF8E1
:102A60000120207060700020A070A080A071E07133
:102A70002046CCE7F02D00202DE9FC5F06460F46EE
:102A800090469946DDE90CAB002578210120FDF741
:102A900033FC044614B90020BDE8FC9F022E04DB81
:102AA0002046FDF76CFC0020F6E7344850F826007D
:102AB00030B12046FDF763FC304850F8264002E074
:102AC0002E4840F8264004F8696F6770C4F8038008
:102AD00084F8079084F808A084F809B00E98A072D2
:102AE000A07A617ACDE90010237AE279D4F8031054
:102AF0006078FEF759FA6078693C28B9204894F864
:102B00006A10204A42F8210094F86A00012805D191
:102B10001D4894F86A101B4A42F82100002002F078
:102B20005BFC6067002504E00021601C4155681CC7
:102B3000C5B2642DF8DB002515E005EBC50101EBFE
:102B40000511124A02EB81006421FDF784FC05EBBC
:102B5000C50101EB05110E4A02EB81006421FDF76E
:102B60007AFC681CC5B2052DE7DB002084F86800FC
:102B7000204600F031F820468EE70000DC060020F9
:102B80002D880008442C0020CD880008A42E0020A9
:102B9000983000202DE9F041044660790830C6B233
:102BA0000025FDF737FB074600BF08E0615D094AD5
:102BB000126892F86A00FEF79BFB681CC5B2B5422A
:102BC000F4DB3846FDF72AFB31462046FDF743FC8F
:102BD000BDE8F081D80600200021A0F86610012190
:102BE0000170704710B504460B4A117814F8530F62
:102BF000FEF77EFB084A51782078FEF779FB064AFB
:102C000091782078FEF774FB034AD17814F85309C1
:102C1000FEF76EFB10BD0000E406002010B5AB49C6
:102C2000096891F85300FEF73BFB0446A74800688B
:102C3000008A00F4004000287ED0A4480068008A82
:102C400000F48040002878D0A0480068B0F8500018
:102C50000A2878DA9D48006890F84800012822D1B7
:102C60009A480068123099490968098AC1F30D0130
:102C7000445496480068008A401C944909680882B8
:102C800092480068007C02280CDB90480068008AAB
:102C9000C0F30D008D49096808828C490968486CA9
:102CA00002F03EFC10E18948006890F848000228D4
:102CB00022D186480068123084490968098AC1F324
:102CC0000D01445481480068008A401C7F4909680E
:102CD00008827E480068007C0228E3DB7B480068AD
:102CE000008AC0F30D0079490968088277490968AC
:102CF000486C02F015FCE7E0744800681230734934
:102D00000968098AC1F30D01445470480068008ABB
:102D1000401C6E49096808826C480068007C0228E3
:102D2000C0DB6A480068008AC0F30D006749096883
:102D300008826649096802E09AE064E003E0486CB2
:102D400002F0EEFBC0E06148006890F848000128FE
:102D500036D15E48006812305C490968098AC1F3BF
:102D60000D01445459480068008A401C57490968BD
:102D7000088256480068007C032893DB544800789A
:102D800000EB400053490844504909684A8A0280D0
:102D9000097D81704E480078401C4D4908700846F6
:102DA0000078322807D149490968486C02F0B8FB1D
:102DB000002047490870002044490968088283E0E0
:102DC00042480068123041490968098AC1F30D017F
:102DD00044543E480068008A401C3C490968088207
:102DE0003A480068007C02286EDB38480068008A98
:102DF000C0F30D0035490968088234490968486CF8
:102E000002F08EFB60E0FF2C0ED13048006890F895
:102E10004800012808D12D480068008A40F480400D
:102E20002A49096808824FE0572C05D127480068D5
:102E300090F84800022807D0562C0ED1234800688D
:102E400090F84800022808D120480068008A40F421
:102E500080401E490968088236E0032C34D11B48A3
:102E60000068008A40F480401849096808822BE015
:102E7000FE2C0ED11548006890F84800012808D1B2
:102E800012480068008A40F400401049096808822E
:102E90001AE0FC2C0ED10D48006890F8480002287A
:102EA00008D10A480068008A40F4004007490968D0
:102EB000088209E0FC2C07D104480068008A40F42D
:102EC000004002490968088210BD0000F406002095
:102ED000F8060020CC32002010B504460B4A1178C9
:102EE00014F8530FFEF704FA084A51782078FEF7D9
:102EF000FFF9064A91782078FEF7FAF9034AD1786B
:102F000014F85309FEF7F4F910BD0000E80600209C
:102F10002DE9FC5F0546894616469846DDE90CAB6F
:102F200070210120FDF7E8F9044614B90020BDE83E
:102F3000FC9F012D04DB2046FDF721FA0020F6E777
:102F40002A4850F8250030B12046FDF718FA2748E6
:102F500050F8254002E0254840F825404C34A57142
:102F6000C4F80090E67184F81C8084F81DA084F8F1
:102F70001EB00E98E0770F98A0604C3C1098A065AA
:102F80001198E06512982066139860660E98534673
:102F900042464946CDE900B03046FEF705F81448F0
:102FA000144941F82600002121606160A160E160C0
:102FB00000202082A4F85000322104F11200FDF715
:102FC0004AFA002084F8480002F006FA60640027FC
:102FD00008E007EB470008490844002101808170A0
:102FE000781CC7B2322FF4DB2046A0E7F40600209D
:102FF0001D2C0008442C0020CC32002010B50446C3
:10300000064A117894F85300FEF772F9034A517892
:1030100094F85300FEF76CF910BD0000EC06002098
:1030200010B5012000F004F940B1012000F0FAF8D9
:103030000348006810B102490868804710BD0000CD
:10304000EC2B002010B54FF4806000F0F1F848B18F
:103050004FF4806000F0E6F82848806A10B12749F4
:10306000886A80474FF4006000F0E2F848B14FF4FE
:10307000006000F0D7F82148C06A10B11F49C86A43
:1030800080474FF4805000F0D3F848B14FF480509F
:1030900000F0C8F81948006B10B11849086B804758
:1030A0004FF4005000F0C4F848B14FF4005000F065
:1030B000B9F81248406B10B11049486B80474FF483
:1030C000804000F0B5F848B14FF4804000F0AAF815
:1030D0000A48806B10B10949886B80474FF4004063
:1030E00000F0A6F848B14FF4004000F09BF8034808
:1030F000C06B10B10149C86B804710BDEC2B00209C
:1031000010B5022000F094F840B1022000F08AF8D7
:103110000348406810B102494868804710BD00006C
:10312000EC2B002010B5042000F082F840B1042000
:1031300000F078F80348806810B102498868804739
:1031400010BD0000EC2B002010B5082000F070F836
:1031500040B1082000F066F80348C06810B1024989
:10316000C868804710BD0000EC2B002010B510206F
:1031700000F05EF840B1102000F054F803480069F8
:1031800010B102490869804710BD0000EC2B0020F7
:1031900010B5202000F04CF840B1202000F042F89B
:1031A0001F48406910B11E4948698047402000F01F
:1031B0003FF840B1402000F035F81948806910B15F
:1031C000174988698047802000F032F840B180209C
:1031D00000F028F81248C06910B11149C869804749
:1031E0004FF4807000F024F848B14FF4807000F084
:1031F00019F80B48006A10B10949086A80474FF472
:10320000007000F015F848B14FF4007000F00AF8B3
:103210000348406A10B10249486A804710BD000067
:10322000EC2B0020014908607047000014040140A5
:10323000014600200022074B1B6803EA0102054BF0
:1032400014331B680B4013B10AB1012000E00020C9
:103250007047000000040140002123498279002AC0
:103260003AD00A46126803689A430B461A600A1D50
:10327000126803689A430B1D1A60027911440A68A8
:1032800003681A430A60184A0832126803689A43AE
:10329000154B08331A601A1D126803689A43124BC3
:1032A0000C331A604279102A0ED11A1F1268036873
:1032B0001A430D4B08331A601A1D126803681A432B
:1032C000094B0C331A600DE00749427911440A6832
:1032D00003681A430A6005E0027911440A6803682A
:1032E0009A430A60704700000004014010B51D4A6F
:1032F0001268D1781B4A12689078FDF7B3FF90B935
:103300001948007818B905201749087028E01648B0
:1033100000781E2803D123201349087020E00020E4
:10332000114908701CE0104800780A2803D10F20CA
:103330000D49087014E00C48007828280DD10020B1
:103340000A490870487007490968C868074901F0C8
:10335000C5FF00200449087002E0002002490870FF
:1033600010BD0000FC06002002070020000700201E
:1033700010B51D4A126851791B4A12681079FDF781
:1033800071FF90B11948007818B91E2017490870CC
:1033900029E016480078052803D10A20134908704F
:1033A00021E00020114908701DE010480078232812
:1033B00003D128200D49087015E00C4800780F282B
:1033C0000ED100200A49087001204870064909689A
:1033D000C868074901F082FF00200449087002E034
:1033E00000200249087010BDFC06002002070020E2
:1033F0000007002010B51D4A1268D1781B4A1268D8
:103400009078FDF72FFF90B91948007818B905207A
:103410001749087029E0164800781E2803D1232098
:103420001349087021E00020114908701DE0104880
:1034300000780A2803D10F200D49087015E00C48C8
:10344000007828280ED101200A4908700020487011
:1034500006490968C868074901F040FF002004498F
:10346000087002E000200249087010BDFC06002030
:10347000030700200007002010B51D4A126851798B
:103480001B4A12681079FDF7EDFE90B919480078D3
:1034900018B91E201749087028E01648007805283A
:1034A00003D10A201349087020E000201149087058
:1034B0001CE010480078232803D128200D4908700B
:1034C00014E00C4800780F280DD101200A4908703B
:1034D000487007490968C868074901F0FFFE0020E5
:1034E0000449087002E000200249087010BD000085
:1034F000FC06002003070020000700202DE9F05FF4
:1035000007460025B94609F108040420FCF708FF26
:1035100080460420FCF704FF0646D9F800B0B4F852
:1035200000A0A8F800A04FF6027030800420B07010
:10353000A078F070A07805282CDCA07805280FDA98
:10354000E07830B1A178224A52F82100FEF7A4F9C0
:103550002FE0A1781E4A52F82100FEF787F928E0F3
:10356000E07858B1002506E0194951F82500FEF72A
:1035700093F9681CC5B2052DF6DB1AE0002506E0BC
:10358000134951F82500FEF771F9681CC5B2052DE5
:10359000F6DB0EE0334604225146584605F0D0FAD9
:1035A0003046FCF7ECFE4046FCF7E9FE0020BDE8A3
:1035B000F09F434604225146584605F065FA3046CE
:1035C000FCF7DDFE4046FCF7DAFE0120EFE70000E5
:1035D000643300202DE9F05F07460024B94609F165
:1035E00008050420FCF79CFE80460420FCF798FEAA
:1035F0000646D9F800B0B5F800A0A8F800A04FF62C
:10360000027030800520B070A878F070A878042887
:103610003BDCA878042814DAE87858B1A978294A5C
:1036200052F82100FFF7BDF8274951F82400FEF7B2
:1036300033F939E0A978234A52F82100FFF71AF844
:1036400032E0E87880B100240BE01E4951F82400F4
:10365000FFF7A7F81C4951F82400FEF71DF9601C7C
:10366000C4B2042CF1DB1FE000240BE0154951F833
:103670002400FEF7FFFF144951F82400FEF7F6F886
:10368000601CC4B2042CF1DB0EE033460422514628
:10369000584605F055FA3046FCF771FE4046FCF7F7
:1036A0006EFE0020BDE8F09F434604225146584676
:1036B00005F0EAF93046FCF762FE4046FCF75FFE93
:1036C0000120EFE784330020643300202DE9F05F10
:1036D00007460025B94609F108040420FCF720FE3E
:1036E00080460420FCF71CFE0646D9F800B0B4F86A
:1036F00000A0A8F800A04FF6027030800620B0703D
:10370000A078F070A07802282CDCA07802280FDACC
:10371000E07830B1A178224A52F82100FEF7BEFAD3
:103720002FE0A1781E4A52F82100FEF773FA28E034
:10373000E07858B1002506E0194951F82500FEF758
:10374000ADFA681CC5B2042DF6DB1AE0002506E0D0
:10375000134951F82500FEF75DFA681CC5B2042D27
:10376000F6DB0EE0334604225146584605F0E8F9F0
:103770003046FCF704FE4046FCF701FE0020BDE8A1
:10378000F09F434604225146584605F07DF93046E5
:10379000FCF7F5FD4046FCF7F2FD0120EFE70000E5
:1037A0000C0700202DE9FF5F8146CA460AF1080494
:1037B0000420FCF7B5FD06460420FCF7B1FD0746E2
:1037C0000420FCF7ADFD8046DAF800B020880390B5
:1037D0000420029060884D490880608807F0A8FCAA
:1037E0000190002003464A4A00900199FEF7DCFC54
:1037F00048490860608807F09BFC01900020034660
:10380000434A009001200199FEF7CEFC4149C8626D
:10381000608807F08DFC0190002003463C4A009030
:1038200002200199FEF7C0FC3A498865608807F0DC
:103830007FFC019000200346354A00900320019947
:10384000FEF7B2FC3349C1F88400002517E0324886
:10385000324B009053F8252005EB450303EBC503DD
:10386000DFF8B0C05CF8231005EB450303EBC5039C
:103870000CEB83002A4BFEF7E5FD681CC5B2042D56
:10388000E5DB208830800020B0700021F1703346E5
:103890005846DDE9022105F0F7F8C8230022114659
:1038A000104602F077F941F20900A8F80000002064
:1038B00088F8020088F803001A4A1268517C194AF5
:1038C0001268107CFDF7CEFC68B14FF60F7038809F
:1038D0000720B8700220F8703B46042200210846F9
:1038E00005F01AF805E0434604220021084605F0D9
:1038F0006FF83046FCF743FD4046FCF740FD384684
:10390000FCF73DFD012004B0BDE8F09F4807002012
:103910000000C842F03300205D8D00088433002091
:10392000258D0008140700202DE9F04705462F4695
:1039300007F108093820FCF7F3FC04462CB92046AF
:10394000FCF71DFD0020BDE8F087D7F80080B9F82E
:103950000060268020220AA1A01CFCF737FD162259
:103960000DA104F12200FCF731FD23463822314637
:10397000404605F089F82046FCF701FD0120E2E70A
:103980004D617920203420323032322031323A30C9
:10399000363A34300000000056312E302E302E30B2
:1039A000000000002DE9F0470646B04608F1080483
:1039B0000420FCF7B5FC07460420FCF7B1FC0546E3
:1039C000D8F800A0B4F80090A7F800904FF6027065
:1039D00028800A20A870A078E8706088032843DA5D
:1039E000608820B1012811D002282DD11DE02C497A
:1039F000486801F00DF92A49886801F009F96188E1
:103A0000274A52F8210001F019F92CE024490868EE
:103A100001F0FEF82249886801F0FAF86188204A2E
:103A200052F8210001F00AF91DE01D49086801F073
:103A3000EFF81B49486801F0EBF86188184A52F822
:103A4000210001F0FBF80EE02B46042249465046C7
:103A500005F076F82846FCF792FC3846FCF78FFC18
:103A60000020BDE8F0870DE02B4604224946504671
:103A700005F066F82846FCF782FC3846FCF77FFC28
:103A80000020EEE73B4604224946504604F0FCFF86
:103A90002846FCF774FC3846FCF771FC0120E0E78F
:103AA000AC3300202DE9F0470746B84608F108047A
:103AB0000420FCF735FC05460420FCF731FC0646E3
:103AC000D8F800A0B4F80090A5F800904FF6027066
:103AD00030800720B070A078F070608802280EDC7B
:103AE000A078A8706288144B53F82220517C628819
:103AF00053F82220107CFDF7B5FBE8700EE033464A
:103B000004224946504605F01BF83046FCF737FCC6
:103B10002846FCF734FC0020BDE8F0872B46042241
:103B20004946504604F0B0FF3046FCF728FC2846D2
:103B3000FCF725FC0120EFE7140700202DE9F05FDA
:103B400007460025B94609F108040420FCF7E8FB04
:103B500080460420FCF7E4FB0646D9F800B0B4F830
:103B600000A0A8F800A04FF6027030800120B070CD
:103B7000A078F070A07803282CDCA07803280FDA56
:103B8000E07830B1A178224A52F8210002F0EDFF2E
:103B90002FE0A1781E4A52F8210002F0EEFF28E043
:103BA000E07858B1002506E0194951F8250002F0E7
:103BB000DCFF681CC5B2032DF6DB1AE0002506E029
:103BC000134951F8250002F0D8FF681CC5B2032D37
:103BD000F6DB0EE0334604225146584604F0B0FFAF
:103BE0003046FCF7CCFB4046FCF7C9FB0020BDE8A3
:103BF000F09F434604225146584604F045FF3046A4
:103C0000FCF7BDFB4046FCF7BAFB0120EFE70000E4
:103C1000783300202DE9F05F04464FF0000B264674
:103C200006F108070420FCF77BFB0546D6F8009058
:103C3000B7F80080A5F8008078880F49088008460A
:103C4000008840010D4991FBF0F01FFA80FA0C4901
:103C50000968096D5246886C012102F042FE2B462C
:103C600004224146484604F00FFF2846FCF787FB34
:103C70000120BDE8F09F00003E07002000127A00FE
:103C8000040700202DE9FE4F8146CA460AF10804C8
:103C90000820FCF745FB06460420FCF741FB0546DF
:103CA000DAF800000290B4F800B0A6F800B04FF6C1
:103CB00002702880608810B90920A87001E00820EF
:103CC000A870A078E8706088062812DC6088708090
:103CD0006088164901EBC0000022154BD0E9007145
:103CE000384606F081FDCDE9000106F0E9FC706080
:103CF0000EE02B4604225946029804F021FF284684
:103D0000FCF73DFB3046FCF73AFB0020BDE8FE8F98
:103D1000334608225946029804F0B6FE2846FCF7BE
:103D20002EFB3046FCF72BFB0120EFE7B8330020D9
:103D3000000059402DE9F0470546A94609F108065B
:103D40000420FCF7EDFA07460420FCF7E9FA0446E4
:103D5000D9F800A0B6F80080A7F800804FF60270EE
:103D600020800320A070B078E070B07802280BDAD1
:103D7000F07820B11348006804F086FB13E0114886
:103D8000006804F001FB0EE0234604224146504641
:103D900004F0D6FE2046FCF7F2FA3846FCF7EFFABC
:103DA0000020BDE8F0873B4604224146504604F01F
:103DB0006BFE2046FCF7E3FA3846FCF7E0FA0120F8
:103DC000EFE700000807002010B50446204600F089
:103DD000B1F810BD2DE9F05F05462F4607F108093F
:103DE0000C20FCF79DFA04460026D7F800A0B9F88D
:103DF0000080A4F80080FEF7D9FB00BF0FE0114956
:103E000051F826108868104907F0DAF9834607F060
:103E100057F981B2A01C20F81610701CC6B2042EEF
:103E2000EDDB0020A0720021E17223460C22414606
:103E3000504604F029FE2046FCF7A1FA0120BDE817
:103E4000F09F0000843300200000C8422DE9F047B5
:103E50000446264606F108070420FCF761FA0546E9
:103E6000D6F80080B7F8009013480078022815D0E3
:103E70000220114908701149886802F07EFE0F493E
:103E8000086802F07AFE0D49486802F06EFE0C48A0
:103E9000006804F0F9FA00200A4948703888288040
:103EA0002B4604224946404604F0EEFD2846FCF726
:103EB00066FA0120BDE8F0878807002078330020EB
:103EC000080700204C0700202DE9F047044626464D
:103ED00006F108070420FCF723FA0546D6F800800F
:103EE000B7F800901048007801280ED001200E4944
:103EF00008700E49486802F040FE0D48006804F062
:103F000043FA0A49086802F030FE388828802B46B8
:103F100004224946404604F0B7FD2846FCF72FFA34
:103F20000120BDE8F08700008807002078330020DA
:103F30000807002010B5044600F0ACF82D4A012116
:103F40002046FDF7AFFA2C4A02212046FDF7AAFAD7
:103F50002A4A03212046FDF7A5FA294A05212046D1
:103F6000FDF7A0FA274A04212046FDF79BFA264ACE
:103F700006212046FDF796FA244A07212046FDF740
:103F800091FA234A08212046FDF78CFA214A09219B
:103F90002046FDF787FA204A0A212046FDF782FADB
:103FA0001E4A0C212046FDF77DFA1D4A0B212046B2
:103FB000FDF778FA1B4A11212046FDF773FA1A4AD9
:103FC00012212046FDF76EFA184A13212046FDF70C
:103FD00069FA174A14212046FDF764FA154A15219B
:103FE0002046FDF75FFA144A16212046FDF75AFADB
:103FF000012010BDA53700083D3B0008153C000816
:10400000FD340008353D0008D5350008CD360008E0
:10401000A53A0008853C0008A539000829390008A0
:104020007D48000815470008C93E00084D3E0008BD
:104030003D40000825480008D53D00082DE9F0471F
:1040400005462F4607F108060420FCF769F90446E7
:10405000D7F80090B6F80080A4F800800020A07087
:104060000021E170708818B101200949087002E050
:10407000002007490870234604224146484604F0C0
:1040800003FD2046FCF77BF90120BDE8F087000026
:104090003C07002000B599B00020189005200123AE
:1040A0000622194600900020FCF71CFCFE4908601F
:1040B000002001F091F9FD490860002001F08CF921
:1040C000FB490860FB4A1421F7480068FCF7EBFC49
:1040D0001898112805D1F74A1421F3480068FCF715
:1040E00085FC092004210722CDE91312CDE9151022
:1040F000082010220723CDE90F32CDE90B32CDE99C
:104100000D32CDE91110104601220792CDE90823A6
:104110000A9000200522CDE9042001460690E648D9
:10412000CDE902100020E449E44AE54BCDE9000165
:10413000022100F01FFEE349086001220A21042049
:10414000FCF758FD01220A210420FDF71FF9012286
:1041500008210420FDF71AF9DA48006810B9002098
:1041600019B000BD0720022300221146009010461E
:1041700004F03CF9D44908600846006808B90020FA
:10418000EEE7D148006804F0FFF81020072108226C
:104190000223CDE90232CDE904100520642142F268
:1041A00010730022CDE900101146104602F060FCA9
:1041B000C64908601020072109220223CDE90232F6
:1041C000CDE904100520642142F210730022CDE9EC
:1041D00000101146012002F04BFCBC494860102041
:1041E000072101220323CDE90232CDE90410052085
:1041F000642142F210730022CDE900101146022022
:1042000002F036FCB14988600020179011E0AF49F8
:10421000179851F8200008B90020A1E7AB4917987A
:1042200051F82000169002F0A8FC1798401CC0B26C
:10423000179017980328EADB07230322002108467A
:10424000FDF7D0FAA24908600623032200210120CD
:10425000FDF7C8FA9E494860052303220021022089
:10426000FDF7C0FA9A498860042303220021104612
:10427000FDF7B8FA9649C86003231A4600210420C6
:10428000FDF7B0FA924908610020179011E09049BB
:10429000179851F8200008B9002061E78C49179859
:1042A00051F820001690FDF7E1FA1798401CC0B2B3
:1042B000179017980528EADB854800691690FDF7E6
:1042C000EBFA0A20002101220B46CDE900210290E1
:1042D0000F2204210020FEF7D9F97E4908600A2048
:1042E000062100221346CDE9002102900E2204216E
:1042F0000120FEF7CBF9774948600A20042100220B
:104300001346CDE9002102900D220220FEF7BEF9EE
:10431000704988600A20022100221346CDE900215D
:1043200002900C2204210320FEF7B0F96949C8600D
:104330000020179011E06749179851F8200008B93C
:1043400000200DE76349179851F820001690FEF7FA
:1043500091F91798401CC0B2179017980428EADB0F
:104360000A2202210020FDF761FC5B4908600B2254
:1043700002210120FDF75AFC5749486000201790A0
:1043800011E05549179851F8200008B90020E7E6D8
:104390005149179851F820001690FDF73BFC1798EB
:1043A000401CC0B2179017980228EADB4B484C49D2
:1043B000CDE9080141424B48CDE9061000214A48A9
:1043C000CDE904104948CDE90210084647490523C4
:1043D0000222CDE9000100210846FDF7C5FD444950
:1043E00008603E493E48CDE9081048423D49CDE9C4
:1043F000060100213C48CDE9041008463B49CDE9BF
:1044000002010021394804230222CDE900100120D5
:10441000FDF7AAFD3649486030493148CDE908101A
:1044200049423048CDE9061000202F49CDE904016A
:1044300001462E48CDE9021000202C490323022218
:10444000CDE9000101461046FDF78EFD2849886040
:1044500022482349CDE9080141422248CDE906100E
:1044600000202149CDE9040101462048CDE9021090
:1044700000201E4902231A46CDE90001014603200F
:10448000FDF772FD1A49C86014491548CDE90810B6
:1044900049421448CDE9061000211348CDE9041023
:1044A0001248CDE9021025E028070020340700203B
:1044B000380700207007002000807640CDCCCCCC9F
:1044C000CCCCFC3F040700200807002078330020F4
:1044D00064330020843300200C0700209A999999B6
:1044E0009999B93F66660A4000D6AA400000244068
:1044F000943300200846764901230222CDE90001C9
:1045000000210420FDF730FD7249086172497348AB
:10451000CDE9081048427249CDE9060100217148F1
:10452000CDE904106A48CDE9021008466849002325
:104530000222CDE9000119460520FDF715FD654968
:104540004861002017900AE06249179851F820004E
:1045500008B9002004E61798401CC0B217901798BD
:104560000628F1DB072001230A22194600900020CB
:10457000FEF73EFA5C490860082001230A2219462A
:1045800000901846FEF734FA57494860002017900B
:104590000AE05549179851F8200008B90020DFE5D6
:1045A0001798401CC0B2179017980228F1DB4F48AB
:1045B00040694E4909694D4AD2684C4B9B68CDE928
:1045C0000432CDE90610494840680B2301210A2234
:1045D000CDE90113009203900B4602224FF4614192
:1045E0000020FEF795FC424908600846006808B9BB
:1045F0000020B5E50F2003230A22002100900420AB
:10460000FEF7F6F93B4908600A2003210B22CDE9A9
:104610000112CDE903100D200B460E220090002060
:10462000FDF78EF8344908600C2003230A2200218C
:1046300000900720FEF7DCF92E4948600020179013
:104640000AE02C49179851F8200008B9002087E5A6
:104650001798401CC0B2179017980228F1DB082366
:1046600003220021012000F08DFA2449086009236B
:1046700003220021022000F085FA2049486000232F
:1046800003221946104600F07DFA1C49886000207C
:1046900017900AE01949179851F8200008B900202E
:1046A0005EE51798401CC0B2179017980328F1DBFD
:1046B00012484068169000F0C1FA1148114908608C
:1046C00011484860114888601148C860012047E5DA
:1046D00000002440943300209A9999999999B93F00
:1046E00066660A4000D6AA40140700207007002022
:1046F0001C07002020070020FC060020AC3300200F
:10470000C16E000808350020256F0008916F000871
:10471000FD6F00082DE9F0470546A84608F108049A
:104720000420FBF7FDFD07460420FBF7F9FD0646D4
:10473000D8F800A0B4F80090A7F800904FF60270E7
:1047400030800B20B0700020F070A078E8B13348C2
:104750008078207131484078E07030488088E0806F
:104760002E488068A0602D48C078607123460C22D6
:104770004946504604F088F93046FBF700FE3846BB
:10478000FBF7FDFD0120BDE8F08720792349887003
:10479000E0784870E0888880A06888606079C87098
:1047A000A06806F0C5FC1E4909680861A06806F00B
:1047B000BFFC1B49C96A0861A06806F0B9FC18492A
:1047C000896D0861A06806F0B3FC1549D1F8841022
:1047D000086113490868FDF71FFD1149C86AFDF714
:1047E0001BFD0F49886DFDF717FD0D49D1F88400B9
:1047F000FDF712FDE07818B904F074FA04F058FAE5
:104800003B4604224946504604F03EF93046FBF749
:10481000B6FD3846FBF7B3FD0120B4E74C07002096
:10482000F03300202DE9F04705462F4607F1080632
:104830000420FBF775FD0446D7F80090B6F8008019
:10484000A4F800800020A0700021E170708818B1E9
:1048500001200949087002E000200749087023463A
:1048600004224146484604F00FF92046FBF787FD35
:104870000120BDE8F0870000440700202DE9F04743
:1048800005462F4607F108040420FBF749FD0646BC
:10489000D7F80090B4F80080A6F80080608820B3B4
:1048A0003349486804F02AFA60603149886804F0A6
:1048B00025FAA0602E49C86804F020FAE0602C496F
:1048C000086904F01BFA20612949486904F016FAC6
:1048D0006061234618224146484604F0D5F8304628
:1048E000FBF74DFD0120BDE8F087606804F080FA19
:1048F0001F494860A06804F07BFA1D498860E068A1
:1049000004F076FA1A49C860206904F071FA18496F
:104910000861606904F06CFA15494861084640680E
:104920001449096848651248816812480068816521
:104930000F48C1680F480068C1650D4801690D48FE
:10494000006801660A4841690A4800684166084AE9
:10495000142109480068FCF7A6F8334604224146B2
:10496000484604F091F83046FBF709FD0120BAE70C
:10497000700700201C0700202807002030B5002207
:104980008B071C0F0F2303FA04F20B4B8C1053F808
:1049900024309343084C8D1044F8253023468C1066
:1049A00053F824308C07240F00FA04F42343024CFC
:1049B0008D1044F8253030BD080001402DE9F0414C
:1049C000024600250026002000230024002791F83D
:1049D00003C00CF00F0591F803C00CF0100CBCF1F3
:1049E000000F03D091F802C04CEA050591F800C011
:1049F000BCF1000F31D0146800202BE04FF0010C07
:104A00000CFA00F3B1F800C00CEA03069E4220D174
:104A100083004FF00F0C0CFA03F7BC4305FA03FCBC
:104A20004CEA040491F803C0BCF1280F06D14FF002
:104A3000010C0CFA00FCC2F814C00AE091F803C0A3
:104A4000BCF1480F05D14FF0010C0CFA00FCC2F884
:104A500010C0401C0828D1D31460B1F800C0BCF1CC
:104A6000FF0F34DD546800202EE000F1080C4FF0F9
:104A7000010808FA0CF3B1F800C00CEA03069E42E4
:104A800021D183004FF00F0C0CFA03F7BC4305FA59
:104A900003FC4CEA040491F803C0BCF1280F05D1D3
:104AA00000F1080C08FA0CF8C2F8148091F803C061
:104AB000BCF1480F07D100F1080C4FF0010808FACB
:104AC0000CF8C2F81080401C0828CED35460BDE812
:104AD000F0810000F0B50A460023002400210025E3
:104AE00000F00046B6F1004F02D11D4EF16901E021
:104AF0001B4E7168C0F3034583B200F44016B6F54F
:104B0000401F08D121F07061154E766826F070665E
:104B1000134F7E6012E000F48016B6F5801F06D1B8
:104B2000032606FA05F4A14341F0706106E0460D44
:104B3000360103FA06F6B14341F0706122B1460D29
:104B4000360103FA06F6314300F00046B6F1004F95
:104B500002D1034EF16101E0014E7160F0BD000031
:104B6000000001400246002093680B400BB1012079
:104B700000E0002070470AB1016100E04161704728
:104B800000BFFEE72DE9F0410546884616461F4660
:104B900006210120FBF7B0FB044614B90020BDE854
:104BA000F081042D04DB2046FBF7E9FB0020F6E74B
:104BB000164850F8250030B12046FBF7E0FB1348BB
:104BC00050F8254002E0114840F82540A57084F8CF
:104BD000038026716771012239463046FCF70AF8D6
:104BE000E07838B900206070627861792079FCF74C
:104BF000CDFB06E001206070627861792079FCF7D6
:104C0000C5FB022020702046C9E70000142D0020BB
:104C100010B50446E07838B9002060706278617998
:104C20002079FCF7B3FB06E00120607062786179BF
:104C30002079FCF7ABFB0220207010BD10B50446B4
:104C4000E07838B901206070627861792079FCF7EA
:104C50009DFB06E000206070627861792079FCF7A6
:104C600095FB0120207010BD2DE9F0478AB08146E8
:104C700015461E4699F82C0005F066FDCDE90601A3
:104C8000D9E90C733A460020394905F055FBCDE9C6
:104C90000201D9E90E733A462846314605F04CFB2D
:104CA000CDE90001DDE9022305F09EFDCDE9040117
:104CB000DDE9062305F098FDCDE9080105F0D0FCFB
:104CC0000446002C01DC012000E00020824699F817
:104CD0002C10201E01DB024600E0424299F82C30E5
:104CE00092FBF3F703FB172201EBD173B2EB630FD7
:104CF0001EDBBAF1000F0DD1201E01DB014600E0E2
:104D0000414299F82C2091FBF2F302FB1311511A46
:104D10000C4429E0201E01DB014600E0414299F8E5
:104D20002C2091FBF2F302FB1311511A641A1BE0C1
:104D3000BAF1000F0CD1201E01DB014600E0414218
:104D400099F82C2091FBF2F302FB1311641A0BE08B
:104D5000201E01DB014600E0414299F82C2091FB26
:104D6000F2F302FB13110C4420460AB0BDE8F087B1
:104D7000008076402DE9FF5F84B0054617469846CF
:104D800025AE96E8400E58210120FBF7B5FA0446FF
:104D90001CB9002008B0BDE8F09F042D04DB2046BC
:104DA000FBF7EDFA0020F5E73D4850F8250030B15B
:104DB0002046FBF7E4FA3A4850F8254002E038482C
:104DC00040F8254035B1012D0ED0022D16D0032D0F
:104DD00028D11DE08DE8400E0020DDE92323059950
:104DE00000F066F8206522E08DE8400E0120DDE944
:104DF0002323059900F05CF8206518E08DE8400E4B
:104E00000220DDE92323059900F052F820650EE029
:104E10008DE8400E0320DDE92323059900F048F8D2
:104E2000206504E02046FBF7AAFA0020B2E700BFA5
:104E300004F81C5F169860701A4800EB85006060EB
:104E400005EBC50000EB0510174901EB0010A06051
:104E500017982073189860731998A0731A98E073C4
:104E600005982074C4E90578DDE91201C4E9070159
:104E70001C3C2046DDE91423FFF7F6FE2064606C3D
:104E800018B9002000F0A8FA606400206061A061F9
:104E900020706060A060E06020746074204679E754
:104EA000242D0020880000209800002000BFFEE78D
:104EB0002DE9F05F05468A469346DDE90A89DDE97A
:104EC0000C6784210120FBF717FA044614B900206F
:104ED000BDE8F09F042D04DB2046FBF750FA0020CC
:104EE000F6E7344850F8250030B12046FBF747FA82
:104EF000304850F8254002E02E4840F8254035B1B2
:104F0000012D0CD0022D12D0032D20D117E03B46ED
:104F100032460021084601F021FDA0641CE03B461A
:104F200032460121084601F019FDA06414E03B4619
:104F300032460221084601F011FDA0640CE03B4618
:104F400032460321084601F009FDA06404E0204632
:104F5000FBF715FA0020BBE700BF00202075607545
:104F6000A061A0832062606284F82800E062206370
:104F70006063A063E06320706060A060E060206117
:104F8000237D0BB1012300E000231A4694F8421060
:104F900094F84100FCF7FAF9637D0BB1012300E0BE
:104FA00000231A4694F8441094F84300FCF7EEF9F5
:104FB00020468DE7E02D00207047000070B50021ED
:104FC00000230F22C47804B3154C246804F4E06471
:104FD000C4F5E064210AC1F10403CA40447804FA2C
:104FE00003F184781440214309010E4C0678A15541
:104FF000047804F01F050124AC4005786D11AD0064
:1050000005F1E025C5F8004109E0047804F01F052A
:105010000124AC40044D0678761145F8264070BD59
:105020000CED00E000E400E080E100E00249014313
:10503000024A1160704700000000FA050CED00E024
:105040002DE9F04105460E46144600271DB90420FF
:105050002070BDE8F08116B90C202070F9E71148E6
:10506000007810B112202070F3E72878012808D0CA
:10507000022807D0032802D0042804D100E000BF92
:1050800000BF00BF02E001202070E2E700BFFBF795
:10509000C1F807462E613846FBF7C0F800202070A3
:1050A00000BFD6E73100002010B500F017F801F07E
:1050B0004DF901F07DF901F09DF901F017F901F0CA
:1050C000D7F801F02FFA01F059FA01F0D1F901F007
:1050D000F7F900F0EDFE00F007F810BD00200149DF
:1050E00008807047000000207047000010B50024C1
:1050F0001A480078012830D1FBF78CF8044618488C
:10510000007820B116480078401E154908701448F0
:105110000078F8B913480078E0B901F091FA124824
:105120001249097850F82100114908600F480078A9
:105130001049097888420DD00D480068806B401CEA
:105140000B49096888630C480068401C0A490860DC
:10515000FBF77CF82046FBF761F810BD400000200B
:105160003100002038000020C41900203A0000203F
:1051700050000020390000201800002070B50546BE
:1051800000261048007808B1002070BDFBF742F8F7
:1051900006460D480468006820B10B480068406866
:1051A000094908603046FBF739F84CB101202070FE
:1051B00000202081656005A02061204601F04AF8AA
:1051C0002046E2E7310000201C0000203F000000E4
:1051D0002DE9F04105460F4614464FF0000825B969
:1051E000042020700020BDE8F0812878012803D039
:1051F000012020700020F6E73548007818B1022021
:1052000020700020EFE73348007818B10D2020709F
:105210000020E8E7FAF7FEFF80466E6846B10020FE
:1052200068604046FAF7FAFF002020703046DAE75F
:105230002948006890F8300040F0020026490968CB
:1052400081F8300000202449096881F831002248A3
:105250000068C762284600F0BFFF4046FAF7DEFF4D
:1052600001F0B4F9FAF7D6FF80461B48006890F8C1
:10527000310020B101280DD002280AD105E01648DE
:105280000068066A002020700DE000260E202070C5
:1052900009E000BF29461048006800F087FF00269B
:1052A0000A20207000BF00BF00200B49096881F868
:1052B00030000949096881F8310007490968C86167
:1052C0000549096808624046FAF7A8FF30468AE7B0
:1052D00031000020380000204800002070B504464E
:1052E0000D4600260CB9042070BD0DB90320FBE764
:1052F0002078012801D00120F6E7FAF78BFF064657
:10530000A07A60B1002302222946204600F00CFF5B
:105310003046FAF783FF01F059F90020E4E76068AE
:1053200020B13046FAF77AFF1420DDE76560304699
:10533000FAF774FF0020D7E710B500240B48007877
:10534000012811D1FAF766FF04460948007840B9F0
:1053500008480078FF2804D206480078401C054918
:1053600008702046FAF75AFF10BD000040000020E8
:10537000310000203800002010B5002413480078C8
:10538000012821D1FAF746FF044611480078C0B938
:105390001048007888B10F480078401E0D49087009
:1053A0000846007828B92046FAF738FF01F00EF9D0
:1053B0000AE02046FAF732FF06E02046FAF72EFF11
:1053C00002E02046FAF72AFF10BD0000400000204E
:1053D000310000203800002070B505460026104836
:1053E000007808B1002070BDFAF714FF06460D489A
:1053F0000468006820B10B480068406809490860EB
:105400003046FAF70BFF4CB10320207025810020B5
:10541000606005A02061204600F01CFF2046E2E706
:10542000310000201C0000203F0000002DE9F04169
:1054300005460E46144600271DB904202070BDE81D
:10544000F0812878032802D001202070F7E7314846
:10545000007810B102202070F1E72F48007810B1D9
:105460000D202070EBE7FAF7D5FE0746288940B1FA
:105470002889401E28813846FAF7D0FE0020207087
:10548000DDE72648006890F8300040F0010023492D
:10549000096881F8300000202049096881F831004E
:1054A0001E480068C662284600F096FE3846FAF7A5
:1054B000B5FE01F08BF8FAF7ADFE07461748006815
:1054C00090F8310020B1012809D0022806D102E06D
:1054D000002020700BE00E20207008E000BF29465D
:1054E0000E48006800F062FE0A20207000BF00BF76
:1054F00000200A49096881F830000849096881F8E4
:10550000310006490968C8613846FAF787FE00BFCE
:1055100095E70000310000203800002048000020FE
:1055200070B5044600250CB9042070BD207803280E
:1055300001D00120F9E7FAF76DFE0546A07A60B1C7
:10554000002301221946204600F0EEFD2846FAF716
:1055500065FE01F03BF80020E7E720894FF6FF7178
:10556000884207D22089401C20812846FAF756FE3F
:105570000020DAE72846FAF751FE3320D5E700008D
:1055800010B50B48007890B901F05AF80948007836
:105590000949087009480749097850F82100084965
:1055A00008600846006807490860FAF73AFE10BD2F
:1055B000400000203A00002039000020C4190020DB
:1055C0005000002048000020704700002DE9FE4FE9
:1055D00006460F4690461C464FF000091F2C02DD80
:1055E0002A20BDE8FE8FFAF715FE81461E48007896
:1055F00020B14846FAF712FE3C20F2E71B4850F86B
:10560000240060BB0120194941F824004846FAF7FC
:1056100005FE002342463946304600F0D1F9824665
:105620000020009001900346024651460290204619
:1056300001F01CF8054635B90D48007801280CD159
:1056400000F0C4FF09E0FAF7E5FD814600200749B4
:1056500041F824004846FAF7E1FD2846C1E74846EC
:10566000FAF7DCFD2820BCE731000020C419002037
:10567000400000202DE9F04F85B081468A469346D0
:105680001C46DDE90F78129D002003901F2C03DDDE
:105690002A2005B0BDE8F08FFAF7BCFD0390224840
:1056A000007820B10398FAF7B9FD3C20F1E71F48D4
:1056B00050F8240088BB01201C4941F824000398BD
:1056C000FAF7ACFD2A464146384601F0FDF82B4674
:1056D0005A465146484600F073F904901198CDE9B6
:1056E000008002953A4620460E9B049900F0BEFFCA
:1056F000064636B90E48007801280CD100F066FF46
:1057000009E0FAF787FD03900020084941F82400DA
:105710000398FAF783FD3046BBE7FFE70398FAF7F3
:105720007DFD2820B5E7000031000020C4190020CD
:1057300040000020704700002DE9F0410546002799
:105740004A48007810B14020BDE8F0811F2D01D1FA
:105750003E20F9E71F2D03DBFF2D01D02A20F3E7C0
:10576000FAF758FD0746FF2D03D14148006890F82D
:105770003250404850F8254024B93846FAF74EFDDB
:105780004320E1E7012C04D13846FAF747FD3D20DC
:10579000DAE714F8340F3849085C617888432178D7
:1057A000354A505414F834091146085C30B994F85D
:1057B000361032480078884330490870E06918B1E3
:1057C0002046E16900F0F2FC666A16B1304600F04E
:1057D0007BFD0020E06284F8300084F83100284826
:1057E0000078FF2804D226480078401C244908701D
:1057F0003846FAF713FD00F095FCFAF70BFD074663
:105800001F48007820B11E480078401E1C490870CF
:10581000204600F041F81B480078401E19490870E6
:105820000020144941F82500A06930B900206169C1
:10583000886115496069086005E0D4E9050148619F
:10584000D4E9051088611148006860610F48046060
:105850000FA0E0643846FAF7E1FC0E480078012812
:1058600001D100F0B3FE00206EE7000031000020FF
:1058700048000020C41900203C0000203B0000200C
:105880003800002041000020540000204C0000207F
:105890003F00000040000020704770472DE9F041B4
:1058A00005460F4614464FF000081F2D05DDFF2D5D
:1058B00003D02A202070BDE8F08117B90C20207099
:1058C000F9E71448007810B112202070F3E7FAF7D6
:1058D000A1FC8046FF2D03D10F48006890F832509C
:1058E0000E4850F825602EB94046FAF797FC432041
:1058F0002070E0E7012E05D14046FAF78FFC4320E7
:105900002070D8E7F7644046FAF788FC0020207042
:1059100000BFD0E73100002048000020C41900205B
:10592000704770472DE9F04706460C464FF0000AD5
:105930001F2E04DDFF2E02D02A20BDE8F0870CB90F
:105940000920FAE7002020606060FAF763FC8246D5
:10595000FF2E03D11848006890F83260174850F8BD
:10596000265025B95046FAF759FC4320E5E7012DAA
:1059700004D15046FAF752FC4320DEE7287C00F0C1
:10598000010020B95046FAF749FC4520D5E7002729
:10599000D5F80C90D5F808805046FAF73FFC00E0A7
:1059A0007F1C58F8041B0029FAD02760A9EB0700D8
:1059B00060600020C1E7000048000020C4190020FA
:1059C00070B5044610464FF080750560051F2846E7
:1059D0002C60214E051F28462E604FF01236051F01
:1059E00028462E604FF00336051F28462E604FF0E4
:1059F0000236051F28462E607610051F28462E60A9
:105A0000051F284629604FF01136051F28462E60D5
:105A10004FF01036051F28462E604FF00936051F3F
:105A200028462E604FF00836051F28462E604FF09E
:105A30000736051F28462E604FF00636051F2846FC
:105A40002E604FF00536051F28462E604FF00436B5
:105A5000051F28462E6070BDD56700082DE9F0416E
:105A600005464FF000081F2D02D14720BDE8F08108
:105A70001F2D03DBFF2D01D02A20F7E7FAF7CAFB21
:105A80008046FF2D05D12048006890F8325001264D
:105A900008E01D48006890F83200A84201D10126B4
:105AA00000E00026194850F8254024B94046FAF78E
:105AB000B5FB4820DAE7012C04D14046FAF7AEFBEB
:105AC0004320D3E794F834701148C05D94F8351042
:105AD00088430F49C8550846C05D30B994F8361060
