:020000040800F2
:1000000090E80020ED010008855A0008E14E000844
:100010005F5700082D180008A58A0008000000009E
:100020000000000000000000000000005D760008F5
:100030008D1E0008000000008B0100088179000877
:10004000070200080702000807020008070200086C
:1000500007020008070200082D3400080D350008CB
:1000600031350008553500087935000807020008C9
:10007000070200080702000807020008070200083C
:10008000070200080702000807020008070200082C
:10009000658A000807020008070200089D3500086D
:1000A000070200080702000807020008070200080C
:1000B000157A00083D7A0008697A000807020008EE
:1000C00007020008070200080702000807020008EC
:1000D00007020008C9870008DD8700080D880008AE
:1000E0005134000807020008070200080702000850
:1000F00007020008070200080702000807020008BC
:100100000702000807020008957A000807020008A5
:100110009987000807020008C17A0008ED7A0008F4
:10012000070200080702000807020008070200088B
:10013000DFF810D000F0FAFC0048004779A500086D
:10014000AFF3008090E80020EFF3108072B67047A4
:1001500080F3108870471D484FF0FF0101700020A8
:1001600080F309881A48012101701A484FF0805124
:10017000016062B6FEE717484FF08051016070479A
:1001800014484FF080510160704772B6EFF3098058
:1001900028B1203880E8F00F0F490968086000B5E1
:1001A0000E4880475DF804EB0D480E490A7802704E
:1001B00009480D490A680260106890E8F00F203085
:1001C00080F309884EF0040E62B6704722ED00E01D
:1001D0004000002004ED00E04800002029640008F1
:1001E000390000203A0000205000002006488047D7
:1001F00006480047FEE7FEE7FEE7FEE7FEE7FEE70C
:10020000FEE7FEE7FEE7FEE7B579000831010008EA
:1002100040EA01039B0703D009E008C9121F08C088
:10022000042AFAD203E011F8013B00F8013B521E08
:10023000F9D27047D2B201E000F8012B491EFBD27F
:1002400070470022F6E710B513460A4604461946E1
:10025000FFF7F0FF204610BD10B5484304460AF0F2
:10026000A1F9002805D00021002C02D0641E015500
:10027000FAE710BDF0B480EA0102D40F4200B2EBFD
:10028000410F02D20246084611464A0042D0C30D31
:10029000DDB2C1F3C752AD1A202D35DAC1F3160114
:1002A00041F4000204B15242C5F1200602FA06F1FF
:1002B0002A411044B3EBD05F23D0C4B1012DA0EB91
:1002C000C35009DCF0BC4FF0004202EAC352DBB27B
:1002D00000F5000000F044BB400000F1807000EB2E
:1002E000C350A0F1807040EAD170490009E049088C
:1002F00041EAC071A0EBC35000F50000400800EBDC
:10030000C350F0BC00F023BB6142012202EB41016B
:10031000001BF6E7F0BC704781F00041AAE780F0CF
:100320000040A7E780EA010210B502F00043400058
:1003300022D04A001FD0010E01EB1261C0F356001B
:10034000C2F3560240F4000042F40002A0FB022077
:1003500000047F39140400D0401C50EA124001D43C
:100360004000491EC2B20C0604EBD010401C4008ED
:10037000802A02D003E0002010BD20F001000029F7
:1003800000DA0020184310BD30B480EA010202F008
:10039000004530F0004221F0004013D090B1C30D71
:1003A000D40DC2F31601C0F31600E41A41F40001A3
:1003B00040F400027D34914201D3641C00E0490006
:1003C000002C02DA30BC002070474FF400000023FC
:1003D000914201D3891A034340084FEA4101F7D102
:1003E00051B1914202D14FF0004105E002D24FF0ED
:1003F000010101E06FF0010103EBC450284430BC5F
:1004000000F0A5BA2DE9FE4F804681EA0300C00F37
:100410000C46009021F0004123F00045B8EB0200AB
:10042000A94105D24046214690461C460B4602464D
:1004300023F00040104347D0270DC7F30A00C3F351
:100440000A510290401A019040286BDAC3F313005E
:1004500040F4801B0098924620B10023D2EB030A9F
:1004600063EB0B0B01985946C0F14002504600F077
:100470003DFA06460D4650465946019A00F055FA97
:1004800010EB08006141002487EA115284EAE77307
:100490001A4340D0009A62B3019A012A4FEA0752E8
:1004A00015DC001B61EB02014FF0004202EA07522B
:1004B000CDE90042001C41F5801132462B4600F088
:1004C0008CFA03B0BDE8F08F40462146F9E7001BE7
:1004D00061EB0201001C41F5801300185B412018FC
:1004E000A2F5001747EB030140EAD570B6196D413C
:1004F00011E06D084FEA360645EAC0754FEA07522B
:10050000001B61EB0201001C41F5801149084FEA14
:1005100030000019514132462B4603B0BDE8F04F80
:1005200000F04CBA0098012240000023D0EB0202F8
:1005300063EBE073009821464FEAE074B8EB0000EB
:1005400061EB0401E9E783F000435BE781F00041E0
:1005500058E72DE9FE4F81EA030404F0004421F03E
:10056000004100944FF0000B23F0004350EA0104D7
:100570005ED052EA03045BD0C3F30A54C1F30A55B8
:100580002C44A4F2F3340194A0FB0254C1F31301F0
:1005900041F48011C3F3130343F4801301FB0244BD
:1005A00000FB034E840A970A44EA815447EA8357C2
:1005B000A4FB076802958D0A05FB07854FEA932C7B
:1005C00004FB0C542705029D4FEA065847EA1637EC
:1005D000B5EB08056EEB070C870E920E47EA811704
:1005E00042EA8312A7FB0201B6EB0B0164EB0004A5
:1005F0002B0D43EA0C335E1844EB1C50DA4651468F
:10060000E7FB0201C5F313044FEA0B3343EA14532B
:100610004FEA0432019C43EA0603A4F10C0402945D
:10062000009CCDE900B400F0D8F903B0BDE8F08F2C
:1006300000200146F9E72DE9F04D81EA030404F0BA
:10064000004B21F0004514464FF0000A23F0004112
:1006500050EA050220D054EA01021DD0C5F30A5722
:100660000246C5F31303C1F31300C1F30A5640F465
:10067000801543F48013A7EB0608101BD64608F23A
:10068000FD3873EB050002D308F1010801E0921870
:100690005B41B8F1000F03DA00200146BDE8F08DA0
:1006A00000204FF48011064684460EE0171B73EBC2
:1006B000050705D3121B63EB050306434CEA010C47
:1006C00049084FEA300092185B4150EA0107EDD12A
:1006D00052EA030012D082EA040083EA05010843CB
:1006E00005D0101BAB4106D20122002306E00022F8
:1006F0004FF0004302E06FF0010253101AEB0600C6
:100700004CEB085110EB0A0041EB0B01BDE8F04D3A
:1007100000F054B9C10F80EAE0700844CA0796237C
:10072000002100F01DB996230022114600F018B9EF
:100730000EB5C10F80EAE0700844CA07002140F2FC
:1007400033438DE80E000A460B4600F046F903B02D
:1007500000BD0EB540F2334102910021CDE90011F8
:100760000A460B4600F039F903B000BD20F0004006
:10077000C10DC0F3160040F400007F2901DA00200B
:100780007047962903DCC1F19601C840704796393D
:100790008840704770B5C1F30A5201F0004500244B
:1007A000C1F3130140F2FF3341F480119A4201DAA0
:1007B000002070BD40F233439A42A2F2334203DC80
:1007C000524200F0A2F800E090402C43F1D04042A9
:1007D00070BDC1F30A5210B5C1F3130140F2FF33EB
:1007E00041F480119A4201DA002010BD40F23343F7
:1007F0009A42A2F2334203DC524200F086F810BD66
:10080000904010BD00F0004230F000400AD0C10D11
:1008100001F56071C0F3160042EA0151C2084007B9
:1008200011437047002001467047000030B5041E98
:1008300071F1000404DB4FF00044404264EB01011D
:10084000141E73F1000405DB1C464FF000435242B6
:1008500063EB04038B4208BF824230BD30B5041EF7
:1008600071F1000404DB4FF00044404264EB0101ED
:10087000141E73F1000405DB1C464FF00043524286
:1008800063EB0403994208BF904230BD01F000437E
:1008900030B421F0004150EA010206D00A0DA2F561
:1008A0006072C1F31301002A02DC30BC00207047E3
:1008B000440F44EAC104C100E01830BC00EBC25050
:1008C00000F045B8002801DBC0F10040002901DB41
:1008D000C1F1004181427047002801DBC0F10040B6
:1008E000002901DBC1F1004188427047202A04DB66
:1008F000203A00FA02F1002070479140C2F1200333
:1009000020FA03F3194390407047202A04DB203A71
:1009100021FA02F00021704721FA02F3D040C2F11F
:1009200020029140084319467047202A06DBCB1766
:10093000203A41FA02F043EAE07306E041FA02F39A
:10094000D040C2F120029140084319467047002967
:10095000A8BF7047401C490008BF20F00100704745
:1009600010B4B0FA80FC00FA0CF050EA010404BFA5
:1009700010BC704749B1CCF1200421FA04F411FAFB
:100980000CF118BF012121430843A3EB0C01CB1D3F
:100990004FEA00614FEA102042BF002010BC7047B0
:1009A00000EBC35010440029A4BF10BC7047401C8A
:1009B000490008BF20F0010010BC704710B5141E9C
:1009C00073F1000408DA401C41F1000192185B4108
:1009D0001A4301D120F0010010BD2DE9F04D9246DF
:1009E0009B4611B1B1FA81F202E0B0FA80F22032F6
:1009F0009046FFF77BFF04460F4640EA0A0041EAB3
:100A00000B0153465A46084313D0114653EA0100DE
:100A100019D0C8F140025046FFF777FF05460E4651
:100A2000504659464246FFF761FF084305D0012072
:100A300004E020463946BDE8F08D0020054346EA33
:100A4000E0762C4337430A986305E40AA0EB0800DC
:100A50000022FD0A44EA47540A3002D5002001462C
:100A6000E9E7010510196941DDE908450019694107
:100A7000BDE8F04DA2E770B521F0004303430CD070
:100A8000C1F30A550024D5EB040564EB0403D61723
:100A9000AD1AB34102DB0020014670BD201841EBC6
:100AA000025170BD2DE9F041054621F000400C4691
:100AB000284309D0C4F30A5040F23341884205DD8F
:100AC00028462146BDE8F0812846FBE740F2FE318A
:100AD000884210DC0CDB4FEA043040EA155050EA43
:100AE000053105D0104804F0004101430020E9E73A
:100AF00000200146E6E7A0F233404642C6F140023C
:100B000028462146FFF7F2FE07468846284621463A
:100B10003246FFF7FAFE43463A46FFF74FFF3246AA
:100B2000BDE8F041FFF7E2BE0000F03F064C074D84
:100B300006E0E06840F0010394E8070098471034AD
:100B4000AC42F6D3FFF7F8FAE8A7000808A80008B7
:100B500070B58C1810F8015B15F0070301D110F87F
:100B6000013B2A1106D110F8012B03E010F8016BAC
:100B700001F8016B5B1EF9D12B0705D40023521E2F
:100B80000DD401F8013BFAE710F8013BCB1A921C97
:100B900003E013F8015B01F8015B521EF9D5A14295
:100BA000D8D3002070BD21B1826842F0010282607A
:100BB00003E0826822F00102826070470146002053
:100BC0008A6802F004020AB1012000E000207047A8
:100BD0000146C86C80B270470246002013680B4083
:100BE0000BB1012000E000207047014600208A6818
:100BF00002F008020AB1012000E000207047000066
:100C000030B502460020002350680F4C20400D797B
:100C10000C6844EA05242043506090680B4C204047
:100C2000D1E902542C434D7944EA450420439060B5
:100C3000D06A20F470000C7C641EE4B2234340EAC6
:100C40000350D06230BD0000FFFEF0FFFDF7F1FF62
:100C5000F0B504460D4600200021092D11DDE068A5
:100C6000A5F10A0606EB4607072606FA07F18843B0
:100C7000A5F10A0606EB460603FA06F10843E06012
:100C80000CE0206905EB4507072606FA07F18843C3
:100C900005EB450603FA06F108432061072A0FDA3F
:100CA000606B561E06EB86071F2606FA07F188437F
:100CB000561E06EB860605FA06F10843606322E03D
:100CC0000D2A0FDA206BD61F06EB86071F2606FAC1
:100CD00007F18843D61F06EB860605FA06F108439E
:100CE000206310E0E06AA2F10D0606EB86071F26DE
:100CF00006FA07F18843A2F10D0606EB860605FA0F
:100D000006F10843E062F0BD816841F008018160AE
:100D1000704721B1826842F4A002826003E08268D9
:100D200022F4A00282607047816841F00401816072
:100D3000704700002DE9FC4705460E4617469846C9
:100D4000DDF8289008210120FFF786FA044614B93F
:100D50000020BDE8FC87012D04DB204609F036FAAF
:100D60000020F6E70F4850F8250030B1204609F082
:100D70002DFA0C4850F8254002E00A4840F825407A
:100D8000E5704B46424604210020CDE9006706F09D
:100D9000DBFC60600120207000206070A0702046A5
:100DA000D7E700008400002070B504460D460026F9
:100DB000606802F016F8A021606801F0E6FF606844
:100DC00002F04CF820B9606802F027F8002070BDEE
:100DD0002912606801F0D9FF606802F03FF820B97D
:100DE000606802F01AF80020F1E7E9B2606801F0EB
:100DF000CCFF606802F032F820B9606802F00DF8AC
:100E00000020E4E7606801F0ECFFA121606801F0D8
:100E1000BCFF606802F022F820B9606801F0FDFFB5
:100E20000020D4E7606801F08FFF0646606801F09B
:100E30005BFF606801F0F1FF3046C8E72DE9F04143
:100E400004460E4617460025606801F0CAFFA0213F
:100E5000606801F09AFF606802F000F828B96068E5
:100E600001F0DBFF0020BDE8F0817201C2F3072131
:100E7000606801F08AFF606801F0F0FF20B96068E7
:100E800001F0CBFF0020EEE77207110E606801F061
:100E90007CFF606801F0E2FF20B9606801F0BDFFEF
:100EA0000020E0E7606801F09CFFA121606801F08C
:100EB0006CFF606801F0D2FF20B9606801F0ADFFFF
:100EC0000020D0E7002508E0606801F03DFF78557C
:100ED000606801F0CEFE681CC5B21F2DF4DB6068AF
:100EE00001F032FF7855606801F0FEFE606801F0A5
:100EF00094FF0120B7E72DE9F04104460E4617465E
:100F00000025606801F06DFFA021606801F03DFFE1
:100F1000606801F0A3FF28B9606801F07EFF00203F
:100F2000BDE8F0817201C2F30721606801F02DFF76
:100F3000606801F093FF20B9606801F06EFF002047
:100F4000EEE77207110E606801F01FFF606801F0A4
:100F500085FF20B9606801F060FF0020E0E7002510
:100F60000EE0795D606801F010FF606801F076FFC7
:100F700020B9606801F051FF0020D1E7681CC5B2BC
:100F8000202DEEDB606801F048FF00250CE005EB4A
:100F9000461081B22046FFF707FF795D884201D0F5
:100FA0000020BDE7681CC5B2202DF0DB0120B7E7AB
:100FB000014908607047000000860D4210B50446E4
:100FC000A10201F18040002106F0B8FDA10201F16B
:100FD0008040012106F0AFFDA10201F18040002117
:100FE00006F0D1FE10BD10B50446A10201F180400B
:100FF000012106F0A3FD10BD10B502464FF0E02020
:10100000006920F004004FF0E02420611046D4175E
:1010100002EB5474E3100A4890FBF1F043434FF0A5
:10102000E020006940F002004FF0E02420612046FB
:101030004361006940F001002061012010BD000003
:1010400040420F00F8B505460C461646072D01DB59
:101050000020F8BD102C01DB0020FAE7062E01DB92
:101060000020F6E7042101FA05F0012106F052FA0A
:10107000022D0CD10D2C01D00E2C08D1012006F030
:1010800069F9002006F0D0FA0020FFF791FF012D4A
:1010900003D1032C04D0042C02D02DB90F2C03D182
:1010A0000121264803F0C6FE5DB90D2C01D00E2C9F
:1010B00007D10121084606F02DFA01211F4803F04F
:1010C000B9FE0120A04080B2ADF80000062E1CD26F
:1010D000DFE806F003070B0F131704208DF8030059
:1010E00015E010208DF8030011E014208DF80300A6
:1010F0000DE028208DF8030009E048208DF803005A
:1011000005E000208DF8030001E00020A1E700BF0A
:1011100003208DF802000A490A1502FB05106946F2
:1011200003F0FCFD022D06D10D2C01D00E2C02D1B6
:10113000002006F00FF901208BE7000000023000CC
:10114000000801402DE9FF4780460F46002003902C
:10115000019002900090B8F1070F02DB04B0BDE8E7
:10116000F087102F01DB0020F8E7042101FA08F1D5
:1011700041F00100012106F0CDF9B8F1020F0CD1C8
:101180000D2F01D00E2F08D1012006F0E3F800202A
:1011900006F04AFA0020FFF70BFF0120B84080B2AA
:1011A000ADF80C0004208DF80F0003208DF80E0020
:1011B00057490A1502FB081003A903F0AFFDB8F167
:1011C000020F06D10D2F01D00E2F02D1002006F004
:1011D000C1F84FF4A06004F08FFCB8F1070F1AD2E9
:1011E000DFE808F004070A0D101316004FF000099D
:1011F00013E04FF0010910E04FF002090DE04FF04D
:1012000003090AE04FF0040907E04FF0050904E084
:101210004FF0060901E00020A0E700BF102F51D2D7
:10122000DFE807F0080C1014181C2024282D323792
:101230003C41464B06250124002645E007250224B3
:10124000012641E00825042402263DE00925082462
:10125000032639E00A251024042635E0172520242A
:10126000052631E01725402406262DE01725802489
:10127000072629E017254FF48074082624E0172557
:101280004FF4007409261FE028254FF480640A26D5
:101290001AE028254FF400640B2615E028254FF4AA
:1012A00080540C2610E028254FF400540D260BE046
:1012B00028254FF480440E2606E028254FF40044EC
:1012C0000F2601E0002049E700BFE8B28DF80000DA
:1012D00001208DF801008DF802008DF803006846AA
:1012E00004F0D2FB204602F0A3F93146484603F051
:1012F000F5FC019400208DF8080010208DF80900FD
:1013000001208DF80A0001A802F0ACF9012025E7C0
:10131000000801407FB504460D46164600200190A6
:10132000029003900090012101FA04F006F0D2F837
:10133000062C1CD2DFE804F003070B0F13171C2048
:101340008DF8000016E01D208DF8000012E01E2030
:101350008DF800000EE032208DF800000AE0362003
:101360008DF8000006E037208DF8000002E0002034
:1013700004B070BD00BF4FF4A06004F0BDFB0120BD
:101380008DF801008DF802008DF80300684604F026
:101390007BFBA10201F1804006F0DCFB01A806F016
:1013A00047FDADF80850ADF804600020ADF80A0024
:1013B000ADF80600A10201F1804001A906F0E6FCAB
:1013C000A10201F18040002106F0A6FBA10201F17B
:1013D0008040202106F0CCFCA10201F180400121D7
:1013E00006F0A6FBA10201F180400122114606F0A1
:1013F000B6FC0120BCE700002DE9F04786B00546A9
:101400000F4614469846DDE90E9A35B1012D09D0F4
:10141000022D0CD0032D14D10EE00121880306F01B
:1014200079F812E00121480406F054F80DE001219A
:10143000880406F04FF808E00121C80406F04AF8D5
:1014400003E0002006B0BDE8F08700BF0421A14002
:10145000042202FA09F2114341F00100012106F0D1
:1014600059F835B1012D0BD0022D10D0032D1ED10E
:101470001CE0012C03D10121042003F0DBFC18E067
:10148000032C03D10121082003F0D4FC11E0022C2D
:1014900004D101215B4803F0CDFC06E0032C04D10C
:1014A00001215848203003F0C5FC02E001E0002093
:1014B000C8E700BF012000FA08F080B2ADF81400C0
:1014C00018208DF8170003208DF816004E490A15D4
:1014D00002FB041005A903F021FC012000FA0AF028
:1014E00080B2ADF8140004208DF8170046490202BE
:1014F00002FB091005A903F011FC01970020ADF8CB
:101500000800ADF80A00ADF80C00ADF810000C2092
:10151000ADF80E0035B1012D0ED0022D16D0032DE1
:1015200028D11DE001A9394807F026FA01213748E2
:1015300007F0B0F925261FE001A9354807F01CFA8D
:101540000121334807F0A6F9262615E001A9314804
:1015500007F012FA01212F4807F09CF927260BE02B
:1015600001A92D4807F008FA01212B4807F092F94C
:10157000342601E0002065E700BF4FF4A06004F0CE
:10158000BBFA8DF8006001208DF801008DF8020093
:101590008DF80300684604F077FA35B1012D0BD0C1
:1015A000022D10D0032D1CD114E0012240F2244161
:1015B000164807F0BBF916E0012240F22551144805
:1015C00007F0B4F90FE0012240F22551114807F06D
:1015D000ADF908E0012240F225510F4807F0A6F9C5
:1015E00001E000202EE700BF01224021074807F05C
:1015F0005DF90121054807F04DF900F0EDFB0120F0
:1016000020E70000100014000008014000380140ED
:101610000044004000480040004C004070B50446C3
:101620000D4624B1012C17D0022C3FD129E0012313
:101630001A4629461E48FFF70BFB01211C48FFF7FD
:1016400068FB00BF02211A48FFF7C6FA0028F9D04C
:101650001748FFF7BDFA70BD01231A462946154801
:10166000FFF7F6FA01211348FFF753FB00BF0221F1
:101670001048FFF7B1FA0028F9D00E48FFF7A8FA92
:10168000E9E701231A4629460B48FFF7E1FA012151
:101690000948FFF73EFB00BF02210748FFF79CFA0D
:1016A0000028F9D00448FFF793FAD4E70020D2E7E6
:1016B0000024014000280140003C014070B5044670
:1016C0000D460122AA4091B2054A131503FB0420DE
:1016D00003F0F8FB08B1012070BD0020FCE700001A
:1016E00000080140012080F3138800BF00BF0748B5
:1016F000006800F4E06006490843001D03490860E3
:10170000BFF34F8F00BF00BFFEE700000CED00E00D
:101710000000FA0570B504460D46A9B2A20202F116
:10172000804006F02EFB70BD10B5044634B1012C8C
:1017300009D0022C0CD0032C14D10EE00A4807F07B
:1017400087F9C0B210BD094807F082F9C0B2F9E7C5
:10175000074807F07DF9C0B2F4E7064807F078F9CA
:10176000C0B2EFE70020EDE7003801400044004040
:1017700000480040004C004070B504460D4634B1AE
:10178000012C10D0022C1AD0032C30D123E0294692
:10179000194807F062F900BF8021174807F08FF859
:1017A0000028F9D025E02946144807F056F900BF73
:1017B0008021124807F083F80028F9D019E0294663
:1017C0000F4807F04AF900BF80210D4807F077F86D
:1017D0000028F9D00DE029460A4807F03EF900BF7D
:1017E0008021084807F06BF80028F9D001E00020BC
:1017F00070BD00BF0120FBE70038014000440040FD
:1018000000480040004C004070B504460D461646A6
:101810000122AA4091B2044A131503FB0420324668
:1018200003F059FB70BD00000008014000BFFEE757
:1018300010B500F5D87303EB01131B6803F0040324
:101840001372137A53B900F5D87303EB01131B68B5
:1018500040F2FF7404EA5353136009E000F5D873B3
:1018600003EB01131B686FF0604404EAD303536079
:1018700000F5D87303EB01131B6803F002035372E6
:1018800000F5D87303EB01135B6803F00F03937249
:1018900000F5D87303EB01135B681B0AD37400F5E2
:1018A000D87303EB01139B68D37200F5D87303EB75
:1018B00001139B681C0A147300F5D87303EB011322
:1018C0009B681C0C547300F5D87303EB01139B68E1
:1018D0001B0E937300F5D87303EB0113DB68D3730E
:1018E00000F5D87303EB0113DB681C0A147400F5D0
:1018F000D87303EB0113DB681C0C547400F5D87328
:1019000003EB0113DB681B0E937421B9C36843F02A
:101910002003C36003E0036943F02003036110BDAB
:101920002DE9FF4F9FB0934620990868FEF711FFFD
:10193000CDE91C0120994868FEF70BFFCDE91A019B
:101940002099C868FEF705FFCDE9180120990869BC
:10195000FEF7FFFE0022F94BCDE91001FEF76BFE0A
:1019600004460D461F98FEF7F4FECDE916011AA8AD
:101970000FC8FEF7E8FD0022F14BCDE90C01FEF7A0
:10198000E8FD22462B46CDE90E01FEF754FE224625
:101990002B46CDE91001FEF74EFE804689462246D1
:1019A0002B4640464946FEF7D4FD22462B46CDE95C
:1019B0000001FEF7CEFD22462B46CDE90201FEF7DF
:1019C000C8FD0022DF4BCDE90401FEF734FECDE96E
:1019D000080120462946DDE91C23FEF7BAFDCDE9C2
:1019E0000601DDE90823FEF70DFDCDE90A01DDE979
:1019F0001623FEF7AEFDCDE90C01DDE91823FEF755
:101A00001AFECDE90E0108F003FE1190FEF790FEDC
:101A1000CDE9140120462946DDE91823FEF70BFE27
:101A2000CDE9120100BF4FF0000ABBF1000F0DD04D
:101A30000022C54BDDE91801FEF7F8FE06D90022A9
:101A4000134620462946FEF7F1FE02D823B0BDE832
:101A5000F08F4FF0000A5EE100224FF080432046F5
:101A60002946FEF7E8FDCDE910015046FEF760FE7D
:101A7000CDE90C01DDE91223FEF76BFDCDE90E0186
:101A8000DDE91023FEF7D2FE57D85046FEF750FE90
:101A9000CDE91001DDE91223FEF75BFD06460F4696
:101AA00032463B4630463946FEF753FD42464B46EA
:101AB000CDE90A01FEF74DFD00224FF08043CDE94C
:101AC0000C01FEF7B8FDCDE90E01DDE91C23FEF7A0
:101AD00099FCCDE91001FEF77CFE2BF81A00324686
:101AE0003B4630463946FEF734FD42464B46CDE98B
:101AF0000601FEF72EFD00224FF08043CDE90801DC
:101B0000FEF799FDCDE90A01DDE91C23FEF77AFC19
:101B1000CDE90C01DDE91223FEF71BFDCDE90E0135
:101B2000DDE91623FEF715FDCDE9100108F070FD83
:101B3000C1B2229800F80A10DFE05046FEF7F8FD27
:101B4000CDE90E01DDE91223FEF703FD22462B4607
:101B5000CDE91001FEF76AFE7DD85046FEF7E8FD9C
:101B6000CDE91001DDE91223FEF7F3FC06460F462E
:101B700022462B4640464946FEF7EBFC22462B46C2
:101B8000CDE90801FEF7E5FC00226D4BCDE90A0125
:101B9000FEF751FD32463B46CDE90E01404649462F
:101BA000FEF7D7FC32463B46CDE90401FEF7D1FCF7
:101BB00000224FF08043CDE90601FEF73CFD2246AE
:101BC0002B46CDE90A0140464946FEF7C2FC3246A3
:101BD0003B46CDE90401FEF7BCFCCDE90601DDE999
:101BE0001C23FEF70FFCCDE90801DDE90A23FEF70F
:101BF000AAFCCDE90C01DDE90E23FEF7A4FCCDE93A
:101C00001001FEF7E6FD2BF81A0022462B4640464F
:101C10004946FEF79EFC22462B46CDE90401FEF71D
:101C200098FC0022464BCDE90601FEF704FD324642
:101C30003B46CDE90A0140464946FEF78AFC32465A
:101C40003B46CDE90001FEF784FC00224FF08043C3
:101C5000CDE9020100E036E0FEF7EDFC22462B461E
:101C6000CDE9060140464946FEF773FC32463B4645
:101C7000CDE90001FEF76DFCCDE90201DDE91C2391
:101C8000FEF7C0FBCDE90401DDE90623FEF75BFCAE
:101C9000CDE90801DDE90A23FEF755FCCDE90C0189
:101CA000DDE91223FEF755FCCDE90E01DDE916232F
:101CB000FEF74FFCCDE9100108F0AAFCC1B2229852
:101CC00000F80A1019E0DDE91A01FEF782FD2BF891
:101CD0001A00DDE91223DDE91A01FEF73AFC0022C1
:101CE0001A4BCDE90E01FEF734FCCDE9100108F0E6
:101CF0008FFCC1B2229800F80A103BF81A0040008D
:101D00001F994843124991FBF0F02BF81A000AF191
:101D100001000FFA80FA5046FEF70AFDCDE91001E6
:101D2000DDE91823FEF782FDFFF496AEDDE914012C
:101D3000FEF74FFD2099886000BF87E6006AF840F3
:101D400000001040000020400000F03F0000304044
:101D500000127A002DE9F04107460C461546294647
:101D6000204606F08DFF064616B90020BDE8F0813A
:101D700032460021384608F062F90120F6E70000FB
:101D800070B505460E4608210120FEF765FA0446A7
:101D90000CB9002070BD022D04DB204608F016FAB5
:101DA0000020F7E70B4850F8250030B1204608F036
:101DB0000DFA084850F8254002E0064840F8254052
:101DC0002570667008F0A3F96060606802F0C8F8DA
:101DD0002046DFE77008002000B58BB001210846DF
:101DE00005F068FB0F4800900F480190002002901A
:101DF000642003900020049080200590002006902D
:101E0000079008904FF40050099000200A9069460E
:101E1000064800F01DF80121044800F009F80BB055
:101E200000BD000004380140442D0020580002404D
:101E300021B1026842F00102026004E002684FF63C
:101E4000FE731A40026070470146486880B27047CE
:101E500010B50022026847F6F0739A430C6A8B684B
:101E600023430C6923434C6923438C692343CC6986
:101E700023434C6A23438C6A23431A430260CB6892
:101E800043600B6883604B68C36010BD70470000FF
:101E9000014621B101290AD0022918D10FE00E48CC
:101EA000806900F4007008B90020704711E00A480A
:101EB000806900F4806008B90020F6E709E0064870
:101EC000806900F4004008B90020EEE701E000203E
:101ED000EBE700BF0120E8E700100240014621B116
:101EE00001290AD0022918D10FE00E48806900F4B8
:101EF000007008B90020704711E00A48806900F4BA
:101F0000806008B90020F6E709E00648806900F41F
:101F1000004008B90020EEE701E00020EBE700BF39
:101F20000120E8E700100240002400255CE00123C6
:101F300000221146104604F0B5FA002452E02B4866
:101F400050F8240000284BD0284A52F82420517C15
:101F5000264A52F82420107CFFF7B0FB05462348A0
:101F600050F824004078A8423AD0012300221146BC
:101F7000104604F097FA1D4A52F82420517C1B4A5F
:101F800052F82420107CFFF799FBA84228D117486B
:101F900050F824004078A84222D0144850F8240079
:101FA000407A01280CD1114850F824004078A8420A
:101FB00012DA0E4951F82410C86803F039FF0BE01B
:101FC0000A4850F824004078A84205DD074951F836
:101FD0002410C86803F02CFF044850F82400457012
:101FE000601CC4B20A2CAADBA1E70000E02E00208E
:101FF0002DE9F0410546884616461F460621012078
:10200000FEF72AF9044614B90020BDE8F081072D37
:1020100004DB204608F0DAF80020F6E7154850F80F
:10202000250030B1204608F0D1F8124850F825407C
:1020300002E0104840F82540A57084F8038026711E
:102040006771012239463046FEF7FCFFE07838B967
:1020500000206070627861792079FFF7D5FB06E097
:1020600001206070627861792079FFF7CDFB20460E
:10207000CBE70000C82D002010B50446E07838B941
:1020800000206070627861792079FFF7BDFB06E07F
:1020900001206070627861792079FFF7B5FB02203A
:1020A000207010BD10B50446E07838B9012060708A
:1020B000627861792079FFF7A7FB06E00020607065
:1020C000627861792079FFF79FFB0120207010BDB5
:1020D0000246D2E90201704710B504460020607044
:1020E00062782179E078FFF78FFB0220207010BD25
:1020F0002DE9F04105460E46174605210120FEF761
:10210000ABF8044614B90020BDE8F081082D04DBCB
:10211000204608F05BF80020F6E7104850F825004C
:1021200030B1204608F052F80C4850F8254002E043
:102130000A4840F82540A570E6702771012239460B
:102140003046FEF77FFF022020700020607062782A
:102150002179E078FFF758FB2046D5E7E42D0020F1
:1021600010B504460120607062782179E078FFF7AD
:102170004BFB0120207010BD70B586B004460D46A3
:102180001646052231462846FEF75CFF2046FFF73B
:102190007FFE10B1012006B070BD002001908DF8C7
:1021A00008008DF809004FF460200390002004908F
:1021B00001208DF8140024B1012C25D0022C69D106
:1021C00045E00121480205F0A5F901A93448FEF7D0
:1021D00017FD4FF4404005F061F901213048FEF74A
:1021E000E2FC2F48FEF790FD00BF2D48FEF7FDFCF6
:1021F0000028FAD12A48FEF797FD00BF2848FEF7CD
:10220000DDFC0028FAD147E00121880205F082F9BF
:1022100001A92448FEF7F4FC4FF4404005F03EF9D4
:1022200001212048FEF7BFFC1E48FEF76DFD00BFF0
:102230001C48FEF7DAFC0028FAD11A48FEF774FDB4
:1022400000BF1848FEF7BAFC0028FAD124E00121AB
:10225000C80305F05FF901A91348FEF7D1FC4FF45C
:10226000404005F01BF901210F48FEF79CFC0E4889
:10227000FEF74AFD00BF0C48FEF7B7FC0028FAD174
:102280000948FEF751FD00BF0748FEF797FC0028FC
:10229000FAD101E000207EE700BF01207BE70000CB
:1022A0000024014000280140003C01402DE9F0419C
:1022B0000024AEE0594850F8240000287ED0574A48
:1022C00052F8242092F85210544A52F8242092F8DE
:1022D0005100FFF7A3F9514951F8241048604F49C4
:1022E00051F824104868FEF734FA07464FF066327A
:1022F0004B4BFEF72EF9054600224A4BFEF79BF9A1
:10230000464A52F82420C2E90201444850F8240009
:10231000D0E91273414850F824003A46D0E90251FE
:102320002846FEF788F93D4A52F82420C2E9040104
:102330003A4850F82400D0E90873384850F824008F
:102340003A46D0E904512846FEF775F9334A52F867
:102350002420C2E90201314850F82400D0E90221CA
:10236000104607F05BFF2D4A52F82420C2E9020113
:102370002A4850F82400D0E90A73284850F824006D
:102380003A46D0E902512846FEF755F9234A52F859
:102390002420C2E90201214850F82410D1E90C534D
:1023A0002A4600202049FEF746F907461B4850F808
:1023B0002400D0E902532A46384600E027E0FEF721
:1023C00021F8164A52F82420C2E90201134850F8B5
:1023D0002400D0E902532A4600201349FEF72BF9C6
:1023E0000E4A52F82420C2E902010C4850F8241089
:1023F000D1E90E7350F82410D1E902513A4628462B
:10240000FEF7A1F8054A52F82420C2E90201601C37
:10241000C4B20A2CFFF64EAFBDE8F0817C33002039
:1024200066661A400000B0400000F03F2DE9F0471A
:1024300006468A4691461D46DDE908785821012066
:10244000FDF70AFF044614B90020BDE8F0870A2E04
:1024500004DB204607F0BAFE0020F6E73D4850F8BE
:10246000260030B1204607F0B1FE3A4850F8264029
:1024700002E0384840F82640B9F1000F06D0B9F123
:10248000010F0FD0B9F1020F28D119E0002D04DBA4
:10249000072D02DC84F8525022E0204607F096FE19
:1024A0000020D2E7002D06DB012D04DC05F1080039
:1024B00084F8520014E0204607F088FE0020C4E7AC
:1024C000002D06DB052D04DC05F10A0084F852001E
:1024D00006E0204607F07AFE0020B6E70020B4E7C9
:1024E00000BF84F8506084F851A084F8539084F8B9
:1024F0005450C4E90678DDE90A01C4E90801DDE9C0
:102500000C01C4E90A01DDE90E01C4E91001DDE9AD
:102510001001C4E912014FF066310F48C4E90C10F4
:102520000E48C4E90E102A4649465046FFF724FEDD
:1025300020B9204607F04AFE002086E701202070DF
:102540000021A160E160002060602161616120469E
:102550007BE700007C33002066A272406612714067
:102560002DE9FF5F04468A464FF0000B00200390E0
:102570000290019081460090206860605146206979
:10258000FDF7CAFE20602168A068FDF773FEA06019
:102590002068FEF737F9054621F00041052801DDE6
:1025A0000020A060A069FEF72DF9054621F000414A
:1025B0008046FEF7AFF807464FF05051FEF78CF912
:1025C0000ED2A069FEF71EF907463A460B460020D8
:1025D0002449FEF730F80546FEF758F9814601E038
:1025E0004FF000094946A068FEF776F902D2C4F818
:1025F000089009E089F000452846A168FEF76CF9CB
:1026000002D289F00040A06021686069FDF78AFE6F
:102610008346A168A069FDF785FE0390D4E9000117
:10262000FDF77AFE0546E169FDF77CFE029058460B
:102630000399FDF71FFE05460299FDF71BFE019069
:1026400000210198FEF73EF903D8002004B0BDE850
:10265000F09F05490198FEF73FF901D80248F5E7D8
:102660000198F3E700006940000048432DE9F04776
:1026700005460E4617469846DDF820902021012099
:10268000FDF7EAFD044614B90020BDE8F087082DE7
:1026900004DB204607F09AFD0020F6E70E4850F8CC
:1026A000250030B1204607F091FD0B4850F8254039
:1026B00002E0094840F82540657326616761C4F867
:1026C0001880C4F81C9001202073002020606060F6
:1026D000A0602046D9E70000A82D00202DE9F04198
:1026E00004460D4620680669E07E07287ED0E07E1D
:1026F00005287CD2DFE800F0032B537EAF0029468B
:102700003046FEF7E9F80FD2A06A002801DA00206F
:10271000A062A06A401CA062A06A032816DB002009
:10272000A062A068804711E0A06A002801DD0020B7
:10273000A062A06A401EA062A06A10F1030F05DC2F
:102740000020A0620120E076E0688047D2E02946C0
:102750003046FEF7C1F811D2A06A002801DA002045
:10276000A062A06A401CA062A06A032816DB0020B9
:10277000A0620220E076A06880470FE0A06A0028EF
:1027800001DD0020A062A06A401EA062A06A10F1D4
:10279000030F03DC0020A062E0688047AAE029461E
:1027A0003046FEF799F80FD2A06A002801DA00201F
:1027B000A062A06A401CA062A06A032819DB002066
:1027C000A062A068804714E0A06A002801DD002014
:1027D000A062A06A401EA062A06A10F1030F08DC8C
:1027E0000020A0620320E076E06801E083E080E062
:1027F00080477FE029463046FEF76EF811D2A06A86
:10280000002801DA0020A062A06A401CA062A06A31
:10281000032816DB0020A0620420E076A068804731
:102820000FE0A06A002801DD0020A062A06A401E1F
:10283000A062A06A10F1030F03DC0020A062E06830
:102840008047606A401C60622946E069FEF73AF8FA
:1028500000D2E5614EE029463046FEF73DF80FD242
:10286000A06A002801DA0020A062A06A401CA062D1
:10287000A06A032833DB0020A062A06880472EE016
:10288000A06A002801DD0020A062A06A401EA062AC
:10289000A06A10F1030F22DC0020A0620720E0767E
:1028A000012021680873606AFDF73DFF80462169B9
:1028B000FDF738FD0746FDF759FF6062D4E90701CF
:1028C000FDF72AFD80464FF08041FDF75DFD07468C
:1028D0003A462046616A06F09FFAE0688047606ADF
:1028E000401C60622946206AFDF7F6FF00D225628F
:1028F00000E000BF00BFE07EBDE8F08170B5049C41
:10290000016000250668357342608360C4604FF043
:102910007E5505610025C5768576C561034D056246
:10292000002585624561C825058370BD0000C84249
:1029300070B586B004460D46164605223146284637
:10294000FEF780FB2046FFF7C9FA10B1012006B060
:1029500070BD002001908DF808008DF809004FF43B
:10296000602003900020049001208DF8140024B111
:10297000012C25D0022C69D145E00121480204F048
:10298000C9FD01A93448FEF73BF94FF4404004F07B
:1029900085FD01213048FEF706F92F48FEF7B4F90E
:1029A00000BF2D48FEF721F90028FAD12A48FEF78A
:1029B000BBF900BF2848FEF701F90028FAD147E02B
:1029C0000121880204F0A6FD01A92448FEF718F9A8
:1029D0004FF4404004F062FD01212048FEF7E3F887
:1029E0001E48FEF791F900BF1C48FEF7FEF80028CC
:1029F000FAD11A48FEF798F900BF1848FEF7DEF83A
:102A00000028FAD124E00121C80304F083FD01A9C4
:102A10001348FEF7F5F84FF4404004F03FFD012164
:102A20000F48FEF7C0F80E48FEF76EF900BF0C48DD
:102A3000FEF7DBF80028FAD10948FEF775F900BF68
:102A40000748FEF7BBF80028FAD101E000207EE736
:102A500000BF01207BE70000002401400028014066
:102A6000003C01402DE9FC474FF0000A4EE02A48A7
:102A700050F82A000078012844D1274A52F82A2029
:102A8000117C254A52F82A20D07BFEF7C7FD044668
:102A9000FDF749FE204951F82A1048601E4951F8B7
:102AA0002A104868FDF7AEFE06464FF066321B4B13
:102AB000FDF74FFD04460022194BFDF7BCFD804693
:102AC0000022184BFDF7B7FDCDE90001FDF7DEFE52
:102AD000114951F82A1048600F4951F82A10888985
:102AE000FDF721FE05460C4951F82A104868294691
:102AF000FDF74AFC04460C49FDF714FC064951F861
:102B00002A1088600AF1010000F0FF0ABAF1060FEE
:102B1000ADDBBDE8FC870000A433002066660A40F8
:102B20000000B0400000494000007A4410B504465F
:102B3000002060706278A17C607CFEF765FE022058
:102B4000207010BD2DE9F05F06460F46904699466D
:102B5000DDE90B5BDDF828A018210120FDF77CFBE7
:102B6000044614B90020BDE8F09F062E04DB204681
:102B700007F02CFB0020F6E7334850F8260030B170
:102B8000204607F023FB304850F8264002E02E484C
:102B900040F82640BAF1000F06D0BAF1010F0ED06E
:102BA000BAF1020F25D117E0002D03DB072D01DC60
:102BB000257420E0204607F009FB0020D3E7002D14
:102BC00005DB012D03DC05F10800207413E020462D
:102BD00007F0FCFA0020C6E7002D05DB052D03DC1D
:102BE00005F10A00207406E0204607F0EFFA002005
:102BF000B9E70020B7E700BFA67384F80F90A4F8E8
:102C00000CB0677484F8128084F813A025752A46E6
:102C100051464846FFF78CFE20B9204607F0D6FA09
:102C20000020A0E7012241463846FEF70BFA0220B9
:102C3000207000206060A06060706278A17C607C81
:102C4000FEF7E2FD20468EE7A43300200146087817
:102C5000012800D170470020FCE710B50446012090
:102C600060706278A17C607CFEF7CEFD0120207050
:102C700010BD10B504460021204606F0ADF9002134
:102C8000204606F0B8F90521204600F01AF8012187
:102C9000204606F0A1F90521204600F012F8002197
:102CA000204606F099F90521204600F00AF8012196
:102CB000204606F0A0F90521204600F002F8012088
:102CC00010BD10B50246002307E0108983B200BF93
:102CD000181EA3F10104A3B2FAD1081EA1F1010448
:102CE000A1B2F2D1012010BD10B50446002120464A
:102CF00006F072F90021204606F07DF905212046F4
:102D0000FFF7DFFF0121204606F075F90521204677
:102D1000FFF7D7FF0121204606F05EF90521204686
:102D2000FFF7CFFF0021204606F056F90521204687
:102D3000FFF7C7FF0021204606F05DF90521204678
:102D4000FFF7BFFF012010BD70B506460025002427
:102D500017E00021304606F03FF905213046FFF725
:102D6000B0FF0121304606F037F9304606F02CF965
:102D700040EA4500C5B205213046FFF7A2FF601CBE
:102D8000C4B2082CE5DB284670BD70B506460C467B
:102D90000021304606F020F900251EE0E00920B1B0
:102DA0000121304606F027F903E00021304606F005
:102DB00022F96006040E05213046FFF782FF01214B
:102DC000304606F009F905213046FFF77AFF002169
:102DD000304606F001F9681CC5B2082DDEDB012083
:102DE00070BD10B504460121204606F004F901210A
:102DF000204606F0F1F805212046FFF762FF00218A
:102E0000204606F0F8F805212046FFF75AFF00217A
:102E1000204606F0E1F8012010BD10B5044600215F
:102E2000204606F0D9F80021204606F0E4F80521F6
:102E30002046FFF746FF0121204606F0CDF8052188
:102E40002046FFF73EFF0121204606F0D4F84CF261
:102E500050312046FFF735FF012010BD70B5054603
:102E600000240121284606F0C6F805212846FFF770
:102E700028FF0121284606F0AFF805212846FFF774
:102E800020FF05E0601C84B2FA2C01DD002070BD3B
:102E9000284606F099F80028F4D10021284606F0CB
:102EA0009BF80120F3E700002DE9F04705460F46A7
:102EB00090461E46DDF8209014210120FDF7CCF944
:102EC000044614B90020BDE8F0870A2D04DB204633
:102ED00007F07CF90020F6E7144850F8250030B1DF
:102EE000204607F073F9114850F8254002E00F48DA
:102EF00040F8254025726772A4F80A80E06818B986
:102F0000002002F0F1FEE060267484F811900022A7
:102F100049463046FEF796F8012020706070002088
:102F2000A070A080A071E0712046CCE7E02E0020C8
:102F30002DE9FC5F06460F4690469946DDE90CAB4D
:102F4000002578210120FDF787F9044614B90020F7
:102F5000BDE8FC9F022E04DB204607F037F9002075
:102F6000F6E7344850F8260030B1204607F02EF935
:102F7000304850F8264002E02E4840F8264004F839
:102F8000696F6770C4F8038084F8079084F808A01C
:102F900084F809B00E98A072A07A617ACDE9001089
:102FA000237AE279D4F803106078FEF725FA607886
:102FB000693C28B9204894F86A10204A42F8210058
:102FC00094F86A00012805D11D4894F86A101B4A3C
:102FD00042F82100002002F087FE6067002504E02F
:102FE0000021601C4155681CC5B2642DF8DB00252A
:102FF00015E005EBC50101EB0511124A02EB81005A
:103000006421FDF71EF905EBC50101EB05110E4A20
:1030100002EB81006421FDF714F9681CC5B2052D8F
:10302000E7DB002084F86800204600F029F82046FD
:103030008EE70000CC07002075900008342D00209A
:1030400015910008942F00208831002070B50446A7
:1030500060790830C6B2002500BF08E0615D074A0C
:10306000126892F86A00FEF787FB681CC5B2B54289
:10307000F4DB31462046FDF7E4F870BDC8070020B8
:103080000021A0F8661001210170704710B5AA490F
:10309000096891F82B00FEF747FB0446A648006834
:1030A000008A00F4004000287ED0A3480068008A0F
:1030B00000F48040002878D09F480068008D0A28DE
:1030C00078DA9D48006890F82000012822D19A48BB
:1030D0000068123098490968098AC1F30D01445407
:1030E00095480068008A401C934909680882924804
:1030F0000068007C02280CDB8F480068008AC0F35F
:103100000D008D49096808828B490968C86902F079
:103110008FFE10E18848006890F82000022822D134
:1031200085480068123084490968098AC1F30D0195
:10313000445481480068008A401C7F49096808821D
:103140007D480068007C0228E3DB7B480068008A39
:10315000C0F30D0078490968088277490968C86991
:1031600002F066FEE7E074480068123072490968B0
:10317000098AC1F30D0144546F480068008A401C5D
:103180006D49096808826C480068007C0228C0DB31
:1031900069480068008AC0F30D0067490968088221
:1031A00065490968C86902E099E063E002E002F05D
:1031B0003FFEC0E06048006890F82000012836D14A
:1031C0005D48006812305C490968098AC1F30D0145
:1031D000445459480068008A401C574909680882CD
:1031E00055480068007C032893DB5448007800EBC6
:1031F000400053490844504909684A8A0280097DC1
:1032000081704E480078401C4C4908700846007890
:103210000A2807D148490968C86902F009FE002058
:1032200046490870002044490968088283E0424802
:103230000068123040490968098AC1F30D014454FD
:103240003D480068008A401C3B49096808823A48AA
:103250000068007C02286EDB37480068008AC0F3F3
:103260000D0035490968088233490968C86902F0C8
:10327000DFFD60E0FF2C0ED12F48006890F82000A1
:10328000012808D12C480068008A40F480402A496F
:10329000096808824FE0572C05D12748006890F84C
:1032A0002000022807D0562C0ED12348006890F841
:1032B0002000022808D120480068008A40F480409D
:1032C0001D490968088236E0032C34D11A48006889
:1032D000008A40F480401849096808822BE0FE2CDF
:1032E0000ED11548006890F82000012808D1124836
:1032F0000068008A40F400400F49096808821AE01B
:10330000FC2C0ED10C48006890F82000022808D14F
:1033100009480068008A40F40040074909680882AB
:1033200009E0FC2C07D104480068008A40F4004002
:1033300001490968088210BDE4070020E807002061
:10334000BC3300202DE9FC5F0546894616469846A9
:10335000DDE90CAB48210120FCF77EFF044614B9DF
:103360000020BDE8FC9F012D04DB204606F02EFF67
:103370000020F6E7294850F8250030B1204606F035
:1033800025FF264850F8254002E0244840F8254013
:103390002434A571C4F80090E67184F81C8084F888
:1033A0001DA084F81EB00E98E0770F98A060243C12
:1033B00010982063119860631298A0631398E063DB
:1033C0000E98534642464946CDE900B03046FEF7D6
:1033D00013F81348134941F8260000212160616069
:1033E000A160E160002020822085C4F81200C4F8AA
:1033F0001600608384F8200002F076FCE06100276C
:1034000008E007EB4700084908440021018081706B
:10341000781CC7B20A2FF4DB2046A2E7E40700209D
:103420008D300008342D0020BC33002010B5012061
:1034300000F004F940B1012000F0FAF803480068F8
:1034400010B102490868804710BD0000DC2C002044
:1034500010B54FF4806000F0F1F848B14FF480608F
:1034600000F0E6F82848806A10B12749886A80474A
:103470004FF4006000F0E2F848B14FF4006000F053
:10348000D7F82148C06A10B11F49C86A80474FF475
:10349000805000F0D3F848B14FF4805000F0C8F8E5
:1034A0001948006B10B11849086B80474FF4005061
:1034B00000F0C4F848B14FF4005000F0B9F81248D9
:1034C000406B10B11049486B80474FF4804000F0CA
:1034D000B5F848B14FF4804000F0AAF80A48806B74
:1034E00010B10949886B80474FF4004000F0A6F8FE
:1034F00048B14FF4004000F09BF80348C06B10B196
:103500000149C86B804710BDDC2C002010B502209B
:1035100000F094F840B1022000F08AF803484068B7
:1035200010B102494868804710BD0000DC2C002023
:1035300010B5042000F082F840B1042000F078F8C3
:103540000348806810B102498868804710BD0000B8
:10355000DC2C002010B5082000F070F840B10820E5
:1035600000F066F80348C06810B10249C868804797
:1035700010BD0000DC2C002010B5102000F05EF81B
:1035800040B1102000F054F80348006910B102491E
:103590000869804710BD0000DC2C002010B52020F9
:1035A00000F04CF840B1202000F042F81F4840697C
:1035B00010B11E4948698047402000F03FF840B1F3
:1035C000402000F035F81948806910B11749886922
:1035D0008047802000F032F840B1802000F028F8C9
:1035E0001248C06910B11149C86980474FF4807012
:1035F00000F024F848B14FF4807000F019F80B483F
:10360000006A10B10949086A80474FF4007000F061
:1036100015F848B14FF4007000F00AF80348406A0A
:1036200010B10249486A804710BD0000DC2C002020
:103630000149086070470000140401400146002061
:103640000022074B1B6803EA0102054B14331B6879
:103650000B4013B10AB1012000E0002070470000C8
:1036600000040140002123498279002A3AD00A4609
:10367000126803689A430B461A600A1D12680368B1
:103680009A430B1D1A60027911440A6803681A43B1
:103690000A60184A0832126803689A43154B0833C7
:1036A0001A601A1D126803689A43124B0C331A6091
:1036B0004279102A0ED11A1F126803681A430D4B63
:1036C00008331A601A1D126803681A43094B0C3339
:1036D0001A600DE00749427911440A6803681A43E9
:1036E0000A6005E0027911440A6803689A430A6097
:1036F00070470000000401402DE9F05F07460025F7
:10370000B94609F10804042006F04CFF8046042065
:1037100006F048FF0646D9F800B0B4F800A0A8F8B3
:1037200000A04FF6027030800420B070A078F070D6
:10373000A07805282CDCA07805280FDAE07830B1D5
:10374000A178224A52F82100FEF7ACFC2FE0A178C4
:103750001E4A52F82100FEF78FFC28E0E07858B1AD
:10376000002506E0194951F82500FEF79BFC681C6E
:10377000C5B2052DF6DB1AE0002506E0134951F825
:103780002500FEF779FC681CC5B2052DF6DB0EE0BE
:10379000334604225146584605F0E4FD304606F013
:1037A00015FD404606F012FD0020BDE8F09F43469F
:1037B00004225146584605F07FFD304606F006FDCE
:1037C000404606F003FD0120EFE70000DC33002057
:1037D0002DE9F05F07460024B94609F108050420E9
:1037E00006F0E0FE8046042006F0DCFE0646D9F82E
:1037F00000B0B5F800A0A8F800A04FF60270308025
:103800000520B070A878F070A87804283BDCA87870
:10381000042814DAE87858B1A978294A52F8210026
:10382000FFF71BFA274951F82400FEF73BFC39E06B
:10383000A978234A52F82100FFF778F932E0E878B6
:1038400080B100240BE01E4951F82400FFF705FA6F
:103850001C4951F82400FEF725FC601CC4B2042C5E
:10386000F1DB1FE000240BE0154951F82400FFF7BD
:103870005DF9144951F82400FEF7FEFB601CC4B248
:10388000042CF1DB0EE0334604225146584605F085
:1038900069FD304606F09AFC404606F097FC002091
:1038A000BDE8F09F434604225146584605F004FD0A
:1038B000304606F08BFC404606F088FC0120EFE71E
:1038C000FC330020DC3300202DE9F05F07460025A3
:1038D000B94609F10804042006F064FE804604207D
:1038E00006F060FE0646D9F800B0B4F800A0A8F8CB
:1038F00000A04FF6027030800620B070A078F07003
:10390000A07802282CDCA07802280FDAE07830B109
:10391000A178224A52F82100FEF722FC2FE0A1787C
:103920001E4A52F82100FEF7D7FB28E0E07858B194
:10393000002506E0194951F82500FEF711FC681C26
:10394000C5B2042DF6DB1AE0002506E0134951F854
:103950002500FEF7C1FB681CC5B2042DF6DB0EE0A6
:10396000334604225146584605F0FCFC304606F02A
:103970002DFC404606F02AFC0020BDE8F09F43469F
:1039800004225146584605F097FC304606F01EFCCE
:10399000404606F01BFC0120EFE70000F407002082
:1039A0002DE9F04705462F4607F10806042006F0EA
:1039B000F9FD0446D7F80080B6F800904FF0040AED
:1039C000308820800020A0700021E17023465246FC
:1039D0004946404605F070FC204606F0F7FB012002
:1039E000BDE8F0872DE9F04705462F4607F10809A5
:1039F000382006F0D7FD04462CB9204606F0E6FB39
:103A00000020BDE8F087D7F80080B9F80060268074
:103A100020220AA1A01CFCF7FBFB16220DA104F139
:103A20002200FCF7F5FB234638223146404605F0DC
:103A300043FC204606F0CAFB0120E2E741707220F9
:103A4000323520323032322032313A30373A34395E
:103A50000000000056312E302E302E3000000000C5
:103A60002DE9F0470646B04608F10804042006F0A8
:103A700099FD0746042006F095FD0546D8F800A0FC
:103A8000B4F80090A7F800904FF6027028800A2042
:103A9000A870A078E8706088032843DA608820B1B5
:103AA000012811D002282DD11DE02C49486801F0D1
:103AB0005FFA2A49886801F05BFA6188274A52F860
:103AC000210001F06BFA2CE02449086801F050FA5B
:103AD0002249886801F04CFA6188204A52F8210096
:103AE00001F05CFA1DE01D49086801F041FA1B492C
:103AF000486801F03DFA6188184A52F8210001F047
:103B00004DFA0EE02B4604224946504605F02AFCA9
:103B1000284606F05BFB384606F058FB0020BDE85F
:103B2000F0870DE02B4604224946504605F01AFC6A
:103B3000284606F04BFB384606F048FB0020EEE72F
:103B40003B4604224946504605F0B6FB284606F09F
:103B50003DFB384606F03AFB0120E0E72434002024
:103B60002DE9F0470746B84608F10804042006F09E
:103B700019FD0546042006F015FD0646D8F800A0FC
:103B8000B4F80090A5F800904FF60270308007203E
:103B9000B070A078F070608802280EDCA078A87061
:103BA0006288144B53F82220517C628853F82220FB
:103BB000107CFDF783FDE8700EE033460422494691
:103BC000504605F0CFFB304606F000FB284606F0D5
:103BD000FDFA0020BDE8F0872B46042249465046F6
:103BE00005F06AFB304606F0F1FA284606F0EEFAD8
:103BF0000120EFE7FC0700202DE9F05F07460025D4
:103C0000B94609F10804042006F0CCFC80460420E3
:103C100006F0C8FC0646D9F800B0B4F800A0A8F831
:103C200000A04FF6027030800120B070A078F070D4
:103C3000A07803282CDCA07803280FDAE07830B1D4
:103C4000A178224A52F8210003F017FC2FE0A17856
:103C50001E4A52F8210003F018FC28E0E07858B121
:103C6000002506E0194951F8250003F006FC681C00
:103C7000C5B2032DF6DB1AE0002506E0134951F822
:103C8000250003F002FC681CC5B2032DF6DB0EE034
:103C9000334604225146584605F064FB304606F090
:103CA00095FA404606F092FA0020BDE8F09F4346A0
:103CB00004225146584605F0FFFA304606F086FACF
:103CC000404606F083FA0120EFE70000F0330020C1
:103CD0002DE9F04F87B0064600200690B2460AF163
:103CE0000804042006F05EFC8146042006F05AFC1D
:103CF0000546DAF800000590B4F800B0A9F800B065
:103D00004FF6027028800220A8700020E8706088BA
:103D10003C494860A0888860E088C86020890861C4
:103D2000608948610A460A2137480068FDF7E3F8D0
:103D300000223448406933490969CDE90102009104
:103D40003048C368826841683048006801F078FCF8
:103D500001222C4840692B490969CDE901020091F3
:103D60002848C368826841682848006801F068FCF8
:103D7000E068E0B1E068401CC8B1E068FCF7E9FC2D
:103D80000022234BCDE90201FCF755FC074688468B
:103D90000120002102221F4BCDE90032CDE90210A3
:103DA0003A4643461948006801F00EFC0690E06868
:103DB000401C10B9012018490870E06810B90020B3
:103DC00015490870069878B12B4604225946059883
:103DD00005F0C8FA284606F0F9F9484606F0F6F963
:103DE000002007B0BDE8F08F4B46042259460598E5
:103DF00005F062FA284606F0E9F9484606F0E6F9C9
:103E00000120EEE73C08002010080020EC0700200D
:103E100000005940B8820100240800202DE9FE4F1F
:103E20008146CA460AF10804082006F0BBFB064694
:103E3000042006F0B7FB0546DAF800000290B4F85B
:103E400000B0A6F800B04FF602702880608810B964
:103E50000920A87001E00820A870A078E8706088A8
:103E6000062812DC608870806088164901EBC0006B
:103E70000022154BD0E900713846FCF76AFBCDE90A
:103E80000001FCF7A6FC70600EE02B4604225946A8
:103E9000029805F067FA284606F098F9304606F0D1
:103EA00095F90020BDE8FE8F334608225946029856
:103EB00005F002FA284606F089F9304606F086F940
:103EC0000120EFE730340020000059402DE9F04791
:103ED0000546A94609F10806042006F063FB0746DB
:103EE000042006F05FFB0446D9F800A0B6F8008075
:103EF000A7F800804FF6027020800320A070B078F1
:103F0000E070B07802280BDAF07820B1134800682E
:103F100004F04AFE13E01148006804F0C5FD0EE00D
:103F2000234604224146504605F01CFA204606F07E
:103F30004DF9384606F04AF90020BDE8F0873B46C7
:103F400004224146504605F0B7F9204606F03EF9F6
:103F5000384606F03BF90120EFE70000F0070020AB
:103F600010B50446204600F0ADF810BD2DE9F0472D
:103F700005462F4607F108090C2006F013FB0446FE
:103F80000026D7F800A0B9F80080A4F80080FEF75A
:103F900069FD00BF12E0124951F826108868FCF74D
:103FA000E5FB00EBC00101EB00104FF6FF7101EAE9
:103FB0008001A01C20F81610701CC6B2042EEADB8B
:103FC0000020A0720021E17223460C224146504697
:103FD00005F072F9204606F0F9F80120BDE8F087F7
:103FE000FC3300202DE9F0470446264606F1080779
:103FF000042006F0D7FA0546D6F80080B7F80090FE
:1040000012480078022812D0022010490870104986
:10401000886803F03AFA0E49086803F036FA0C494A
:10402000486803F02AFA0B48006804F0BDFD3888A0
:1040300028802B4604224946404605F03DF9284693
:1040400006F0C4F80120BDE8F08700006C080020ED
:10405000F0330020F00700202DE9F0470446264603
:1040600006F10807042006F09DFA0546D6F8008000
:10407000B7F800901048007801280ED001200E49B2
:1040800008700E49486803F000FA0D48006804F013
:104090000BFD0A49086803F0F0F9388828802B46A0
:1040A00004224946404605F007F9284606F08EF8F6
:1040B0000120BDE8F08700006C080020F0330020EC
:1040C000F007002010B5044600F0A8F82D4A0121A1
:1040D0002046FDF73FFE2C4A02212046FDF73AFE1E
:1040E0002A4A03212046FDF735FE294A05212046AC
:1040F000FDF730FE274A04212046FDF72BFE264A15
:1041000006212046FDF726FE244A07212046FDF71A
:1041100021FE234A08212046FDF71CFE214A0921E1
:104120002046FDF717FE204A0A212046FDF712FE21
:104130001E4A0C212046FDF70DFE1D4A0B2120468C
:10414000FDF708FE1B4A11212046FDF703FE1A4A1F
:1041500012212046FDF7FEFD184A13212046FDF7E7
:10416000F9FD174A14212046FDF7F4FD154A1521E3
:104170002046FDF7EFFD144A16212046FDF7EAFD23
:10418000012010BDA1390008F93B0008D13C00080E
:10419000F9360008CD3E0008D1370008C9380008BC
:1041A000613B00081D3E0008613A0008E53900083F
:1041B000354C0008014B000859400008E53F000855
:1041C000CD410008E54B00086D3F00082DE9F047A0
:1041D0000446264606F10807082006F0E3F90546DE
:1041E000D6F80090B7F80080A5F80680788818B156
:1041F00001200949087002E00020074908702B4699
:1042000008224146484605F057F8284605F0DEFFEB
:104210000120BDE8F08700002408002000B59BB015
:1042200000201A90042006F0BDF91890042006F032
:10423000B9F91790189810B900201BB000BD179855
:1042400008B90020F9E7052001230622194600904D
:104250000020FCF76FFDFE490860002001F044FDDE
:10426000FC490860002001F03FFDFB490860202167
:10427000F7480068FCF798FD1A901A98112805D1A4
:10428000F64A0121F2480068FCF7D8FD4FF4A0710E
:10429000EF480068FCF788FD1A901A98112805D19C
:1042A000EF4A0A21EA480068FCF7C8FD4FF4207184
:1042B000E7480068FCF778FD1A901A98112805D194
:1042C000E84A1421E2480068FCF7B8FD09200421FF
:1042D0000722CDE91312CDE915100820102207237B
:1042E000CDE90F32CDE90B32CDE90D32CDE9111018
:1042F000104601220792CDE908230A9000200522EA
:10430000CDE9042001460690D748CDE902100020EF
:10431000D549D64AD64BCDE90001022100F0CAFFAB
:10432000D449086001220A210420FCF78BFE0122F7
:104330000A210420FDF768FA012208210420FDF774
:1043400063FACC48006808B9002076E70022C44828
:104350004069C3490969CDE901020091C048C068BC
:104360001690BF4880681590BD484068149001467B
:10437000C048DDE91523006801F062F90122B84860
:104380004069B7490969CDE901020091B448C068A4
:104390001690B34880681590B14840681490014663
:1043A000B448DDE91523006801F04AF9072002232B
:1043B000002211460090104604F0A8FBAE490860A8
:1043C0000846006808B9002037E7AB48006804F0E9
:1043D0006BFB1020072108220223CDE90232CDE930
:1043E00004100520642142F210730022CDE9001070
:1043F0001146104602F0C4FFA049086010200721B2
:1044000009220223CDE90232CDE9041005206421FE
:1044100042F210730022CDE900101146012002F093
:10442000AFFF964948601020072101220323CDE900
:104430000232CDE904100520642142F210730022FB
:10444000CDE900101146022002F09AFF8B498860E6
:104450000020199011E08949199851F8200008B9F5
:104460000020EAE68549199851F82000169003F0DB
:104470000CF81998401CC0B2199019980328EADB6F
:104480000723032200210846FDF7B2FD7C4908609E
:104490000623032200210120FDF7AAFD7849486088
:1044A0000523032200210220FDF7A2FD7449886044
:1044B0000423032200211046FDF79AFD7049C860CD
:1044C00003231A4600210420FDF792FD6C49086180
:1044D0000020199011E06A49199851F8200008B994
:1044E0000020AAE66649199851F820001690FDF7B9
:1044F000C3FD1998401CC0B2199019980528EADB31
:104500005F4800691690FDF7CDFD0A2000210122C9
:104510000B46CDE9002102900F2204210020FEF776
:1045200011FB584908600A20062100221346CDE9F4
:10453000002102900E2204210120FEF703FB5149C5
:1045400048600A20042100221346CDE90021029090
:104550000D220220FEF7F6FA4A4988600A2002215D
:1045600000221346CDE9002102900C2204210320F1
:10457000FEF7E8FA4349C8600020199011E041496C
:10458000199851F8200008B9002056E63D491998BD
:1045900051F820001690FEF7C9FA1998401CC0B2D5
:1045A000199019980428EADB0A2202210020FDF75D
:1045B0009FFD354908600B2202210120FDF798FD7F
:1045C000314948600020199011E02F49199851F89D
:1045D000200008B9002030E62B49199851F8200036
:1045E0001690FDF779FD1998401CC0B219901998E2
:1045F0000228EADB25492648CDE90810494225482A
:10460000CDE9061000202449CDE9040101462348E4
:10461000CDE90210002105230222CDE90010084651
:10462000FDF704FF1E49086018481949CDE9080143
:1046300040421849CDE9060100201749CDE904019F
:1046400001461648CDE9021000210423022229E088
:10465000100800201C08002020080020300800203E
:104660003C0800205408002000807640CDCCCCCC03
:10467000CCCCFC3FEC070020F0070020F0330020FA
:10468000DC330020FC330020F40700209A9999992C
:104690009999B93F66660A4000D6AA4000002440B6
:1046A0000C340020CDE900100120FDF7BFFEFD49CC
:1046B0004860FD49FD48CDE908104842FC49CDE974
:1046C00006010020FB49CDE904010146FA48CDE985
:1046D0000210002103230222CDE900101046FDF74D
:1046E000A5FEF0498860F049F048CDE9081048423D
:1046F000EF49CDE906010020EE49CDE90401EE497C
:10470000CDE9020102231A46CDE90001014603204A
:10471000FDF78CFEE349C860E348E449CDE90801B0
:104720004142E348CDE906100021E248CDE90410FA
:10473000E148CDE902100846DF4901230222CDE914
:10474000000100210420FDF771FED6490861D6481A
:10475000D649CDE908014042D549CDE906010021FD
:10476000D448CDE904100846D349CDE90201002020
:1047700003460222CDE9000101460520FDF756FE61
:10478000C8494861002019900AE0C649199851F8B3
:10479000200008B9002050E51998401CC0B21990BB
:1047A00019980628F1DB072001230A2219460090F8
:1047B0000020FEF779FBC1490860082001230A2286
:1047C000194600901846FEF76FFBBC494860084642
:1047D0000068407C169008460068007C1590169989
:1047E000FCF76CFF58B9B5484068407C1690B34858
:1047F0004068007C15901699FCF760FFE0B14FF619
:104800000F7117980180072117988170022117985E
:10481000C170042200210846179B04F0A1FC1798E0
:1048200005F0D4FC189805F0D1FC4FF4FA7300227F
:104830001146104601F036FE002019900AE09F490B
:10484000199851F8200008B90020F6E41998401C86
:10485000C0B2199019980228F1DB9948406998492B
:104860000969974AD268964B9B68CDE90432CDE935
:104870000610934840680B2101220A23CDE900323B
:10488000CDE90210134602224FF461410020FEF7E9
:1048900059FD8C4908600846006808B90020CCE43E
:1048A0000F2003230A22002100900420FEF7FCFAC7
:1048B000854908600C2003230A220021009007206C
:1048C000FEF7F2FA80494860002019900AE07E491C
:1048D000199851F8200008B90020AEE41998401C3E
:1048E000C0B2199019980228F1DB08230322002195
:1048F000012000F0F7FA754908600923032200211E
:10490000022000F0EFFA71494860002303221946A3
:10491000104600F0E7FA6D498860002019900AE01F
:104920006A49199851F8200008B9002085E41998BF
:10493000401CC0B2199019980328F1DB6348406805
:10494000169000F02BFB624880681190FBF701FF86
:104950000022604BCDE91201FBF76DFECDE9140199
:10496000FBF794FF1690002003465B4A00901699CF
:10497000FDF77CFE59490860554880681190FBF7A7
:10498000E8FE0022534BCDE91201FBF754FECDE9BE
:104990001401FBF77BFF1690002003464E4A00905F
:1049A00001201699FDF762FE4C49C86248488068AC
:1049B0001190FBF7CEFE0022464BCDE91201FBF72A
:1049C0003AFECDE91401FBF761FF16900020034683
:1049D000414A009002201699FDF748FE3F4988653C
:1049E0003B4880681190FBF7B4FE0022394BCDE9BB
:1049F0001201FBF720FECDE91401FBF747FF1690EB
:104A000000200346344A009003201699FDF72EFE3D
:104A10003249C1F884000020199021E03048314922
:104A20000090199851F820001690199800EB400159
:104A300001EBC000294951F820001590199800EBAE
:104A4000400101EBC000254901EB8000264B14908A
:104A5000DDE91512FDF752FF1998401CC0B21990FC
:104A600019980428DADB2148214908602148486068
:104A7000214888602148C86041F2090118980180E6
:104A80000021189881701898C17004220846189B5C
:104A900004F0BCFB189805F099FB179805F096FBFD
:104AA000012052E40C3400209A9999999999B93FC0
:104AB00066660A4000D6AA4000002440FC07002099
:104AC0005408002004080020080800202434002096
:104AD00030080020000059400000C842683400201F
:104AE000F5940008FC330020BD940008D17700083D
:104AF0008035002035780008A17800080D7900087D
:104B00002DE9F05F06464FF0000AB04608F10804B0
:104B1000042005F047FD0746042005F043FD054647
:104B2000D8F800B0B4F80090A7F800904FF60270E3
:104B300028800B20A8700020E870A078E8B12748F2
:104B40008078207125484078E07024488088E08093
:104B500022488068A0602148C078607123460C22FA
:104B60004946584604F0A8FB284605F02FFB384676
:104B700005F02CFB0120BDE8F09F207917498870D3
:104B8000E0784870E0888880A06888606079C870A4
:104B90000A46012112480068FCF7ADF98246BAF1D5
:104BA000000F0DD12B4604224946584604F0DAFB8B
:104BB000284605F00BFB384605F008FB0020DAE735
:104BC0003B4604224946584604F076FB284605F049
:104BD000FDFA384605F0FAFA0120CCE7300800204B
:104BE000100800202DE9F0470446264606F1080784
:104BF000082005F0D7FC0546D6F80090B7F80080ED
:104C0000A5F80680788818B101200949087002E0EB
:104C10000020074908702B4608224146484604F008
:104C20004BFB284605F0D2FA0120BDE8F0870000D2
:104C30002C0800202DE9F0470546A84608F1080495
:104C4000042005F0AFFC0646D8F80090278837808E
:104C50006088D0B11F48406860601E488068A060CE
:104C60001C48C068E0601B48006920611948406921
:104C70006061234618223946484604F01DFB304641
:104C800005F0A4FA0120BDE8F08712496068486089
:104C9000A0688860E068C860206908616069486150
:104CA0000A4614210C480068FCF725F93346042213
:104CB0003946484604F000FB304605F087FA3223B7
:104CC00000221146104601F0EDFBFCF70BFD012020
:104CD000D9E70000540800201008002030B5002259
:104CE0008B071C0F0F2303FA04F20B4B8C1053F8A5
:104CF00024309343084C8D1044F8253023468C1003
:104D000053F824308C07240F00FA04F42343024C98
:104D10008D1044F8253030BD080001402DE9F041E8
:104D2000024600250026002000230024002791F8D9
:104D300003C00CF00F0591F803C00CF0100CBCF18F
:104D4000000F03D091F802C04CEA050591F800C0AD
:104D5000BCF1000F31D0146800202BE04FF0010CA3
:104D60000CFA00F3B1F800C00CEA03069E4220D111
:104D700083004FF00F0C0CFA03F7BC4305FA03FC59
:104D80004CEA040491F803C0BCF1280F06D14FF09F
:104D9000010C0CFA00FCC2F814C00AE091F803C040
:104DA000BCF1480F05D14FF0010C0CFA00FCC2F821
:104DB00010C0401C0828D1D31460B1F800C0BCF169
:104DC000FF0F34DD546800202EE000F1080C4FF096
:104DD000010808FA0CF3B1F800C00CEA03069E4281
:104DE00021D183004FF00F0C0CFA03F7BC4305FAF6
:104DF00003FC4CEA040491F803C0BCF1280F05D170
:104E000000F1080C08FA0CF8C2F8148091F803C0FD
:104E1000BCF1480F07D100F1080C4FF0010808FA67
:104E20000CF8C2F81080401C0828CED35460BDE8AE
:104E3000F0810000F0B50A4600230024002100257F
:104E400000F00046B6F1004F02D11D4EF16901E0BD
:104E50001B4E7168C0F3034583B200F44016B6F5EB
:104E6000401F08D121F07061154E766826F07066FB
:104E7000134F7E6012E000F48016B6F5801F06D155
:104E8000032606FA05F4A14341F0706106E0460DE1
:104E9000360103FA06F6B14341F0706122B1460DC6
:104EA000360103FA06F6314300F00046B6F1004F32
:104EB00002D1034EF16101E0014E7160F0BD0000CE
:104EC000000001400246002093680B400BB1012016
:104ED00000E0002070470AB1016100E041617047C5
:104EE00000BFFEE72DE9F0410546884616461F46FD
:104EF00006210120FBF7B0F9044614B90020BDE8F3
:104F0000F081042D04DB204605F060F90020F6E76F
:104F1000164850F8250030B1204605F057F91348DF
:104F200050F8254002E0114840F82540A57084F86B
:104F3000038026716771012239463046FCF782F8FA
:104F4000E07838B900206070627861792079FCF7E8
:104F50005BFC06E001206070627861792079FCF7E3
:104F600053FC022020702046C9E70000042E0020D8
:104F700010B50446E07838B9002060706278617935
:104F80002079FCF741FC06E00120607062786179CD
:104F90002079FCF739FC0220207010BD10B50446C2
:104FA000E07838B901206070627861792079FCF787
:104FB0002BFC06E000206070627861792079FCF7B4
:104FC00023FC0120207010BD10B514480068407FFC
:104FD000012809D011480068407F022804D00F48FA
:104FE0000068407F042804D10C49086804F0B0FD33
:104FF00012E00A480068407F032809D0074800688B
:10500000407F052804D005480068407F062803D16A
:105010000249086804F0DEFC10BD0000142E0020D8
:1050200010B50249086804F05CFD10BD142E002084
:1050300010B50249086800F075FB10BD142E002061
:1050400010B514484068407F012809D011484068D5
:10505000407F022804D00F484068407F042804D1D4
:105060000C49486804F074FD12E00A484068407F2B
:10507000032809D007484068407F052804D0054828
:105080004068407F062803D10249486804F0A2FC2A
:1050900010BD0000142E002010B50249486804F02D
:1050A00020FD10BD142E002010B50249486800F004
:1050B00039FB10BD142E002010B514488068407FC5
:1050C000012809D011488068407F022804D00F4889
:1050D0008068407F042804D10C49886804F038FDBA
:1050E00012E00A488068407F032809D0074880689A
:1050F000407F052804D005488068407F062803D1FA
:105100000249886804F066FC10BD0000142E0020DF
:1051100010B50249886804F0E4FC10BD142E00208C
:1051200010B50249886800F0FDFA10BD142E002069
:1051300010B51448C068407F012809D01148C068E4
:10514000407F022804D00F48C068407F042804D163
:105150000C49C86804F0FCFC12E00A48C068407FB3
:10516000032809D00748C068407F052804D00548B7
:10517000C068407F062803D10249C86804F02AFCB1
:1051800010BD0000142E002010B50249C86804F0BC
:10519000A8FC10BD142E002010B50249C86800F00C
:1051A000C1FA10BD142E00202DE9F0478AB08146C7
:1051B00015461E4699F82C00FBF7CBFACDE90601FF
:1051C000D9E90C733A4600203949FBF734FACDE9A6
:1051D0000201D9E90E733A4628463146FBF72BFA0D
:1051E000CDE90001DDE90223FBF7B3F9CDE90401C4
:1051F000DDE90623FBF7ADF9CDE90801FBF7CAFAB3
:105200000446002C01DC012000E00020824699F8D1
:105210002C10201E01DB024600E0424299F82C309F
:1052200092FBF3F703FB172201EBD173B2EB630F91
:105230001EDBBAF1000F0DD1201E01DB014600E09C
:10524000414299F82C2091FBF2F302FB1311511A01
:105250000C4429E0201E01DB014600E0414299F8A0
:105260002C2091FBF2F302FB1311511A641A1BE07C
:10527000BAF1000F0CD1201E01DB014600E04142D3
:1052800099F82C2091FBF2F302FB1311641A0BE046
:10529000201E01DB014600E0414299F82C2091FBE1
:1052A000F2F302FB13110C4420460AB0BDE8F0876C
:1052B000008076402DE9FF5F84B00546174698468A
:1052C00025AE96E8400E58210120FAF7C5FF0446A6
:1052D0001CB9002008B0BDE8F09F042D04DB204677
:1052E00004F074FF0020F5E7A74850F8250030B11E
:1052F000204604F06BFFA44850F8254002E0A24885
:1053000040F8254035B1012D0ED0022D16D0032DC9
:1053100028D11DE08DE8400E0020DDE9232305990A
:1053200000F020FA206522E08DE8400E0120DDE942
:105330002323059900F016FA206518E08DE8400E49
:105340000220DDE92323059900F00CFA20650EE028
:105350008DE8400E0320DDE92323059900F002FAD1
:10536000206504E0204604F031FF0020B2E700BFD2
:1053700004F81C5F16986070844800EB850060603C
:1053800005EBC50000EB0510814901EB0010A060A2
:1053900017982073189860731998A0731A98E0737F
:1053A00005982074C4E90578DDE91201C4E9070114
:1053B0001C3C2046DDE91423FFF7F6FE2064606CF8
:1053C00018B9002000F090FC60641B9804F8480FA6
:1053D0001C986070DDE91B01FBF7B4FE1D98A070FE
:1053E0001E98E070DDE91D01FBF7ACFE1F982071EF
:1053F00020986071DDE91F01FBF7A4FE2198A071E0
:105400002298E071DDE92101FBF79CFE14F82C0CD9
:10541000483C30B101282DD0022854D003287BD13C
:105420007BE094F84900102805D05A4894F84910B8
:10543000594A42F8210094F84B00102805D05748EB
:1054400094F84B10544A42F8210094F84D0010286B
:1054500005D0534894F84D104F4A42F8210094F873
:105460004F00102805D04E4894F84F104A4A42F891
:1054700021007CE094F84900102805D0494894F8B0
:105480004910454A42F8210094F84B00102805D0F5
:10549000454894F84B10404A42F8210094F84D00DA
:1054A000102805D0414894F84D103B4A42F821009D
:1054B00094F84F00102805D03C4894F84F10364A15
:1054C00042F8210053E094F84900102805D03848EC
:1054D00094F84910304A42F8210094F84B00102803
:1054E00005D0344894F84B102B4A42F8210094F828
:1054F0004D00102805D0304894F84D10264A42F847
:10550000210094F84F00102805D02B4894F84F1034
:10551000214A42F821002AE028E094F849001028A6
:1055200005D0264894F849101B4A42F8210094F807
:105530004B00102805D0224894F84B10164A42F828
:10554000210094F84D00102805D01E4894F84D1005
:10555000114A42F8210094F84F00102805D019484C
:1055600094F84F100C4A42F8210000E000BF00BF41
:1055700000206061A06120706060A060E060207425
:1055800060742046A6E60000142E0020880000204B
:105590009800002021500008DC2C0020C94F000892
:1055A000315000089950000841500008A9500008E7
:1055B00011510008B9500008215100088951000814
:1055C00031510008995100082DE9FE4F0646144656
:1055D0001D460CAF97E880074FF0000B22462B4684
:1055E0003046FFF7E1FD029043463A46CDE9009A86
:1055F0003046029904F022F883465846BDE8FE8FF3
:105600002DE9F04F85B006460F4614461D46DDE9EC
:1056100010ABDDE90E890020049022462B4630466F
:10562000FFF7C2FD039043468DE8000E3946304631
:10563000039A04F045F80490049805B0BDE8F08F93
:105640002DE9F04704460D4616461F46DDE9099A46
:10565000DDF82080BAF1000F06D0BAF1010F21D099
:10566000BAF1020F5AD13BE0206DC06C0560206D8D
:10567000C06C4660206DC06C8760206DC06CC0F847
:105680000C80206DC06CC0F81090D4F850C09CF80D
:105690008000DCF87430DCF86820DCF84C10FCF793
:1056A0003FF93BE0206D006D0560206D006D4660A8
:1056B000206D006D8760206D006DC0F80C80206D3E
:1056C000006DC0F81090D4F850C09CF88000DCF851
:1056D0007830DCF86C20DCF85010FCF721F91DE084
:1056E000206D406D0560206D406D4660206D406D01
:1056F0008760206D406DC0F80C80206D406DC0F853
:105700001090D4F850C09CF88000DCF87C30DCF8B5
:105710007020DCF85410FCF703F900BF00BF012033
:10572000BDE8F08738B504462078B8B12078012864
:1057300014D02078042811D0206D00F088F90220C0
:10574000207001202074206D006F00880090226D71
:10575000517D10460023012200F00EF938BD00BF34
:10576000FEE700002DE9F05F0546884616461F4615
:10577000DDE90BABDDF8289084210120FAF76CFD00
:10578000044614B90020BDE8F09F042D04DB204638
:1057900004F01CFD0020F6E7754850F8250030B1F4
:1057A000204604F013FD724850F8254002E070488E
:1057B00040F8254035B1012D0CD0022D12D0032D1B
:1057C00020D117E05A46002108460D9B01F04EFDFE
:1057D000A0641CE05A46012108460D9B01F046FDDD
:1057E000A06414E05A46022108460D9B01F03EFDDC
:1057F000A0640CE05A46032108460D9B01F036FDDB
:10580000A06404E0204604F0E1FC0020BBE700BFF8
:1058100004F8405F6670A770012239463046FBF7F6
:1058200011FC84F8039084F804A0012251464846F4
:10583000FBF708FC05EB4500801C00EB80004D49A0
:1058400001EB8000E06005EB4500401C00EB8000B0
:1058500001EB8000206105EB450000EB800001EBCF
:105860008000606184F84080403CE06D50B90221C6
:1058700004F1580003F0E5F920B9204604F0A6FC35
:10588000002080E7606E50B9022104F1600003F04F
:10589000D8F920B9204604F099FC002073E7A06EE7
:1058A00060B9E16C898988B203F0DBF9A066A06E6B
:1058B00020B9204604F08AFC002064E7E16CC86847
:1058C00004F070FE6067E06E60B9216D898988B26E
:1058D00003F0C7F9E066E06E20B9204604F076FCDC
:1058E000002050E7216DC86804F05CFEA067206FBF
:1058F00060B9616D898988B203F0B3F92067206FC0
:1059000020B9204604F062FC00203CE7616DC868C5
:1059100004F048FEE067002020756075A061A08358
:105920002062606284F82800E06220636063A06304
:10593000E06320706060A060E0602061237D0BB1B7
:10594000012300E000231A4694F8421094F8410025
:10595000FBF75AFF637D0BB1012300E000231A46D9
:1059600094F8441094F84300FBF74EFF20460AE7F2
:10597000D02E0020D80600202DE9F04104460D4627
:1059800016461F46DDF818806575637D0BB101234F
:1059900000E000231A4694F8441094F84300FBF703
:1059A00033FFF019A0610420207000206060A06027
:1059B000A4F81C80204604F043F9BDE8F0812DE9ED
:1059C000F04104460D4616461F466575637D0BB1D2
:1059D000012300E000231A4694F8441094F8430091
:1059E000FBF712FFA761032020700020A060314662
:1059F000204603F054F9204604F022F9BDE8F08176
:105A00002DE9F04104460D4616461F46DDF8188084
:105A10006575637D0BB1012300E000231A4694F8FD
:105A2000441094F84300FBF7EFFEA76101202070BB
:105A300000206060A06084F88180424631462046A4
:105A400003F03FF9204604F0FBF8BDE8F08110B503
:105A50000446A06C01F0E2FB607D48B9A06C806850
:105A6000A16C4968A0EB510021690844206108E05D
:105A7000A06C8068A16C4968A0EB51002169081AEC
:105A8000206110BD7047000070B5002100230F2277
:105A9000C47804B3154C246804F4E064C4F5E064ED
:105AA000210AC1F10403CA40447804FA03F184785E
:105AB0001440214309010E4C0678A155047804F0E6
:105AC0001F050124AC4005786D11AD0005F1E025FE
:105AD000C5F8004109E0047804F01F050124AC403A
