:020000040800F2
:1000000078F70020B9020008F9510008C14D000836
:10001000ED50000829150008AD860008000000001A
:100020000000000000000000000000006D6F0008EC
:1000300055170008000000005702000891720008E0
:10004000D3020008D3020008D3020008D30200083C
:10005000D3020008D3020008993100087932000861
:100060009D320008C1320008E5320008D3020008C2
:10007000D3020008D3020008D3020008D30200080C
:10008000D3020008D3020008D3020008D3020008FC
:100090006D860008D3020008D30200080933000867
:1000A000D302000825730008D3020008D302000819
:1000B000417300086D73000899730008D3020008AB
:1000C000D3020008D3020008D3020008D3020008BC
:1000D000D3020008D1830008E583000815840008D6
:1000E000BD310008D3020008D3020008D302000883
:1000F000D3020008D3020008D3020008D30200088C
:10010000D3020008D3020008C5730008D302000818
:10011000A1830008D3020008F17300081D740008D1
:10012000D3020008D3020008D3020008D30200085B
:1001300000F002F800F05EF80AA090E8000C82449B
:100140008344AAF10107DA4501D100F053F8AFF278
:10015000090EBAE80F0013F0010F18BFFB1A43F0A5
:100160000103184724B9000044B900000A444FF0C5
:10017000000C10F8013B13F0070408BF10F8014B06
:100180001D1108BF10F8015B641E05D010F8016B4B
:10019000641E01F8016BF9D113F0080F1EBF10F8AF
:1001A000014BAD1C0C1B09D16D1E58BF01F801CBD2
:1001B000FAD505E014F8016B01F8016B6D1EF9D555
:1001C0009142D6D37047000000230024002500266A
:1001D000103A28BF78C1FBD8520728BF30C148BFAA
:1001E0000B6070471FB59DE8030000F075F91FBD57
:1001F00010B510BD00F034FA1146FFF7F3FF09F017
:1002000019FC00F052FA03B4FFF7F2FF03BC09F047
:1002100091F90000EFF3108072B6704780F31088F8
:1002200070471D484FF0FF010170002080F30988DE
:100230001A48012101701A484FF08051016062B6DE
:10024000FEE717484FF080510160704714484FF0A7
:1002500080510160704772B6EFF3098028B12038F1
:1002600080E8F00F0F490968086000B50E48804724
:100270005DF804EB0D480E490A78027009480D49F3
:100280000A680260106890E8F00F203080F3098857
:100290004EF0040E62B6704722ED00E040000020F0
:1002A00004ED00E048000020595D000839000020FE
:1002B0003A000020500000200948804709480047C4
:1002C000FEE7FEE7FEE7FEE7FEE7FEE7FEE7FEE706
:1002D000FEE7FEE704480549054A064B7047000063
:1002E000C5720008310100087857002078F7002017
:1002F00078C7002078C7002070B5A0FB0140B4F19A
:10030000805170F1000024BF002070BD204600F035
:1003100007F805001CBF214600F09DF8284670BD77
:1003200070B5064600F0BCF8056806F10B0020F039
:100330000704B4429CBF002070BD2B466A68BAB166
:100340001068A04210D304F1080188423CBF5068F5
:10035000586007D35168101941601168091B01608A
:1003600058601460101D70BD13465268002AE7D112
:100370002146284600F09CF80028DED170BD70B5FB
:100380000446051F00F08CF80068002C14BF446878
:1003900070BD002C18BFAC423CBF20466468F8D347
:1003A00001680A18AA4218BF456003D12A680546A9
:1003B0001144016028684119A1421CBF6C6070BDE6
:1003C0006168696021680844286070BD032A40F2B2
:1003D000308010F0030C00F0158011F8013BBCF1E7
:1003E000020F624498BF11F801CB00F8013B38BFFF
:1003F00011F8013BA2F1040298BF00F801CB38BF0D
:1004000000F8013B11F0030300F0A780083AC0F0A8
:10041000088051F8043B083A51F804CBA0E80810D2
:10042000F5E7121D5CBF51F8043B40F8043BAFF305
:100430000080D20724BF11F8013B11F801CB48BF5F
:1004400011F8012B24BF00F8013B00F801CB48BF95
:1004500000F8012B70474FF000020429C0F0128011
:1004600010F0030C00F0AD80CCF1040CBCF1020FD5
:1004700018BF00F8012BA8BF20F8022BA1EB0C013C
:1004800000F09FB85FEAC17C24BF00F8012B00F8A0
:10049000012B48BF00F8012B704770477047704729
:1004A00000487047205700207047704770477047DA
:1004B00038B504460A4600206946AFF3008000289C
:1004C00008BF38BD02460099204600F0A7F8012079
:1004D00038BD012000F0BCB8F8B5AFF30080054688
:1004E00000200C46102000BF0646A819A0420DD9D6
:1004F000324669460020AFF30080070008BF00F0D5
:10050000A7F80098A04218BF0546C419FFF7C8FF16
:1005100005600746F01D20F007004619284600F048
:100520000AF8B44208BFF8BDA21B31463868BDE8DE
:10053000F84000F073B800210160C0E90110704775
:100540001020704710B500F065F8006810BD10B5B8
:10055000044600F05FF8046010BD10B5203AC0F00A
:100560000B80B1E81850203AA0E81850B1E81850B4
:10057000A0E81850BFF4F5AF5FEA027C24BFB1E8F1
:100580001850A0E8185044BF18C918C0BDE8104062
:100590005FEA827C24BF51F8043B40F8043B08BF6B
:1005A0007047D20728BF31F8023B48BF11F8012B32
:1005B00028BF20F8023B48BF00F8012B70474FF0DE
:1005C000000200B5134694469646203922BFA0E8A3
:1005D0000C50A0E80C50B1F12001BFF4F7AF0907AF
:1005E00028BFA0E80C5048BF0CC05DF804EB8900A0
:1005F00028BF40F8042B08BF704748BF20F8022BE3
:1006000011F0804F18BF00F8012B70470048704769
:1006100018570020004870471857002003464068CC
:100620008C46002818BF88423CBF03464068F8D378
:1006300018681844884207D00CF1030020F0070026
:10064000001D411A521A0146081D0A60FFF797BEA5
:1006500010B500F039F8BDE8104000F02FB8704731
:100660007546FFF7D3FFAE4605006946534620F0B6
:100670000700854618B020B5FFF72CFEBDE82040E6
:100680004FF000064FF000074FF000084FF0000B4E
:1006900021F00701AC46ACE8C009ACE8C009ACE801
:1006A000C009ACE8C0098D46704710B50446AFF3E9
:1006B00000802046BDE81040FFF7A5BD002801D00E
:1006C00008F038BF7047000010B5012805D00021A0
:1006D00003A000F021F8012010BD09A1F8E70000F7
:1006E00053494752544D454D3A204F7574206F661B
:1006F0002068656170206D656D6F72790000000083
:100700003A2048656170206D656D6F727920636F66
:10071000727275707465640070B505460C460A20E7
:1007200000E06D1C00F011F835B128780028F8D1F0
:1007300002E0641C00F009F814B120780028F8D118
:10074000BDE870400A20AFF3008008B569468DF817
:1007500000000320ABBE08BD21B1826842F0010257
:10076000826003E0826822F00102826070470146E5
:1007700000208A6802F004020AB1012000E0002093
:1007800070470146C86C80B270470246002013686B
:100790000B400BB1012000E0002070470146002013
:1007A0008A6802F008020AB1012000E000207047C8
:1007B00030B502460020002350680F4C20400D79D0
:1007C0000C6844EA05242043506090680B4C20409C
:1007D000D1E902542C434D7944EA4504204390600A
:1007E000D06A20F470000C7C641EE4B2234340EA1B
:1007F0000350D06230BD0000FFFEF0FFFDF7F1FFB7
:10080000F0B504460D4600200021092D11DDE068F9
:10081000A5F10A0606EB4607072606FA07F1884304
:10082000A5F10A0606EB460603FA06F10843E06066
:100830000CE0206905EB4507072606FA07F1884317
:1008400005EB450603FA06F108432061072A0FDA93
:10085000606B561E06EB86071F2606FA07F18843D3
:10086000561E06EB860605FA06F10843606322E091
:100870000D2A0FDA206BD61F06EB86071F2606FA15
:1008800007F18843D61F06EB860605FA06F10843F2
:10089000206310E0E06AA2F10D0606EB86071F2632
:1008A00006FA07F18843A2F10D0606EB860605FA63
:1008B00006F10843E062F0BD816841F00801816003
:1008C000704721B1826842F4A002826003E082682E
:1008D00022F4A00282607047816841F004018160C7
:1008E000704700002DE9FC4705460E46174698461E
:1008F000DDF8289008210120FFF7FEFC044614B91A
:100900000020BDE8FC87012D04DB2046FFF737FD02
:100910000020F6E70F4850F8250030B12046FFF7D9
:100920002EFD0C4850F8254002E00A4840F82540CA
:10093000E5704B46424604210020CDE9006706F0F1
:100940008BFB60600120207000206070A07020464A
:10095000D7E700008400002070B504460D4600264D
:10096000606802F09EF8A021606802F06EF860688E
:1009700002F0D4F820B9606802F0AFF8002070BD32
:100980002912606802F061F8606802F0C7F820B9C7
:10099000606802F0A2F80020F1E7E9B2606802F0B6
:1009A00054F8606802F0BAF820B9606802F095F86F
:1009B0000020E4E7606802F074F8A121606802F0AA
:1009C00044F8606802F0AAF820B9606802F085F87F
:1009D0000020D4E7606802F017F80646606801F06E
:1009E000E3FF606802F079F83046C8E72DE9F0418E
:1009F00004460E4617460025606802F052F8A02112
:100A0000606802F022F8606802F088F828B960682F
:100A100002F063F80020BDE8F0817201C2F3072103
:100A2000606802F012F8606802F078F820B9606837
:100A300002F053F80020EEE77207110E606802F032
:100A400004F8606802F06AF820B9606802F045F8BE
:100A50000020E0E7606802F024F8A121606801F05E
:100A6000F4FF606802F05AF820B9606802F035F8C7
:100A70000020D0E7002508E0606801F0C5FF785548
:100A8000606801F056FF681CC5B21F2DF4DB60687A
:100A900001F0BAFF7855606801F086FF606802F0E7
:100AA0001CF80120B7E72DE9F04104460E46174631
:100AB0000025606801F0F5FFA021606801F0C5FF26
:100AC000606802F02BF828B9606802F006F8002090
:100AD000BDE8F0817201C2F30721606801F0B5FF43
:100AE000606802F01BF820B9606801F0F6FF002092
:100AF000EEE77207110E606801F0A7FF606802F070
:100B00000DF820B9606801F0E8FF0020E0E700255B
:100B10000EE0795D606801F098FF606801F0FEFF0B
:100B200020B9606801F0D9FF0020D1E7681CC5B288
:100B3000202DEEDB606801F0D0FF00250CE005EB16
:100B4000461081B22046FFF707FF795D884201D049
:100B50000020BDE7681CC5B2202DF0DB0120B7E7FF
:100B6000014908607047000000860D4210B5044638
:100B70002CB1012C03D0022C01D0032C12D1A102E4
:100B800001F18040002106F071FCA10201F18040DA
:100B9000012106F068FCA10201F18040002106F06D
:100BA000F9FD0FE00021084806F060FC012106482D
:100BB00006F059FC0021044806F0ECFD0021024833
:100BC00006F060FC10BD0000002C014010B504468A
:100BD0002CB1012C03D0022C01D0032C06D1A10290
:100BE00001F18040012106F041FC07E001210448A9
:100BF00006F03CFC0121024806F044FC10BD000058
:100C0000002C014010B502464FF0E020006920F0B2
:100C100004004FF0E02420611046D41702EB547416
:100C2000E3100A4890FBF1F043434FF0E0200069E5
:100C300040F002004FF0E02420612046436100694B
:100C400040F001002061012010BD000040420F0073
:100C5000F8B505460C461646072D01DB0020F8BD09
:100C6000102C01DB0020FAE7082E01DB0020F6E75C
:100C7000042101FA05F0012106F0D4F8022D0CD16F
:100C80000D2C01D00E2C08D1012005F0FDFF002015
:100C900006F052F90020FFF763FF012D03D1032C6A
:100CA00004D0042C02D02DB90F2C03D101212A48E5
:100CB00004F030F85DB90D2C01D00E2C07D10121C4
:100CC000084606F0AFF80121234804F023F801207C
:100CD000A04080B2ADF80000082E25D2DFE806F073
:100CE00004080C101418201C04208DF803001DE0CB
:100CF00010208DF8030019E014208DF8030015E092
:100D000028208DF8030011E048208DF803000DE045
:100D100000208DF8030009E01C208DF8030005E099
:100D200018208DF8030001E0002098E700BF0320A1
:100D30008DF8020009490A1502FB0510694603F007
:100D40005DFF022D06D10D2C01D00E2C02D100200A
:100D500005F09AFF012082E7000230000008014000
:100D60002DE9FF4780460F46002003900190029036
:100D70000090B8F1070F02DB04B0BDE8F087102F38
:100D800001DB0020F8E7042101FA08F141F001003D
:100D9000012106F047F8B8F1020F0CD10D2F01D058
:100DA0000E2F08D1012005F06FFF002006F0C4F8D7
:100DB0000020FFF7D5FE0120B84080B2ADF80C004E
:100DC00004208DF80F0003208DF80E0057490A15F6
:100DD00002FB081003A903F011FFB8F1020F06D1BE
:100DE0000D2F01D00E2F02D1002005F04DFF4FF442
:100DF000A06004F03BFAB8F1070F1AD2DFE808F060
:100E000004070A0D101316004FF0000913E04FF00D
:100E1000010910E04FF002090DE04FF003090AE06C
:100E20004FF0040907E04FF0050904E04FF0060910
:100E300001E00020A0E700BF102F51D2DFE807F04B
:100E4000080C1014181C2024282D32373C41464B26
:100E500006250124002645E007250224012641E05D
:100E60000825042402263DE009250824032639E04C
:100E70000A251024042635E017252024052631E014
:100E80001725402406262DE017258024072629E073
:100E900017254FF48074082624E017254FF40074BA
:100EA00009261FE028254FF480640A261AE0282529
:100EB0004FF400640B2615E028254FF480540C26CF
:100EC00010E028254FF400540D260BE028254FF4A0
:100ED00080440E2606E028254FF400440F2601E04A
:100EE000002049E700BFE8B28DF8000001208DF82E
:100EF00001008DF802008DF80300684604F07EF9C9
:100F0000204602F04BFA3146484603F057FE019462
:100F100000208DF8080010208DF8090001208DF8C0
:100F20000A0001A802F054FA012025E70008014058
:100F300070B588B004460D46164600200590069010
:100F40000790049000900190029003902CB1012C26
:100F500003D0022C01D0032C66D1012101FA04F048
:100F600005F040FF062C1CD2DFE804F003070B0F4E
:100F700013171C208DF8100016E01D208DF81000AE
:100F800012E01E208DF810000EE032208DF81000C7
:100F90000AE036208DF8100006E037208DF81000AA
:100FA00002E0002008B070BD00BF4FF4A06004F064
:100FB0005DF901208DF811008DF812008DF81300F5
:100FC00004A804F01BF9A10201F1804006F06AFABE
:100FD00005A806F033FCADF81850ADF814600020F9
:100FE000ADF81A00ADF81600A10201F1804005A984
:100FF00006F0D2FBA10201F18040002106F024FAA4
:10100000A10201F18040202106F0B9FBA10201F10B
:101010008040012106F024FAA10201F18040012262
:10102000114606F044FB60E00121C80205F0FAFE1B
:1010300001212F4803F06EFE19208DF810004FF4A7
:10104000A06004F013F901208DF811008DF8120052
:101050008DF8130004A804F0D1F8264806F022FA0F
:1010600005A806F0EBFBADF81850ADF814600020B1
:10107000ADF81A00ADF8160005A91E4806F08CFB65
:1010800000211C4806F0E0F920211A4806F077FB01
:101090000121184806F0E4F901221146154806F02E
:1010A00006FB684606F061FB4FF48070ADF80C005B
:1010B0006020ADF800000120ADF802000420ADF87A
:1010C0000400284605EBD071C1F34F01ADF80610BE
:1010D0000020ADF80800ADF80A006946054806F0A2
:1010E000EFFA0021034806F037FB01205AE7000021
:1010F000C0001600002C01402DE9F04786B00546DF
:101100000F4614469846DDE90E9A35B1012D09D0F7
:10111000022D0CD0032D14D10EE00121880305F01F
:1011200081FE12E00121480405F05CFE0DE0012182
:10113000880405F057FE08E00121C80405F052FEBE
:1011400003E0002006B0BDE8F08700BF0421A14005
:10115000042202FA09F2114341F00100012105F0D5
:1011600061FE35B1012D0BD0022D10D0032D1ED103
:101170001CE0012C03D10121042003F0CBFD18E079
:10118000032C03D10121082003F0C4FD11E0022C3F
:1011900004D10121594803F0BDFD06E0032C04D120
:1011A00001215648203003F0B5FD02E001E00020A7
:1011B000C8E700BF012000FA08F080B2ADF81400C3
:1011C00018208DF8170003208DF816004C490A15D9
:1011D00002FB041005A903F011FD012000FA0AF03A
:1011E00080B2ADF8140004208DF8170044490202C3
:1011F00002FB091005A903F001FD01970020ADF8DD
:101200000800ADF80A00ADF80C00ADF810000C2095
:10121000ADF80E0035B1012D0ED0022D16D0032DE4
:1012200028D11DE001A9374807F0AAF90121354866
:1012300007F034F925261FE001A9334807F0A0F98B
:101240000121314807F02AF9262615E001A92F4887
:1012500007F096F901212D4807F020F927260BE029
:1012600001A92B4807F08CF90121294807F016F94C
:10127000342601E0002065E700BF4FF4A06003F0D2
:10128000F5FF8DF8006001208DF801008DF8020057
:101290008DF80300684603F0B1FF35B1012D0BD086
:1012A000022D10D0032D1CD114E0012240F2244164
:1012B000144807F03FF916E0012240F22551124888
:1012C00007F038F90FE0012240F225510F4807F0EE
:1012D00031F908E0012240F225510D4807F02AF9C2
:1012E00001E000202EE700BF01224021054807F061
:1012F000E1F800F0D5F9012024E700001000140007
:10130000000801400038014000440040004800400F
:10131000004C004070B504460D4624B1012C17D096
:10132000022C3FD129E001231A4629461E48FFF727
:1013300067FA01211C48FFF7C4FA00BF02211A48CE
:10134000FFF723FA0028F9D01748FFF71AFA70BD03
:1013500001231A4629461548FFF752FA012113487E
:10136000FFF7AFFA00BF02211048FFF70EFA00287E
:10137000F9D00E48FFF705FAE9E701231A46294696
:101380000B48FFF73DFA01210948FFF79AFA00BF21
:1013900002210748FFF7F9F90028F9D00448FFF7C0
:1013A000F0F9D4E70020D2E70024014000280140F2
:1013B000003C014070B504460D460122AA4091B29E
:1013C000054A131503FB042003F0ECFC08B10120CF
:1013D00070BD0020FCE700000008014070B5044625
:1013E0000D462CB1012C03D0022C01D0032C06D1C8
:1013F000A9B2A20202F1804006F0CAF908E0A9B23F
:10140000044806F0C5F9C5F34F000249343108809D
:1014100070BD0000002C014010B5044634B1012C11
:1014200009D0022C0CD0032C14D10EE00A4807F08E
:1014300013F9C0B210BD094807F00EF9C0B2F9E7C0
:10144000074807F009F9C0B2F4E7064807F004F9C5
:10145000C0B2EFE70020EDE7003801400044004053
:1014600000480040004C004070B504460D46FEF7B1
:10147000D1FE064634B1012C10D0022C1AD0032C18
:1014800030D123E029461B4807F0EBF800BF40218C
:10149000184807F018F80028F9D025E02946164822
:1014A00007F0DFF800BF8021134807F00CF8002890
:1014B000F9D019E02946114807F0D3F800BF802180
:1014C0000E4807F000F80028F9D00DE029460C4836
:1014D00007F0C7F800BF8021094806F0F4FF002894
:1014E000F9D001E0002070BD00BF3046FEF796FE47
:1014F0000120F8E700380140004400400048004067
:10150000004C004070B504460D4616460122AA4024
:1015100091B2044A131503FB0420324603F04BFC3E
:1015200070BD00000008014000BFFEE710B500F5E7
:10153000D87303EB01131B6803F004031372137ACF
:1015400053B900F5D87303EB01131B6840F2FF7425
:1015500004EA5353136009E000F5D87303EB011359
:101560001B686FF0604404EAD303536000F5D8733E
:1015700003EB01131B6803F00203537200F5D873E9
:1015800003EB01135B6803F00F03937200F5D8734C
:1015900003EB01135B681B0AD37400F5D87303EBEC
:1015A00001139B68D37200F5D87303EB01139B689A
:1015B0001C0A147300F5D87303EB01139B681C0C11
:1015C000547300F5D87303EB01139B681B0E9373E0
:1015D00000F5D87303EB0113DB68D37300F5D87300
:1015E00003EB0113DB681C0A147400F5D87303EBDA
:1015F0000113DB681C0C547400F5D87303EB011362
:10160000DB681B0E937421B9C36843F02003C360E9
:1016100003E0036943F02003036110BD2DE9F041AD
:1016200007460C4615462946204607F00EF90646A1
:1016300016B90020BDE8F08132460021384607F097
:1016400085FF0120F6E7000070B505460E4608212B
:101650000120FEF751FE04460CB9002070BD022D9A
:1016600004DB2046FEF78BFE0020F7E70B4850F81E
:10167000250030B12046FEF782FE084850F825408C
:1016800002E0064840F825402570667007F0C6FF66
:101690006060606802F052FC2046DFE78C070020A3
:1016A00000B58BB00121084605F08CFB0F48009077
:1016B0000F480190002002906420039000200490C5
:1016C0008020059000200690079008904FF400506D
:1016D000099000200A906946064800F01DF8012193
:1016E000044800F009F80BB000BD000004380140C8
:1016F000542C00205800024021B1026842F001023F
:10170000026004E002684FF6FE731A400260704700
:101710000146486880B2704710B50022026847F65B
:10172000F0739A430C6A8B6823430C6923434C691A
:1017300023438C692343CC6923434C6A23438C6A3B
:1017400023431A430260CB6843600B6883604B6895
:10175000C36010BD70470000014621B101290AD0C5
:10176000022918D10FE00E48806900F4007008B912
:101770000020704711E00A48806900F4806008B9D1
:101780000020F6E709E00648806900F4004008B947
:101790000020EEE701E00020EBE700BF0120E8E7D2
:1017A00000100240014621B101290AD0022918D1B6
:1017B0000FE00E48806900F4007008B900207047FF
:1017C00011E00A48806900F4806008B90020F6E75B
:1017D00009E00648806900F4004008B90020EEE7FF
:1017E00001E00020EBE700BF0120E8E70010024025
:1017F000002400255CE0012300221146104604F07D
:10180000E9FA002452E02B4850F8240000284BD07D
:10181000284A52F82420517C264A52F82420107C71
:10182000FFF7C8FD0546234850F824004078A84239
:101830003AD0012300221146104604F0CBFA1D4A8B
:1018400052F82420517C1B4A52F82420107CFFF7C8
:10185000B1FDA84228D1174850F824004078A8428A
:1018600022D0144850F82400407A01280CD11148A5
:1018700050F824004078A84212DA0E4951F824109A
:10188000C86803F06DFF0BE00A4850F82400407868
:10189000A84205DD074951F82410C86803F060FF2D
:1018A000044850F824004570601CC4B20A2CAADB1E
:1018B000A1E70000F02D00202DE9F05F83460E46E1
:1018C00015461F46DDF838A0DDF83090DDF8288099
:1018D0001020FEF725FD044614B90020BDE8F09F56
:1018E00084F800B0A670E570277184F805800B9825
:1018F000A07184F807900D98207284F809A011480F
:1019000003F05CFDE06029463046FFF729FA4146C6
:101910003846FFF725FA49460B98FFF721FA51465A
:101920000D98FFF71DFA0848084941F825000848B6
:1019300041F82800074841F82900074841F82A00E3
:101940002046CBE70007002065340008EC2B002080
:10195000E93400086D350008F13500082DE9F04143
:101960000546884616461F4606210120FEF7C4FCA0
:10197000044614B90020BDE8F081072D04DB2046A1
:10198000FEF7FDFC0020F6E7154850F8250030B1C1
:101990002046FEF7F4FC124850F8254002E01048BB
:1019A00040F82540A57084F80380267167710122F4
:1019B00039463046FFF74CF9E07838B900206070BE
:1019C000627861792079FFF79DFD06E00120607063
:1019D000627861792079FFF795FD2046CBE700001A
:1019E000D82C002010B50446E07838B9002060708B
:1019F000627861792079FFF785FD06E0012060704B
:101A0000627861792079FFF77DFD0220207010BD9A
:101A100010B50446E07838B90120607062786179C9
:101A20002079FFF76FFD06E0002060706278617931
:101A30002079FFF767FD0120207010BD0246D2E932
:101A4000020170472DE9F04FF9B004464FF0000B4A
:101A500000202082322104F11200FEF7FCFCD9465E
:101A60000AE009EB4900C549084400210180817062
:101A700009F1010000F0FF09B9F1320FF1DBB4F810
:101A80005000E8B9204601F075FB78AA4FF4FA71CE
:101A9000606C03F0EBFD9DF8E00120B100200146F1
:101AA00079B0BDE8F08FA17CE07C61F31F20A4F841
:101AB000500000202082322104F11200FEF7CBFCFE
:101AC000012084F84800204601F048F978AA40F641
:101AD000B831606C03F0CAFD204601F0B9FA00206D
:101AE00084F848009DF8E00110B100200146D7E7D6
:101AF0004FF00009B6E009EB4900A049085CFF2857
:101B00000BD109EB490008444078FF2805D109EBC7
:101B1000490008448078FF287DD009EB4901974AA5
:101B20001144887808F0A4FF0022954BCDE91001FC
:101B300008F096FDCDE9120109EB49018F4A525C8C
:101B400009EB49018D4B1944497862F31F2108467E
:101B500008F077FF0746DDE9122308F0C5FC14AA58
:101B600002EBCB0203C2606E09F0E2FACDE912018A
:101B7000206E09F0DDFACDE90A0114A800EBCB00D4
:101B8000D0E900733A460A9808F0C2FFCDE90E0189
:101B900014A800EBCB0000224FF08043D0E9007185
:101BA000384607F05DFFCDE90601E06D09F0C0FAA7
:101BB000CDE90401DDE9062308F0AAFFCDE90A0119
:101BC00014A800EBCB0000226E4BD0E90071384620
:101BD00007F046FFCDE90201A06D09F0A9FACDE9B1
:101BE0000001DDE9022308F093FFCDE9060114A806
:101BF00000EBCB01D1E900710022634B384607F0BE
:101C00002FFFCDE90201606D09F092FACDE90001E4
:101C1000DDE9022300E021E008F07AFFCDE90401CC
:101C2000DDE9062308F060FCCDE90801DDE90A23BF
:101C300008F05AFCCDE90C01DDE90E2308F054FC54
:101C4000CDE91001DDE9122308F04EFC14AA02EBE5
:101C5000CB0203C20BF1010000F0FF0B09F1010000
:101C600000F0FF09B9F1320FFFF645AFBBF1280FC5
:101C70006ADD4FF0000A43E014A800EBCA0000221E
:101C80001346D0E90071384608F042FE34D014A95A
:101C90000AF1010001EBC00000221346D0E90071F7
:101CA000384608F035FE27D014A90AF1010001EBEF
:101CB000C00103C9CDE9120114A800EBCA00D0E9A4
:101CC00000780B4638464146129A08F0E5FE13D2DA
:101CD00014A800EBCA0060C814A90AF1010001EBC6
:101CE000C000D0E9001014AA02EBCA02C2E9001039
:101CF00014A800EBCA0060C00AF1010000F0FF0A5E
:101D0000DA45B9DD4FF0000A0021216061604FF033
:101D10000E0915E014A800EBC901D1E90073D4E95C
:101D200000013A46CDE9120108F0DEFBC4E90001EA
:101D30000AF1010000F0FF0A09F1010000F0FF09BB
:101D4000ABF10F004845E5DCBAF1010F03DC0020E0
:101D5000206060600EE0504608F08AFECDE9120176
:101D600002460B46D4E900783846414608F078FC34
:101D7000C4E90001D4E9000192E60000CC32002061
:101D800000007040000008400000104010B50446FC
:101D90000020607062782179E078FFF7B3FB0220C1
:101DA000207010BD2DE9F04105460E46174605216D
:101DB0000120FEF7A1FA044614B90020BDE8F08125
:101DC000082D04DB2046FEF7DAFA0020F6E710487B
:101DD00050F8250030B12046FEF7D1FA0C4850F8F3
:101DE000254002E00A4840F82540A570E6702771BA
:101DF000012239463046FEF72BFF022020700020DA
:101E0000607062782179E078FFF77CFB2046D5E7A7
:101E1000F42C002010B5044601206070627821790E
:101E2000E078FFF76FFB0120207010BD70B586B021
:101E300004460D461646052231462846FEF708FFA1
:101E40002046FFF789FC10B1012006B070BD0020CC
:101E500001908DF808008DF809004FF46020039080
:101E60000020049001208DF8140024B1012C25D00D
:101E7000022C69D145E00121480204F0D3FF01A9F9
:101E80003448FEF795FC4FF4404004F08FFF0121E9
:101E90003048FEF761FC2F48FEF70EFD00BF2D48CD
:101EA000FEF77CFC0028FAD12A48FEF715FD00BF9A
:101EB0002848FEF75CFC0028FAD147E0012188029F
:101EC00004F0B0FF01A92448FEF772FC4FF4404033
:101ED00004F06CFF01212048FEF73EFC1E48FEF78F
:101EE000EBFC00BF1C48FEF759FC0028FAD11A4849
:101EF000FEF7F2FC00BF1848FEF739FC0028FAD1C3
:101F000024E00121C80304F08DFF01A91348FEF766
:101F10004FFC4FF4404004F049FF01210F48FEF709
:101F20001BFC0E48FEF7C8FC00BF0C48FEF736FC51
:101F30000028FAD10948FEF7CFFC00BF0748FEF79A
:101F400016FC0028FAD101E000207EE700BF012046
:101F50007BE700000024014000280140003C0140D4
:101F60002DE9F0410024AEE0594850F82400002843
:101F70007ED0574A52F8242092F85210544A52F810
:101F8000242092F85100FFF7C5F9514951F8241067
:101F900048604F4951F82410486808F069FD074629
:101FA0004FF066324B4B08F0B3FD054600224A4B1A
:101FB00008F056FB464A52F82420C2E90201444880
:101FC00050F82400D0E91273414850F824003A46F2
:101FD000D0E90251284608F043FB3D4A52F824203C
:101FE000C2E904013A4850F82400D0E9087338489F
:101FF00050F824003A46D0E90451284608F030FB56
:10200000334A52F82420C2E90201314850F8240032
:10201000D0E90221104607F05FFB2D4A52F8242038
:10202000C2E902012A4850F82400D0E90A7328487E
:1020300050F824003A46D0E90251284608F010FB37
:10204000234A52F82420C2E90201214850F8241002
:10205000D1E90C532A460020204908F001FB07462D
:102060001B4850F82400D0E902532A46384600E0C5
:1020700027E008F039FA164A52F82420C2E9020192
:10208000134850F82400D0E902532A46002013498F
:1020900008F0E6FA0E4A52F82420C2E902010C4880
:1020A00050F82410D1E90E7350F82410D1E90251F0
:1020B0003A46284608F052FF054A52F82420C2E961
:1020C0000201601CC4B20A2CFFF64EAFBDE8F081DD
:1020D0008C32002066661A400000B0400000F03FDD
:1020E0002DE9F04706468A4691461D46DDE9087807
:1020F00058210120FEF700F9044614B90020BDE87C
:10210000F0870A2E04DB2046FEF739F90020F6E7B7
:102110003D4850F8260030B12046FEF730F93A48E5
:1021200050F8264002E0384840F82640B9F1000F48
:1021300006D0B9F1010F0FD0B9F1020F28D119E083
:10214000002D04DB072D02DC84F8525022E02046EB
:10215000FEF715F90020D2E7002D06DB012D04DC87
:1021600005F1080084F8520014E02046FEF707F954
:102170000020C4E7002D06DB052D04DC05F10A0074
:1021800084F8520006E02046FEF7F9F80020B6E792
:102190000020B4E700BF84F8506084F851A084F8B0
:1021A000539084F85450C4E90678DDE90A01C4E983
:1021B0000801DDE90C01C4E90A01DDE90E01C4E909
:1021C0001001DDE91001C4E912014FF066310F483A
:1021D000C4E90C100E48C4E90E102A464946504680
:1021E000FFF724FE20B92046FEF7C9F8002086E755
:1021F000012020700021A160E16000206060216169
:10220000616120467BE700008C32002066A27240AC
:10221000661271402DE9FF5F04468A464FF0000BBD
:102220000020039002900190814600902068606039
:102230005146206909F056FA20602168A06808F02C
:10224000A3FFA060206808F073FF054621F000415D
:10225000052801DD0020A060A06908F069FF05469F
:1022600021F00041804609F0DFF807464FF0505159
:1022700009F006FA0ED2A06908F05AFF07463A465E
:102280000B460020244908F0EBF9054608F0FAF85F
:10229000814601E04FF000094946A06809F0F0F9D5
:1022A00002D2C4F8089009E089F000452846A168E8
:1022B00009F0E6F902D289F00040A0602168606967
:1022C00009F012F98346A168A06909F00DF903909D
:1022D000D4E9000109F006FA0546E16909F004F9BC
:1022E00002905846039908F04FFF0546029908F0FE
:1022F0004BFF01900021019809F0C2F803D800209B
:1023000004B0BDE8F09F0549019809F0B9F901D87A
:102310000248F5E70198F3E70000694000004843F0
:102320002DE9F04705460E4617469846DDF8209001
:1023300020210120FDF7E0FF044614B90020BDE88C
:10234000F087082D04DB2046FEF719F80020F6E799
:102350000E4850F8250030B12046FEF710F80B4823
:1023600050F8254002E0094840F825406573266191
:102370006761C4F81880C4F81C9001202073002005
:1023800020606060A0602046D9E70000B82C0020E3
:10239000002141600160816070472DE9F0410446F1
:1023A0000D4620680669E07E07287ED0E07E05287D
:1023B0007CD2DFE800F0032B537EAF002946304685
:1023C00009F05EF90FD2A06A002801DA0020A062AD
:1023D000A06A401CA062A06A032816DB0020A0624D
:1023E000A068804711E0A06A002801DD0020A062FB
:1023F000A06A401EA062A06A10F1030F05DC002055
:10240000A0620120E076E0688047D2E029463046AD
:1024100009F036F911D2A06A002801DA0020A06282
:10242000A06A401CA062A06A032816DB0020A062FC
:102430000220E076A06880470FE0A06A002801DD56
:102440000020A062A06A401EA062A06A10F1030FE3
:1024500003DC0020A062E0688047AAE029463046FD
:1024600009F00EF90FD2A06A002801DA0020A0625C
:10247000A06A401CA062A06A032819DB0020A062A9
:10248000A068804714E0A06A002801DD0020A06257
:10249000A06A401EA062A06A10F1030F08DC0020B1
:1024A000A0620320E076E06801E083E080E08047FE
:1024B0007FE02946304609F0E3F811D2A06A0028EF
:1024C00001DA0020A062A06A401CA062A06A032872
:1024D00016DB0020A0620420E076A06880470FE0B1
:1024E000A06A002801DD0020A062A06A401EA06250
:1024F000A06A10F1030F03DC0020A062E0688047AF
:10250000606A401C60622946E06908F0B9FF00D2A9
:10251000E5614EE02946304609F0B2F80FD2A06AD4
:10252000002801DA0020A062A06A401CA062A06A14
:10253000032833DB0020A062A06880472EE0A06A59
:10254000002801DD0020A062A06A401EA062A06AEF
:1025500010F1030F22DC0020A0620720E0760120AA
:1025600021680873606A08F077FF8046216908F0E7
:10257000BBFF074608F038FF6062D4E9070109F0A5
:10258000B1F880464FF0804108F06CFE07463A46AD
:102590002046616A06F0AAF9E0688047606A401C3C
:1025A00060622946206A09F06BF800D2256200E0DB
:1025B00000BF00BFE07EBDE8F081000070B5049C64
:1025C000016000250668357342608360C4604FF087
:1025D0007E5505610025C5768576C561034D05628A
:1025E000002585624561C825058370BD0000C8428D
:1025F00070B586B004460D4616460522314628467B
:10260000FEF726FB2046FFF7CDF810B1012006B0FB
:1026100070BD002001908DF808008DF809004FF47E
:10262000602003900020049001208DF8140024B154
:10263000012C25D0022C69D145E00121480204F08B
:10264000F1FB01A93448FEF7B3F84FF4404004F021
:10265000ADFB01213048FEF77FF82F48FEF72CF93B
:1026600000BF2D48FEF79AF80028FAD12A48FEF755
:1026700033F900BF2848FEF77AF80028FAD147E07E
:102680000121880204F0CEFB01A92448FEF790F84E
:102690004FF4404004F08AFB01212048FEF75CF82B
:1026A0001E48FEF709F900BF1C48FEF777F800281E
:1026B000FAD11A48FEF710F900BF1848FEF757F88C
:1026C0000028FAD124E00121C80304F0ABFB01A9E2
:1026D0001348FEF76DF84FF4404004F067FB01210A
:1026E0000F48FEF739F80E48FEF7E6F800BF0C4831
:1026F000FEF754F80028FAD10948FEF7EDF800BFBC
:102700000748FEF734F80028FAD101E000207EE700
:1027100000BF01207BE700000024014000280140A9
:10272000003C01402DE9FC474FF0000A4EE02A48EA
:1027300050F82A000078012844D1274A52F82A206C
:10274000117C254A52F82A20D07BFEF7E3FD04468F
:1027500008F082FE204951F82A1048601E4951F8BD
:102760002A10486808F0E4FC06464FF066321B4B1E
:1027700008F0CEF904460022194B07F071FF80469D
:102780000022184B07F06CFFCDE9000107F07AFE3C
:10279000114951F82A1048600F4951F82A108889C8
:1027A00008F05AFE05460C4951F82A104868294697
:1027B00008F058FD04460C4908F096FE064951F809
:1027C0002A1088600AF1010000F0FF0ABAF1060F32
:1027D000ADDBBDE8FC870000B432002066660A402D
:1027E0000000B0400000494000007A4410B50446A3
:1027F000002060706278A17C607CFEF783FE02207E
:10280000207010BD2DE9F05F06460F4690469946B0
:10281000DDE90B5BDDF828A018210120FDF76CFD38
:10282000044614B90020BDE8F09F062E04DB2046C4
:10283000FDF7A5FD0020F6E7334850F8260030B13B
:102840002046FDF79CFD304850F8264002E02E4817
:1028500040F82640BAF1000F06D0BAF1010F0ED0B1
:10286000BAF1020F25D117E0002D03DB072D01DCA3
:10287000257420E02046FDF782FD0020D3E7002DDF
:1028800005DB012D03DC05F10800207413E0204670
:10289000FDF775FD0020C6E7002D05DB052D03DCE7
:1028A00005F10A00207406E02046FDF768FD0020CF
:1028B000B9E70020B7E700BFA67384F80F90A4F82B
:1028C0000CB0677484F8128084F813A025752A462A
:1028D00051464846FFF78CFE20B92046FDF74FFDD4
:1028E0000020A0E7012241463846FEF7B1F9022058
:1028F000207000206060A06060706278A17C607CC5
:10290000FEF700FE20468EE7B4320020014608782C
:10291000012800D170470020FCE710B504460120D3
:1029200060706278A17C607CFEF7ECFD0120207075
:1029300010BD10B504460021204606F0B7F800216E
:10294000204606F0C2F80521204600F01AF80121C1
:10295000204606F0ABF80521204600F012F80021D1
:10296000204606F0A3F80521204600F00AF80121D0
:10297000204606F0AAF80521204600F002F80120C2
:1029800010BD10B50246002307E0108983B200BFD6
:10299000181EA3F10104A3B2FAD1081EA1F101048B
:1029A000A1B2F2D1012010BD10B50446002120468D
:1029B00006F07CF80021204606F087F80521204625
:1029C000FFF7DFFF0121204606F07FF805212046B2
:1029D000FFF7D7FF0121204606F068F805212046C1
:1029E000FFF7CFFF0021204606F060F805212046C2
:1029F000FFF7C7FF0021204606F067F805212046B3
:102A0000FFF7BFFF012010BD70B50646002500246A
:102A100017E00021304606F049F805213046FFF75F
:102A2000B0FF0121304606F041F8304606F036F896
:102A300040EA4500C5B205213046FFF7A2FF601C01
:102A4000C4B2082CE5DB284670BD70B506460C46BE
:102A50000021304606F02AF800251EE0E00920B1EA
:102A60000121304606F031F803E00021304606F03F
:102A70002CF86006040E05213046FFF782FF012185
:102A8000304606F013F805213046FFF77AFF0021A3
:102A9000304606F00BF8681CC5B2082DDEDB0120BD
:102AA00070BD10B504460121204606F00EF8012144
:102AB000204605F0FBFF05212046FFF762FF0021BD
:102AC000204606F002F805212046FFF75AFF0021B4
:102AD000204605F0EBFF012010BD10B50446002193
:102AE000204605F0E3FF0021204605F0EEFF05211A
:102AF0002046FFF746FF0121204605F0D7FF0521BC
:102B00002046FFF73EFF0121204605F0DEFF4CF294
:102B100050312046FFF735FF012010BD70B5054646
:102B200000240121284605F0D0FF05212846FFF7A3
:102B300028FF0121284605F0B9FF05212846FFF7A7
:102B400020FF05E0601C84B2FA2C01DD002070BD7E
:102B5000284605F0A3FF0028F4D10021284605F0FF
:102B6000A5FF0120F3E700002DE9F04705460F46D9
:102B700090461E46DDF8209014210120FDF7BCFB95
:102B8000044614B90020BDE8F0870A2D04DB204676
:102B9000FDF7F5FB0020F6E7144850F8250030B1AA
:102BA0002046FDF7ECFB114850F8254002E00F48A5
:102BB00040F8254025726772A4F80A80E06818B9C9
:102BC000002002F029FDE060267484F811900022B4
:102BD00049463046FEF73CF8012020706070002026
:102BE000A070A080A071E0712046CCE7F02D0020FD
:102BF0002DE9FC5F06460F4690469946DDE90CAB91
:102C0000002578210120FDF777FB044614B9002048
:102C1000BDE8FC9F022E04DB2046FDF7B0FB002040
:102C2000F6E7344850F8260030B12046FDF7A7FB00
:102C3000304850F8264002E02E4840F8264004F87C
:102C4000696F6770C4F8038084F8079084F808A05F
:102C500084F809B00E98A072A07A617ACDE90010CC
:102C6000237AE279D4F803106078FEF745FA6078A9
:102C7000693C28B9204894F86A10204A42F821009B
:102C800094F86A00012805D11D4894F86A101B4A7F
:102C900042F82100002002F0BFFC6067002504E03C
:102CA0000021601C4155681CC5B2642DF8DB00256D
:102CB00015E005EBC50101EB0511124A02EB81009D
:102CC0006421FDF7C8FB05EBC50101EB05110E4AB8
:102CD00002EB81006421FDF7BEFB681CC5B2052D27
:102CE000E7DB002084F86800204600F031F8204639
:102CF0008EE70000DC060020558B0008442C0020E5
:102D0000F58B0008A42E0020983000202DE9F0411A
:102D1000044660790830C6B20025FDF77BFA074605
:102D200000BF08E0615D094A126892F86A00FEF788
:102D30009BFB681CC5B2B542F4DB3846FDF76EFA62
:102D400031462046FDF787FBBDE8F081D80600201C
:102D50000021A0F8661001210170704710B50446EB
:102D60000B4A117814F8530FFEF77EFB084A51788E
:102D70002078FEF779FB064A91782078FEF774FBFD
:102D8000034AD17814F85309FEF76EFB10BD00001A
:102D9000E406002010B5AB49096891F85300FEF72E
:102DA0003BFB0446A7480068008A00F40040002866
:102DB0007ED0A4480068008A00F48040002878D0C3
:102DC000A0480068B0F850000A2878DA9D480068EA
:102DD00090F84800012822D19A4800681230994999
:102DE0000968098AC1F30D01445496480068008AB5
:102DF000401C94490968088292480068007C0228B7
:102E00000CDB90480068008AC0F30D008D4909680A
:102E100008828C490968486C02F0A2FC10E18948DC
:102E2000006890F84800022822D1864800681230D5
:102E300084490968098AC1F30D0144548148006836
:102E4000008A401C7F49096808827E480068007C2F
:102E50000228E3DB7B480068008AC0F30D00794953
:102E60000968088277490968486C02F079FCE7E054
:102E700074480068123073490968098AC1F30D016A
:102E8000445470480068008A401C6E4909680882F2
:102E90006C480068007C0228C0DB6A480068008A31
:102EA000C0F30D006749096808826649096802E0B5
:102EB0009AE064E003E0486C02F052FCC0E0614834
:102EC000006890F84800012836D15E48006812304A
:102ED0005C490968098AC1F30D01445459480068E6
:102EE000008A401C57490968088256480068007CDF
:102EF000032893DB5448007800EB40005349084412
:102F0000504909684A8A0280097D81704E480078DC
:102F1000401C4D49087008460078322807D14949BD
:102F20000968486C02F01CFC00204749087000202A
:102F300044490968088283E04248006812304149E8
:102F40000968098AC1F30D0144543E480068008AAB
:102F5000401C3C49096808823A480068007C022805
:102F60006EDB38480068008AC0F30D0035490968F7
:102F7000088234490968486C02F0F2FB60E0FF2CDB
:102F80000ED13048006890F84800012808D12D483B
:102F90000068008A40F480402A49096808824FE0AE
:102FA000572C05D12748006890F84800022807D020
:102FB000562C0ED12348006890F84800022808D10A
:102FC00020480068008A40F480401E490968088251
:102FD00036E0032C34D11B480068008A40F480405E
:102FE0001849096808822BE0FE2C0ED115480068AC
:102FF00090F84800012808D112480068008A40F47F
:1030000000401049096808821AE0FC2C0ED10D48D6
:10301000006890F84800022808D10A480068008A31
:1030200040F4004007490968088209E0FC2C07D1F8
:1030300004480068008A40F4004002490968088298
:1030400010BD0000F4060020F8060020CC3200205D
:1030500010B504460B4A117814F8530FFEF704FA22
:10306000084A51782078FEF7FFF9064A91782078CF
:10307000FEF7FAF9034AD17814F85309FEF7F4F988
:1030800010BD0000E80600202DE9FC5F05468946DA
:1030900016469846DDE90CAB70210120FDF72CF9AE
:1030A000044614B90020BDE8FC9F012D04DB204636
:1030B000FDF765F90020F6E72A4850F8250030B101
:1030C0002046FDF75CF9274850F8254002E02548E6
:1030D00040F825404C34A571C4F80090E67184F89E
:1030E0001C8084F81DA084F81EB00E98E0770F981D
:1030F000A0604C3C1098A0651198E065129820667D
:10310000139860660E98534642464946CDE900B092
:103110003046FDF7F1FF1448144941F8260000211C
:1031200021606160A160E16000202082A4F850006D
:10313000322104F11200FDF78EF9002084F84800D6
:1031400002F06AFA6064002708E007EB47000849CC
:103150000844002101808170781CC7B2322FF4DB53
:103160002046A0E7F4060020952D0008442C0020FE
:10317000CC32002010B50446064A117894F853006A
:10318000FEF772F9034A517894F85300FEF76CF990
:1031900010BD0000EC06002010B5012000F004F97D
:1031A00040B1012000F0FAF80348006810B102496C
:1031B0000868804710BD0000EC2B002010B54FF4CC
:1031C000806000F0F1F848B14FF4806000F0E6F85C
:1031D0002848806A10B12749886A80474FF4006008
:1031E00000F0E2F848B14FF4006000F0D7F8214851
:1031F000C06A10B11F49C86A80474FF4805000F080
:10320000D3F848B14FF4805000F0C8F81948006B6B
:1032100010B11849086B80474FF4005000F0C4F813
:1032200048B14FF4005000F0B9F81248406B10B1AB
:103230001049486B80474FF4804000F0B5F848B122
:103240004FF4804000F0AAF80A48806B10B1094999
:10325000886B80474FF4004000F0A6F848B14FF467
:10326000004000F09BF80348C06B10B10149C86BE7
:10327000804710BDEC2B002010B5022000F094F820
:1032800040B1022000F08AF80348406810B10249BA
:103290004868804710BD0000EC2B002010B50420CA
:1032A00000F082F840B1042000F078F8034880680C
:1032B00010B102498868804710BD0000EC2B002047
:1032C00010B5082000F070F840B1082000F066F852
:1032D0000348C06810B10249C868804710BD0000AB
:1032E000EC2B002010B5102000F05EF840B110204B
:1032F00000F054F80348006910B10249086980479A
:1033000010BD0000EC2B002010B5202000F04CF880
:1033100040B1202000F042F81F48406910B11E491A
:1033200048698047402000F03FF840B1402000F05D
:1033300035F81948806910B117498869804780209D
:1033400000F032F840B1802000F028F81248C0693F
:1033500010B11149C86980474FF4807000F024F81B
:1033600048B14FF4807000F019F80B48006A10B1B2
:103370000949086A80474FF4007000F015F848B119
:103380004FF4007000F00AF80348406A10B1024997
:10339000486A804710BD0000EC2B002001490860FE
:1033A0007047000014040140014600200022074B32
:1033B0001B6803EA0102054B14331B680B4013B171
:1033C0000AB1012000E00020704700000004014025
:1033D000002123498279002A3AD00A4612680368FC
:1033E0009A430B461A600A1D126803689A430B1D24
:1033F0001A60027911440A6803681A430A60184A7D
:103400000832126803689A43154B08331A601A1D74
:10341000126803689A43124B0C331A604279102ADF
:103420000ED11A1F126803681A430D4B08331A6035
:103430001A1D126803681A43094B0C331A600DE019
:103440000749427911440A6803681A430A6005E093
:10345000027911440A6803689A430A6070470000C1
:103460000004014010B51D4A1268D1781B4A126849
:103470009078FDF79FFF90B91948007818B905209A
:103480001749087028E0164800781E2803D1232029
:103490001349087020E00020114908701CE0104812
:1034A00000780A2803D10F200D49087014E00C4859
:1034B000007828280DD100200A4908704870074973
:1034C0000968C868074902F029F800200449087013
:1034D00002E000200249087010BD0000FC06002038
:1034E000020700200007002010B51D4A126851791C
:1034F0001B4A12681079FDF75DFF90B119480078FA
:1035000018B91E201749087029E0164800780528C8
:1035100003D10A201349087021E0002011490870E6
:103520001DE010480078232803D128200D49087099
:1035300015E00C4800780F280ED100200A490870C9
:103540000120487006490968C868074901F0E6FF8C
:1035500000200449087002E000200249087010BDF4
:10356000FC060020020700200007002010B51D4ABD
:103570001268D1781B4A12689078FDF71BFF90B94A
:103580001948007818B905201749087029E016482D
:1035900000781E2803D123201349087021E0002061
:1035A000114908701DE0104800780A2803D10F2047
:1035B0000D49087015E00C48007828280ED101202C
:1035C0000A4908700020487006490968C868074918
:1035D00001F0A4FF00200449087002E00020024925
:1035E000087010BDFC060020030700200007002023
:1035F00010B51D4A126851791B4A12681079FDF7FF
:10360000D9FE90B91948007818B91E2017490870DA
:1036100028E016480078052803D10A2013490870CD
:1036200020E00020114908701CE010480078232891
:1036300003D128200D49087014E00C4800780F28A9
:103640000DD101200A490870487007490968C86807
:10365000074901F063FF00200449087002E00020E0
:103660000249087010BD0000FC060020030700207E
:10367000000700202DE9F05F07460025B94609F153
:1036800008040420FCF74CFE80460420FCF748FEAA
:103690000646D9F800B0B4F800A0A8F800A04FF68C
:1036A000027030800420B070A078F070A0780528F7
:1036B0002CDCA07805280FDAE07830B1A178224A16
:1036C00052F82100FEF7A4F92FE0A1781E4A52F823
:1036D0002100FEF787F928E0E07858B1002506E0E0
:1036E000194951F82500FEF793F9681CC5B2052D5C
:1036F000F6DB1AE0002506E0134951F82500FEF735
:1037000071F9681CC5B2052DF6DB0EE033460422C4
:103710005146584605F0A8FB3046FCF730FE4046BF
:10372000FCF72DFE0020BDE8F09F434604225146E1
:10373000584605F03DFB3046FCF721FE4046FCF7BD
:103740001EFE0120EFE70000643300202DE9F05F4A
:1037500007460024B94609F108050420FCF7E0FDFE
:1037600080460420FCF7DCFD0646D9F800B0B5F829
:1037700000A0A8F800A04FF6027030800520B070BD
:10378000A878F070A87804283BDCA878042814DA1C
:10379000E87858B1A978294A52F82100FFF7BDF816
:1037A000274951F82400FEF733F939E0A978234A74
:1037B00052F82100FFF71AF832E0E87880B10024CF
:1037C0000BE01E4951F82400FFF7A7F81C4951F8F7
:1037D0002400FEF71DF9601CC4B2042CF1DB1FE0CD
:1037E00000240BE0154951F82400FEF7FFFF1449AF
:1037F00051F82400FEF7F6F8601CC4B2042CF1DB8B
:103800000EE0334604225146584605F02DFB304663
:10381000FCF7B5FD4046FCF7B2FD0020BDE8F09F87
:10382000434604225146584605F0C2FA3046FCF79A
:10383000A6FD4046FCF7A3FD0120EFE784330020FE
:10384000643300202DE9F05F07460025B94609F1F1
:1038500008040420FCF764FD80460420FCF760FDAA
:103860000646D9F800B0B4F800A0A8F800A04FF6BA
:10387000027030800620B070A078F070A078022826
:103880002CDCA07802280FDAE07830B1A178224A47
:1038900052F82100FEF7BEFA2FE0A1781E4A52F836
:1038A0002100FEF773FA28E0E07858B1002506E021
:1038B000194951F82500FEF7ADFA681CC5B2042D70
:1038C000F6DB1AE0002506E0134951F82500FEF763
:1038D0005DFA681CC5B2042DF6DB0EE03346042207
:1038E0005146584605F0C0FA3046FCF748FD4046C0
:1038F000FCF745FD0020BDE8F09F434604225146F9
:10390000584605F055FA3046FCF739FD4046FCF7BD
:1039100036FD0120EFE700000C0700202DE9FF5FD6
:103920008146CA460AF108040420FCF7F9FC064661
:103930000420FCF7F5FC07460420FCF7F1FC804668
:10394000DAF800B0208803900420029060884D4986
:103950000880608807F080FD0190002003464A4AF5
:1039600000900199FEF7DCFC48490860608807F088
:1039700073FD019000200346434A00900120019905
:10398000FEF7CEFC4149C862608807F065FD0190F2
:10399000002003463C4A009002200199FEF7C0FC3B
:1039A0003A498865608807F057FD0190002003467A
:1039B000354A009003200199FEF7B2FC3349C1F863
:1039C0008400002517E03248324B009053F8252040
:1039D00005EB450303EBC503DFF8B0C05CF823102B
:1039E00005EB450303EBC5030CEB83002A4BFEF705
:1039F000E5FD681CC5B2042DE5DB20883080002081
:103A0000B0700021F17033465846DDE9022105F01F
:103A1000CFF9C82300221146104602F0DBF941F22B
:103A20000900A8F80000002088F8020088F80300C8
:103A30001A4A1268517C194A1268107CFDF7BAFCC8
:103A400068B14FF60F7038800720B8700220F87008
:103A50003B4604220021084605F0F2F805E0434603
:103A600004220021084605F047F93046FCF787FCA0
:103A70004046FCF784FC3846FCF781FC012004B08A
:103A8000BDE8F09F480700200000C842F033002046
:103A900085900008843300204D9000081407002012
:103AA0002DE9F04705462F4607F108093820FCF7B5
:103AB00037FC04462CB92046FCF761FC0020BDE829
:103AC000F087D7F80080B9F80060268020220AA18C
:103AD000A01CFCF77BFC16220DA104F12200FCF7D0
:103AE00075FC234638223146404605F061F92046F0
:103AF000FCF745FC0120E2E74D61792032312032AC
:103B00003032322031303A34313A32300000000065
:103B100056312E302E302E30000000002DE9F047B7
:103B20000646B04608F108040420FCF7F9FB0746F6
:103B30000420FCF7F5FB0546D8F800A0B4F8009087
:103B4000A7F800904FF6027028800A20A870A0788D
:103B5000E8706088032843DA608820B1012811D01A
:103B600002282DD11DE02C49486801F071F92A493D
:103B7000886801F06DF96188274A52F8210001F048
:103B80007DF92CE02449086801F062F9224988682F
:103B900001F05EF96188204A52F8210001F06EF9C7
:103BA0001DE01D49086801F053F91B49486801F000
:103BB0004FF96188184A52F8210001F05FF90EE0D0
:103BC0002B4604224946504605F04EF92846FCF79C
:103BD000D6FB3846FCF7D3FB0020BDE8F0870DE0AC
:103BE0002B4604224946504605F03EF92846FCF78C
:103BF000C6FB3846FCF7C3FB0020EEE73B46042239
:103C00004946504605F0D4F82846FCF7B8FB38463C
:103C1000FCF7B5FB0120E0E7AC3300202DE9F047CD
:103C20000746B84608F108040420FCF779FB05466E
:103C30000420FCF775FB0646D8F800A0B4F8009005
:103C4000A5F800904FF6027030800720B070A07881
:103C5000F070608802280EDCA078A8706288144B8F
:103C600053F82220517C628853F82220107CFDF703
:103C7000A1FBE8700EE0334604224946504605F0A9
:103C8000F3F83046FCF77BFB2846FCF778FB002076
:103C9000BDE8F0872B4604224946504605F088F8D7
:103CA0003046FCF76CFB2846FCF769FB0120EFE788
:103CB000140700202DE9F05F07460025B94609F1F9
:103CC00008040420FCF72CFB80460420FCF728FBAA
:103CD0000646D9F800B0B4F800A0A8F800A04FF646
:103CE000027030800120B070A078F070A0780328B6
:103CF0002CDCA07803280FDAE07830B1A178224AD2
:103D000052F8210003F041F82FE0A1781E4A52F842
:103D1000210003F042F828E0E07858B1002506E0E1
:103D2000194951F8250003F030F8681CC5B2032D7D
:103D3000F6DB1AE0002506E0134951F8250003F0F0
:103D40002CF8681CC5B2032DF6DB0EE033460422C6
:103D50005146584605F088F83046FCF710FB4046BF
:103D6000FCF70DFB0020BDE8F09F434604225146BE
:103D7000584605F01DF83046FCF701FB4046FCF7BD
:103D8000FEFA0120EFE70000783300202DE9F0472C
:103D90000446264606F108070420FCF7C1FA05464A
:103DA000D6F80090B7F80080A5F8008078880F4911
:103DB00008800846008800010D4991FBF0F01FFAC9
:103DC00080FA0C490968096D5246886C012102F09D
:103DD000A8FE2B4604224146484604F0E9FF284647
:103DE000FCF7CDFA0120BDE8F08700003E07002077
:103DF00000127A00040700202DE9FE4F8146CA46D2
:103E00000AF108040820FCF78BFA06460420FCF7A8
:103E100087FA0546DAF800000290B4F800B0A6F878
:103E200000B04FF602702880608810B90920A87091
:103E300001E00820A870A078E8706088062812DCED
:103E4000608870806088164901EBC0000022154B25
:103E5000D0E90071384606F05BFECDE9000106F0BE
:103E6000C3FD70600EE02B4604225946029804F010
:103E7000FBFF2846FCF783FA3046FCF780FA002067
:103E8000BDE8FE8F334608225946029804F090FFA1
:103E90002846FCF774FA3046FCF771FA0120EFE788
:103EA000B8330020000059402DE9F0470546A946E7
:103EB00009F108060420FCF733FA07460420FCF752
:103EC0002FFA0446D9F800A0B6F80080A7F80080C1
:103ED0004FF6027020800320A070B078E070B078B8
:103EE00002280BDAF07820B11348006804F060FC77
:103EF00013E01148006804F0DBFB0EE023460422C7
:103F00004146504604F0B0FF2046FCF738FA3846E8
:103F1000FCF735FA0020BDE8F0873B460422414615
:103F2000504604F045FF2046FCF729FA3846FCF7D6
:103F300026FA0120EFE700000807002010B504462C
:103F4000204600F0B1F810BD2DE9F05F05462F4680
:103F500007F108090C20FCF7E3F904460026D7F81E
:103F600000A0B9F80080A4F80080FEF7DBFB00BFDA
:103F70000FE0114951F826108868104907F0B4FA8B
:103F8000834607F031FA81B2A01C20F81610701C8D
:103F9000C6B2042EEDDB0020A0720021E1722346A0
:103FA0000C224146504604F003FF2046FCF7E7F997
:103FB0000120BDE8F09F0000843300200000C842CB
:103FC0002DE9F0470446264606F108070420FCF7D1
:103FD000A7F90546D6F80080B7F800901348007896
:103FE000022815D00220114908701149886802F092
:103FF000D4FE0F49086802F0D0FE0D49486802F06F
:10400000C4FE0C48006804F0D3FB00200A49487045
:10401000388828802B4604224946404604F0C8FED2
:104020002846FCF7ACF90120BDE8F087880700209E
:1040300078330020080700204C0700202DE9F047C6
:104040000446264606F108070420FCF769F90546F0
:10405000D6F80080B7F800901048007801280ED0FC
:1040600001200E4908700E49486802F096FE0D487E
:10407000006804F01DFB0A49086802F086FE3888D3
:1040800028802B4604224946404604F091FE2846EB
:10409000FCF775F90120BDE8F087000088070020D3
:1040A000783300200807002010B5044600F0ACF873
:1040B0002D4A01212046FDF7B1FA2C4A0221204663
:1040C000FDF7ACFA2A4A03212046FDF7A7FA294A50
:1040D00005212046FDF7A2FA274A04212046FDF7D4
:1040E0009DFA264A06212046FDF798FA244A072120
:1040F0002046FDF793FA234A08212046FDF78EFA61
:10410000214A09212046FDF789FA204A0A21204642
:10411000FDF784FA1E4A0C212046FDF77FFA1D4A5E
:104120000B212046FDF77AFA1B4A11212046FDF7A4
:1041300075FA1A4A12212046FDF770FA184A13211F
:104140002046FDF76BFA174A14212046FDF766FA60
:10415000154A15212046FDF761FA144A162120461A
:10416000FDF75CFA012010BD1D390008B53C0008C0
:104170008D3D000875360008A93E00084D3700083F
:10418000453800081D3C0008F93D00081D3B0008AB
:10419000A13A0008BD4A0008954800083D400008C3
:1041A000C13F0008B1410008654A0008493F0008C6
:1041B0002DE9F04705462F4607F108060420FCF7D5
:1041C000AFF80446D7F80090B6F80080A4F8008055
:1041D0000020A0700021E170708818B10120094909
:1041E000087002E000200749087023460422414677
:1041F000484604F0DDFD2046FCF7C1F80120BDE88B
:10420000F08700003C07002000B599B0002018900E
:10421000052001230622194600900020FCF762FBCE
:10422000FE490860002001F0F7F9FD490860002010
:1042300001F0F2F9FB490860FB4A1421F7480068D5
:10424000FCF731FC1898112805D1F74A1421F348DE
:104250000068FCF7CBFB092004210722CDE91312EB
:10426000CDE91510082010220723CDE90F32CDE942
:104270000B32CDE90D32CDE9111010460122079223
:10428000CDE908230A9000200522CDE9042001464B
:104290000690E648CDE902100020E449E44AE54BE7
:1042A000CDE90001022100F085FEE349086001220A
:1042B0000A210420FCF7CCFC01220A210420FDF78E
:1042C00021F9002208210420FDF71CF90022072112
:1042D0000420FDF717F9D848006810B9002019B07C
:1042E00000BD07200223002211460090104604F072
:1042F00011FAD24908600846006808B90020EEE7C4
:10430000CE48006804F0D4F91020072108220223C7
:10431000CDE90232CDE904100520642142F2107388
:104320000022CDE900101146104602F0C3FCC4493A
:1043300008601020072109220223CDE90232CDE9CD
:1043400004100520642142F210730022CDE9001010
:104350001146012002F0AEFCB94948601020072147
:1043600001220323CDE90232CDE9041005206421A6
:1043700042F210730022CDE900101146022002F033
:1043800099FCAF4988600020179011E0AC4917985C
:1043900051F8200008B90020A1E7A949179851F861
:1043A0002000169002F0F9FC1798401CC0B217903C
:1043B00017980328EADB0723032200210846FDF7AC
:1043C000CDFAA04908600623032200210120FDF751
:1043D000C5FA9C4948600523032200210220FDF70D
:1043E000BDFA984988600423032200211046FDF796
:1043F000B5FA9449C86003231A4600210420FDF74A
:10440000ADFA904908610020179011E08D49179886
:1044100051F8200008B9002061E78A49179851F83F
:1044200020001690FDF7DEFA1798401CC0B21790D6
:1044300017980528EADB834800691690FDF7E8FA2B
:104440000A20002101220B46CDE9002102900F2213
:1044500004210020FEF7D6F97B4908600A200621D6
:1044600000221346CDE9002102900E2204210120F2
:10447000FEF7C8F9744948600A2004210022134657
:10448000CDE9002102900D220220FEF7BBF96E4912
:1044900088600A20022100221346CDE90021029003
:1044A0000C2204210320FEF7ADF96749C860002003
:1044B000179011E06449179851F8200008B90020BE
:1044C0000DE76149179851F820001690FEF78EF914
:1044D0001798401CC0B2179017980428EADB0A22EC
:1044E00002210020FDF75EFC584908600B220221E2
:1044F0000120FDF757FC554948600020179011E056
:104500005249179851F8200008B90020E7E64F49B2
:10451000179851F820001690FDF738FC1798401CAA
:10452000C0B2179017980228EADB49484949CDE9FB
:10453000080141424848CDE9061000214748CDE92D
:1045400004104748CDE902100846454905230222D8
:10455000CDE9000100210846FDF7C2FD4149086090
:104560003B493C48CDE9081048423B49CDE90601AA
:1045700000213A48CDE9041008463949CDE9020145
:104580000021374804230222CDE900100120FDF765
:10459000A7FD344948602E492E48CDE9081049420C
:1045A0002D48CDE9061000202C49CDE90401014633
:1045B0002B48CDE902100020294903230222CDE92E
:1045C000000101461046FDF78BFD26498860204812
:1045D0002049CDE9080141421F48CDE906100020DD
:1045E0001E49CDE9040101461D48CDE90210002015
:1045F0001B4902231A46CDE9000101460320FDF7BD
:104600006FFD1849C86012491248CDE908104942A7
:104610001148CDE906100021104825E028070020A8
:104620003407002038070020700700200080764003
:10463000CDCCCCCCCCCCFC3F04070020080700201C
:104640007833002064330020843300200C070020DE
:104650009A9999999999B93F66660A4000D6AA40F5
:104660000000244094330020CDE904107848CDE9BF
:1046700002100846764901230222CDE900010021FB
:104680000420FDF72DFD7349086173497348CDE996
:10469000081048427249CDE9060100217148CDE970
:1046A00004106B48CDE90210084669490023022234
:1046B000CDE9000119460520FDF712FD6549486165
:1046C000002017900AE06349179851F8200008B9B4
:1046D000002004E61798401CC0B2179017980628CF
:1046E000F1DB072001230A22194600900020FEF783
:1046F0003BFA5D490860082001230A221946009010
:104700001846FEF731FA58494860002017900AE031
:104710005549179851F8200008B90020DFE517988F
:10472000401CC0B2179017980228F1DB4F4840692F
:104730004E4909694D4AD2684C4B9B68CDE9043219
:10474000CDE90610494840680B2301210A22CDE932
:104750000113009203900B4602224FF461410020A6
:10476000FEF792FC424908600846006808B900203C
:10477000B5E50F2003230A22002100900420FEF754
:10478000F3F93C4908600A2003210B22CDE901120C
:10479000CDE903100D200B460E2200900020FDF7FE
:1047A0008BF8354908600C2003230A220021009071
:1047B0000720FEF7D9F92F494860002017900AE03A
:1047C0002C49179851F8200008B9002087E5179860
:1047D000401CC0B2179017980228F1DB082303226F
:1047E0000021012000F0EEFA244908600923032289
:1047F0000021022000F0E6FA20494860002303224D
:104800001946104600F0DEFA1C4988600020179017
:104810000AE01A49179851F8200008B900205EE50F
:104820001798401CC0B2179017980328F1DB134863
:104830004068169000F022FB1148124908601248A7
:104840004860124888601248C860012047E50000AF
:1048500000002440943300209A9999999999B93F7E
:1048600066660A4000D6AA401407002070070020A0
:104870001C07002020070020FC060020AC3300208D
:10488000E17000080835002045710008B17100088A
:104890001D7200082DE9FE4F0546AA460AF10804DC
:1048A0000420FBF73DFD81460420FBF739FD064659
:1048B000DAF800000290B4F800B0A9F800B04FF6A2
:1048C000027030800B20B0700020F070A078E8B14A
:1048D0006048807820715F484078E0705D4880884B
:1048E000E0805C488068A0605A48C07860712346C8
:1048F0000C225946029804F05BFA3046FBF73FFD64
:104900004846FBF73CFD0120BDE8FE8F20790128D9
:1049100066D120794F498870E0784870E0888880B7
:104920000846808808B1002088804A49A0688860CD
:104930006079C870A06806F09BF80022464BCDE96C
:10494000000105F08DFE074605F09CFD434909680E
:104950000861A06806F08CF800223F4BCDE9000109
:1049600005F07EFE074605F08DFD3C49C96A0861E9
:10497000A06806F07DF80022374BCDE9000105F074
:104980006FFE074605F07EFD3449896D0861A06819
:1049900006F06EF80022304BCDE9000105F060FE14
:1049A000074605F06FFD2D49D1F8841008612B49A9
:1049B0000868FDF7EDFC2949C86AFDF7E9FC2749BD
:1049C000886DFDF7E5FC2549D1F88400FDF7E0FC92
:1049D000E07800282FD104F019FB04F0FDFA2AE05A
:1049E00000201C494870062088804FF4966088603B
:1049F0001B481A49096808611849C96A08611749BA
:104A0000896D08611549D1F8841008611349086857
:104A1000FDF7BEFC1149C86AFDF7BAFC0F49886D65
:104A2000FDF7B6FC0D49D1F88400FDF7B1FC04F0A8
:104A3000EDFA04F0D1FA4B4604225946029804F0EC
:104A4000B7F93046FBF79BFC4846FBF798FC012082
:104A50005AE700004C07002000005940F0330020C6
:104A6000000040412DE9F04705462F4607F10806B2
:104A70000420FBF755FC0446D7F80090B6F80080F8
:104A8000A4F800800020A0700021E170708818B1A7
:104A900001200949087002E00020074908702346F8
:104AA00004224146484604F083F92046FBF767FCA0
:104AB0000120BDE8F0870000440700202DE9F04701
:104AC00005462F4607F108040420FBF729FC06469B
:104AD000D7F80090B4F80080A6F80080608820B372
:104AE0003349486804F09EFA60603149886804F0F0
:104AF00099FAA0602E49C86804F094FAE0602C4945
:104B0000086904F08FFA20612949486904F08AFA9B
:104B10006061234618224146484604F049F9304670
:104B2000FBF72DFC0120BDE8F087606804F0F4FA83
:104B30001F494860A06804F0EFFA1D498860E068EA
:104B400004F0EAFA1A49C860206904F0E5FA184945
:104B50000861606904F0E0FA154948610846406858
:104B600014490968486512488168124800688165DF
:104B70000F48C1680F480068C1650D4801690D48BC
:104B8000006801660A4841690A4800684166084AA7
:104B9000142109480068FBF786FF3346042241468A
:104BA000484604F005F93046FBF7E9FB0120BAE777
:104BB000700700201C0700202807002030B50022C5
:104BC0008B071C0F0F2303FA04F20B4B8C1053F8C6
:104BD00024309343084C8D1044F8253023468C1024
:104BE00053F824308C07240F00FA04F42343024CBA
:104BF0008D1044F8253030BD080001402DE9F0410A
:104C0000024600250026002000230024002791F8FA
:104C100003C00CF00F0591F803C00CF0100CBCF1B0
:104C2000000F03D091F802C04CEA050591F800C0CE
:104C3000BCF1000F31D0146800202BE04FF0010CC4
:104C40000CFA00F3B1F800C00CEA03069E4220D132
:104C500083004FF00F0C0CFA03F7BC4305FA03FC7A
:104C60004CEA040491F803C0BCF1280F06D14FF0C0
:104C7000010C0CFA00FCC2F814C00AE091F803C061
:104C8000BCF1480F05D14FF0010C0CFA00FCC2F842
:104C900010C0401C0828D1D31460B1F800C0BCF18A
:104CA000FF0F34DD546800202EE000F1080C4FF0B7
:104CB000010808FA0CF3B1F800C00CEA03069E42A2
:104CC00021D183004FF00F0C0CFA03F7BC4305FA17
:104CD00003FC4CEA040491F803C0BCF1280F05D191
:104CE00000F1080C08FA0CF8C2F8148091F803C01F
:104CF000BCF1480F07D100F1080C4FF0010808FA89
:104D00000CF8C2F81080401C0828CED35460BDE8CF
:104D1000F0810000F0B50A460023002400210025A0
:104D200000F00046B6F1004F02D11D4EF16901E0DE
:104D30001B4E7168C0F3034583B200F44016B6F50C
:104D4000401F08D121F07061154E766826F070661C
:104D5000134F7E6012E000F48016B6F5801F06D176
:104D6000032606FA05F4A14341F0706106E0460D02
:104D7000360103FA06F6B14341F0706122B1460DE7
:104D8000360103FA06F6314300F00046B6F1004F53
:104D900002D1034EF16101E0014E7160F0BD0000EF
:104DA000000001400246002093680B400BB1012037
:104DB00000E0002070470AB1016100E041617047E6
:104DC00000BFFEE72DE9F0410546884616461F461E
:104DD00006210120FBF790FA044614B90020BDE833
:104DE000F081042D04DB2046FBF7C9FA0020F6E72A
:104DF000164850F8250030B12046FBF7C0FA13489A
:104E000050F8254002E0114840F82540A57084F88C
:104E1000038026716771012239463046FBF718FF7F
:104E2000E07838B900206070627861792079FCF709
:104E300069FB06E001206070627861792079FCF7F7
:104E400061FB022020702046C9E70000142D0020DD
:104E500010B50446E07838B9002060706278617956
:104E60002079FCF74FFB06E00120607062786179E1
:104E70002079FCF747FB0220207010BD10B50446D6
:104E8000E07838B901206070627861792079FCF7A8
:104E900039FB06E000206070627861792079FCF7C8
:104EA00031FB0120207010BD2DE9F0478AB081460A
:104EB00015461E4699F82C0005F0DAFDCDE90601ED
:104EC000D9E90C733A460020394905F0C9FBCDE910
:104ED0000201D9E90E733A462846314605F0C0FB77
:104EE000CDE90001DDE9022305F012FECDE9040160
:104EF000DDE9062305F00CFECDE9080105F044FDCF
:104F00000446002C01DC012000E00020824699F8D4
:104F10002C10201E01DB024600E0424299F82C30A2
:104F200092FBF3F703FB172201EBD173B2EB630F94
:104F30001EDBBAF1000F0DD1201E01DB014600E09F
:104F4000414299F82C2091FBF2F302FB1311511A04
:104F50000C4429E0201E01DB014600E0414299F8A3
:104F60002C2091FBF2F302FB1311511A641A1BE07F
:104F7000BAF1000F0CD1201E01DB014600E04142D6
:104F800099F82C2091FBF2F302FB1311641A0BE049
:104F9000201E01DB014600E0414299F82C2091FBE4
:104FA000F2F302FB13110C4420460AB0BDE8F0876F
:104FB000008076402DE9FF5F84B00546174698468D
:104FC00025AE96E8400E58210120FBF795F90446DE
:104FD0001CB9002008B0BDE8F09F042D04DB20467A
:104FE000FBF7CDF90020F5E73D4850F8250030B13A
:104FF0002046FBF7C4F93A4850F8254002E038480B
:1050000040F8254035B1012D0ED0022D16D0032DCC
:1050100028D11DE08DE8400E0020DDE9232305990D
:1050200000F066F8206522E08DE8400E0120DDE901
:105030002323059900F05CF8206518E08DE8400E08
:105040000220DDE92323059900F052F820650EE0E7
:105050008DE8400E0320DDE92323059900F048F890
:10506000206504E02046FBF78AF90020B2E700BF84
:1050700004F81C5F169860701A4800EB85006060A9
:1050800005EBC50000EB0510174901EB0010A0600F
:1050900017982073189860731998A0731A98E07382
:1050A00005982074C4E90578DDE91201C4E9070117
:1050B0001C3C2046DDE91423FFF7F6FE2064606CFB
:1050C00018B9002000F0A8FA606400206061A061B7
:1050D00020706060A060E06020746074204679E712
:1050E000242D0020880000209800002000BFFEE74B
:1050F0002DE9F05F05468A469346DDE90A89DDE938
:105100000C6784210120FBF7F7F8044614B900204E
:10511000BDE8F09F042D04DB2046FBF730F90020AA
:10512000F6E7344850F8250030B12046FBF727F960
:10513000304850F8254002E02E4840F8254035B16F
:10514000012D0CD0022D12D0032D20D117E03B46AB
:1051500032460621002001F021FDA0641CE03B4600
:1051600032460121084601F019FDA06414E03B46D7
:1051700032460221084601F011FDA0640CE03B46D6
:1051800032460321084601F009FDA06404E02046F0
:10519000FBF7F5F80020BBE700BF00202075607525
:1051A000A061A0832062606284F82800E06220632E
:1051B0006063A063E06320706060A060E0602061D5
:1051C000237D0BB1012300E000231A4694F842101E
:1051D00094F84100FCF796F9637D0BB1012300E0E0
:1051E00000231A4694F8441094F84300FCF78AF917
:1051F00020468DE7E02D00207047000070B50021AB
:1052000000230F22C47804B3154C246804F4E0642E
:10521000C4F5E064210AC1F10403CA40447804FAE9
:1052200003F184781440214309010E4C0678A155FE
:10523000047804F01F050124AC4005786D11AD0021
:1052400005F1E025C5F8004109E0047804F01F05E8
:105250000124AC40044D0678761145F8264070BD17
:105260000CED00E000E400E080E100E002490143D1
:10527000024A1160704700000000FA050CED00E0E2
:105280002DE9F04105460E46144600271DB90420BD
:105290002070BDE8F08116B90C202070F9E71148A4
:1052A000007810B112202070F3E72878012808D088
:1052B000022807D0032802D0042804D100E000BF50
:1052C00000BF00BF02E001202070E2E700BFFAF754
:1052D000A1FF07462E613846FAF7A0FF0020207094
:1052E00000BFD6E73100002010B500F017F801F03C
:1052F0004DF901F07DF901F09DF901F017F901F088
:10530000D7F801F02FFA01F059FA01F0D1F901F0C4
:10531000F7F900F0EDFE00F007F810BD002001499C
:1053200008807047000000207047000010B500247E
:105330001A480078012830D1FAF76CFF0446184863
:10534000007820B116480078401E154908701448AE
:105350000078F8B913480078E0B901F091FA1248E2
:105360001249097850F82100114908600F48007867
:105370001049097888420DD00D480068806B401CA8
:105380000B49096888630C480068401C0A4908609A
:10539000FAF75CFF2046FAF741FF10BD40000020FD
:1053A0003100002038000020C41900203A000020FD
:1053B00050000020390000201800002070B505467C
:1053C00000261048007808B1002070BDFAF722FFCF
:1053D00006460D480468006820B10B480068406824
:1053E000094908603046FAF719FF4CB101202070D6
:1053F00000202081656005A02061204601F04AF868
:105400002046E2E7310000201C0000203F000000A1
:105410002DE9F04105460F4614464FF0000825B926
:10542000042020700020BDE8F0812878012803D0F6
:10543000012020700020F6E73548007818B10220DE
:1054400020700020EFE73348007818B10D2020705D
:105450000020E8E7FAF7DEFE80466E6846B10020DD
:1054600068604046FAF7DAFE002020703046DAE73E
:105470002948006890F8300040F002002649096889
:1054800081F8300000202449096881F83100224861
:105490000068C762284600F0BFFF4046FAF7BEFE2C
:1054A00001F0B4F9FAF7B6FE80461B48006890F8A0
:1054B000310020B101280DD002280AD105E016489C
:1054C0000068066A002020700DE000260E20207083
:1054D00009E000BF29461048006800F087FF002659
:1054E0000A20207000BF00BF00200B49096881F826
:1054F00030000949096881F8310007490968C86125
:105500000549096808624046FAF788FE30468AE78E
:1055100031000020380000204800002070B504460B
:105520000D4600260CB9042070BD0DB90320FBE721
:105530002078012801D00120F6E7FAF76BFE064635
:10554000A07A60B1002302222946204600F00CFF19
:105550003046FAF763FE01F059F90020E4E760688D
:1055600020B13046FAF75AFE1420DDE76560304678
:10557000FAF754FE0020D7E710B500240B48007856
:10558000012811D1FAF746FE04460948007840B9CF
:1055900008480078FF2804D206480078401C0549D6
:1055A00008702046FAF73AFE10BD000040000020C7
:1055B000310000203800002010B500241348007886
:1055C000012821D1FAF726FE044611480078C0B917
:1055D0001048007888B10F480078401E0D490870C7
:1055E0000846007828B92046FAF718FE01F00EF9AF
:1055F0000AE02046FAF712FE06E02046FAF70EFE11
:1056000002E02046FAF70AFE10BD0000400000202C
:10561000310000203800002070B5054600261048F3
:10562000007808B1002070BDFAF7F4FD06460D4879
:105630000468006820B10B480068406809490860A8
:105640003046FAF7EBFD4CB1032020702581002095
:10565000606005A02061204600F01CFF2046E2E7C4
:10566000310000201C0000203F0000002DE9F04127
:1056700005460E46144600271DB904202070BDE8DB
:10568000F0812878032802D001202070F7E7314804
:10569000007810B102202070F1E72F48007810B197
:1056A0000D202070EBE7FAF7B5FD0746288940B1D9
:1056B0002889401E28813846FAF7B0FD0020207066
:1056C000DDE72648006890F8300040F001002349EB
:1056D000096881F8300000202049096881F831000C
:1056E0001E480068C662284600F096FE3846FAF763
:1056F00095FD01F08BF8FAF78DFD07461748006815
:1057000090F8310020B1012809D0022806D102E02A
:10571000002020700BE00E20207008E000BF29461A
:105720000E48006800F062FE0A20207000BF00BF33
:1057300000200A49096881F830000849096881F8A1
:10574000310006490968C8613846FAF767FD00BFAD
:1057500095E70000310000203800002048000020BC
:1057600070B5044600250CB9042070BD20780328CC
:1057700001D00120F9E7FAF74DFD0546A07A60B1A6
:10578000002301221946204600F0EEFD2846FAF7D4
:1057900045FD01F03BF80020E7E720894FF6FF7157
:1057A000884207D22089401C20812846FAF736FD1E
:1057B0000020DAE72846FAF731FD3320D5E700006C
:1057C00010B50B48007890B901F05AF809480078F4
:1057D0000949087009480749097850F82100084923
:1057E00008600846006807490860FAF71AFD10BD0E
:1057F000400000203A00002039000020C419002099
:105800005000002048000020704700002DE9FE4FA6
:1058100006460F4690461C464FF000091F2C02DD3D
:105820002A20BDE8FE8FFAF7F5FC81461E48007875
:1058300020B14846FAF7F2FC3C20F2E71B4850F84A
:10584000240060BB0120194941F824004846FAF7BA
:10585000E5FC002342463946304600F0D1F9824645
:1058600000200090019003460246514602902046D7
:1058700001F01CF8054635B90D48007801280CD117
:1058800000F0C4FF09E0FAF7C5FC81460020074993
:1058900041F824004846FAF7C1FC2846C1E74846CB
:1058A000FAF7BCFC2820BCE731000020C419002016
:1058B000400000202DE9F04F85B081468A4693468E
:1058C0001C46DDE90F78129D002003901F2C03DD9C
:1058D0002A2005B0BDE8F08FFAF79CFC039022481F
:1058E000007820B10398FAF799FC3C20F1E71F48B3
:1058F00050F8240088BB01201C4941F8240003987B
:10590000FAF78CFC2A464146384601F0FDF82B4652
:105910005A465146484600F073F904901198CDE973
:10592000008002953A4620460E9B049900F0BEFF87
:10593000064636B90E48007801280CD100F066FF03
:1059400009E0FAF767FC03900020084941F82400B9
:105950000398FAF763FC3046BBE7FFE70398FAF7D2
:105960005DFC2820B5E7000031000020C4190020AC
:1059700040000020704700002DE9F0410546002757
:105980004A48007810B14020BDE8F0811F2D01D1B8
:105990003E20F9E71F2D03DBFF2D01D02A20F3E77E
:1059A000FAF738FC0746FF2D03D14148006890F80C
:1059B0003250404850F8254024B93846FAF72EFCBA
:1059C0004320E1E7012C04D13846FAF727FC3D20BB
:1059D000DAE714F8340F3849085C61788843217895
:1059E000354A505414F834091146085C30B994F81B
:1059F000361032480078884330490870E06918B1A1
:105A00002046E16900F0F2FC666A16B1304600F00B
:105A10007BFD0020E06284F8300084F831002848E3
:105A20000078FF2804D226480078401C24490870DA
:105A30003846FAF7F3FB00F095FCFAF7EBFB074664
:105A40001F48007820B11E480078401E1C4908708D
:105A5000204600F041F81B480078401E19490870A4
:105A60000020144941F82500A06930B9002061697F
:105A7000886115496069086005E0D4E9050148615D
:105A8000D4E9051088611148006860610F4804601E
:105A90000FA0E0643846FAF7C1FB0E4800780128F1
:105AA00001D100F0B3FE00206EE7000031000020BD
:105AB00048000020C41900203C0000203B000020CA
:105AC0003800002041000020540000204C0000203D
:105AD0003F00000040000020704770472DE9F04172
