:020000040800F2
:1000000078F70020B90200088F56000871500008E8
:10001000B9540008E1130008018A0008000000003C
:100020000000000000000000000000002174000833
:10003000411A000800000000570200084577000838
:10004000D3020008D3020008D3020008D30200083C
:10005000D3020008D302000879340008593500089B
:100060007D350008A1350008C5350008D302000819
:10007000D3020008D3020008D3020008D30200080C
:10008000D3020008D3020008D3020008D3020008FC
:10009000C1890008D3020008D3020008E93500082E
:1000A000D3020008D3020008D3020008D3020008DC
:1000B000D9770008017800082D780008D3020008DD
:1000C000D3020008D3020008D3020008D3020008BC
:1000D000D3020008258700083987000869870008CF
:1000E0009D340008D3020008D3020008D3020008A0
:1000F000D3020008D3020008D3020008D30200088C
:10010000D3020008D302000859780008D30200087F
:10011000F5860008D302000885780008B178000849
:10012000D3020008D3020008D3020008D30200085B
:1001300000F002F800F05EF80AA090E8000C82449B
:100140008344AAF10107DA4501D100F053F8AFF278
:10015000090EBAE80F0013F0010F18BFFB1A43F0A5
:1001600001031847A4C20000C4C200000A444FF0B3
:10017000000C10F8013B13F0070408BF10F8014B06
:100180001D1108BF10F8015B641E05D010F8016B4B
:10019000641E01F8016BF9D113F0080F1EBF10F8AF
:1001A000014BAD1C0C1B09D16D1E58BF01F801CBD2
:1001B000FAD505E014F8016B01F8016B6D1EF9D555
:1001C0009142D6D37047000000230024002500266A
:1001D000103A28BF78C1FBD8520728BF30C148BFAA
:1001E0000B6070471FB59DE8030000F075F91FBD57
:1001F00010B510BD00F034FA1146FFF7F3FF0AF016
:1002000033F800F052FA03B4FFF7F2FF03BC09F031
:10021000ABFD0000EFF3108072B6704780F31088DA
:1002200070471D484FF0FF010170002080F30988DE
:100230001A48012101701A484FF08051016062B6DE
:10024000FEE717484FF080510160704714484FF0A7
:1002500080510160704772B6EFF3098028B12038F1
:1002600080E8F00F0F490968086000B50E48804724
:100270005DF804EB0D480E490A78027009480D49F3
:100280000A680260106890E8F00F203080F3098857
:100290004EF0040E62B6704722ED00E040000020F0
:1002A00004ED00E048000020ED6100083900002066
:1002B0003A000020500000200948804709480047C4
:1002C000FEE7FEE7FEE7FEE7FEE7FEE7FEE7FEE706
:1002D000FEE7FEE704480549054A064B7047000063
:1002E00079770008310100087857002078F700205E
:1002F00078C7002078C7002070B5A0FB0140B4F19A
:10030000805170F1000024BF002070BD204600F035
:1003100007F805001CBF214600F09DF8284670BD77
:1003200070B5064600F0BCF8056806F10B0020F039
:100330000704B4429CBF002070BD2B466A68BAB166
:100340001068A04210D304F1080188423CBF5068F5
:10035000586007D35168101941601168091B01608A
:1003600058601460101D70BD13465268002AE7D112
:100370002146284600F09CF80028DED170BD70B5FB
:100380000446051F00F08CF80068002C14BF446878
:1003900070BD002C18BFAC423CBF20466468F8D347
:1003A00001680A18AA4218BF456003D12A680546A9
:1003B0001144016028684119A1421CBF6C6070BDE6
:1003C0006168696021680844286070BD032A40F2B2
:1003D000308010F0030C00F0158011F8013BBCF1E7
:1003E000020F624498BF11F801CB00F8013B38BFFF
:1003F00011F8013BA2F1040298BF00F801CB38BF0D
:1004000000F8013B11F0030300F0A780083AC0F0A8
:10041000088051F8043B083A51F804CBA0E80810D2
:10042000F5E7121D5CBF51F8043B40F8043BAFF305
:100430000080D20724BF11F8013B11F801CB48BF5F
:1004400011F8012B24BF00F8013B00F801CB48BF95
:1004500000F8012B70474FF000020429C0F0128011
:1004600010F0030C00F0AD80CCF1040CBCF1020FD5
:1004700018BF00F8012BA8BF20F8022BA1EB0C013C
:1004800000F09FB85FEAC17C24BF00F8012B00F8A0
:10049000012B48BF00F8012B704770477047704729
:1004A00000487047205700207047704770477047DA
:1004B00038B504460A4600206946AFF3008000289C
:1004C00008BF38BD02460099204600F0A7F8012079
:1004D00038BD012000F0BCB8F8B5AFF30080054688
:1004E00000200C46102000BF0646A819A0420DD9D6
:1004F000324669460020AFF30080070008BF00F0D5
:10050000A7F80098A04218BF0546C419FFF7C8FF16
:1005100005600746F01D20F007004619284600F048
:100520000AF8B44208BFF8BDA21B31463868BDE8DE
:10053000F84000F073B800210160C0E90110704775
:100540001020704710B500F065F8006810BD10B5B8
:10055000044600F05FF8046010BD10B5203AC0F00A
:100560000B80B1E81850203AA0E81850B1E81850B4
:10057000A0E81850BFF4F5AF5FEA027C24BFB1E8F1
:100580001850A0E8185044BF18C918C0BDE8104062
:100590005FEA827C24BF51F8043B40F8043B08BF6B
:1005A0007047D20728BF31F8023B48BF11F8012B32
:1005B00028BF20F8023B48BF00F8012B70474FF0DE
:1005C000000200B5134694469646203922BFA0E8A3
:1005D0000C50A0E80C50B1F12001BFF4F7AF0907AF
:1005E00028BFA0E80C5048BF0CC05DF804EB8900A0
:1005F00028BF40F8042B08BF704748BF20F8022BE3
:1006000011F0804F18BF00F8012B70470048704769
:1006100018570020004870471857002003464068CC
:100620008C46002818BF88423CBF03464068F8D378
:1006300018681844884207D00CF1030020F0070026
:10064000001D411A521A0146081D0A60FFF797BEA5
:1006500010B500F039F8BDE8104000F02FB8704731
:100660007546FFF7D3FFAE4605006946534620F0B6
:100670000700854618B020B5FFF72CFEBDE82040E6
:100680004FF000064FF000074FF000084FF0000B4E
:1006900021F00701AC46ACE8C009ACE8C009ACE801
:1006A000C009ACE8C0098D46704710B50446AFF3E9
:1006B00000802046BDE81040FFF7A5BD002801D00E
:1006C00009F052BB7047000010B5012805D0002189
:1006D00003A000F021F8012010BD09A1F8E70000F7
:1006E00053494752544D454D3A204F7574206F661B
:1006F0002068656170206D656D6F72790000000083
:100700003A2048656170206D656D6F727920636F66
:10071000727275707465640070B505460C460A20E7
:1007200000E06D1C00F011F835B128780028F8D1F0
:1007300002E0641C00F009F814B120780028F8D118
:10074000BDE870400A20AFF3008008B569468DF817
:1007500000000320ABBE08BD21B1826842F0010257
:10076000826003E0826822F00102826070470146E5
:1007700000208A6802F004020AB1012000E0002093
:1007800070470146C86C80B270470246002013686B
:100790000B400BB1012000E0002070470146002013
:1007A0008A6802F008020AB1012000E000207047C8
:1007B00030B502460020002350680F4C20400D79D0
:1007C0000C6844EA05242043506090680B4C20409C
:1007D000D1E902542C434D7944EA4504204390600A
:1007E000D06A20F470000C7C641EE4B2234340EA1B
:1007F0000350D06230BD0000FFFEF0FFFDF7F1FFB7
:10080000F0B504460D4600200021092D11DDE068F9
:10081000A5F10A0606EB4607072606FA07F1884304
:10082000A5F10A0606EB460603FA06F10843E06066
:100830000CE0206905EB4507072606FA07F1884317
:1008400005EB450603FA06F108432061072A0FDA93
:10085000606B561E06EB86071F2606FA07F18843D3
:10086000561E06EB860605FA06F10843606322E091
:100870000D2A0FDA206BD61F06EB86071F2606FA15
:1008800007F18843D61F06EB860605FA06F10843F2
:10089000206310E0E06AA2F10D0606EB86071F2632
:1008A00006FA07F18843A2F10D0606EB860605FA63
:1008B00006F10843E062F0BD816841F00801816003
:1008C000704721B1826842F4A002826003E082682E
:1008D00022F4A00282607047816841F004018160C7
:1008E000704700002DE9FC4705460E46174698461E
:1008F000DDF8289008210120FFF7FEFC044614B91A
:100900000020BDE8FC87012D04DB2046FFF737FD02
:100910000020F6E70F4850F8250030B12046FFF7D9
:100920002EFD0C4850F8254002E00A4840F82540CA
:10093000E5704B46424604210020CDE9006706F0F1
:10094000E5FD60600120207000206070A0702046EE
:10095000D7E700008400002070B504460D4600264D
:10096000606802F00EFAA021606802F0DEF96068AB
:1009700002F044FA20B9606802F01FFA002070BD4E
:100980002912606802F0D1F9606802F037FA20B9E4
:10099000606802F012FA0020F1E7E9B2606802F044
:1009A000C4F9606802F02AFA20B9606802F005FA1A
:1009B0000020E4E7606802F0E4F9A121606802F039
:1009C000B4F9606802F01AFA20B9606802F0F5F92B
:1009D0000020D4E7606802F087F90646606802F0FC
:1009E00053F9606802F0E9F93046C8E72DE9F041B3
:1009F00004460E4617460025606802F0C2F9A021A1
:100A0000606802F092F9606802F0F8F928B960684D
:100A100002F0D3F90020BDE8F0817201C2F3072192
:100A2000606802F082F9606802F0E8F920B9606855
:100A300002F0C3F90020EEE77207110E606802F0C1
:100A400074F9606802F0DAF920B9606802F0B5F96B
:100A50000020E0E7606802F094F9A121606802F0EC
:100A600064F9606802F0CAF920B9606802F0A5F97B
:100A70000020D0E7002508E0606802F035F97855DD
:100A8000606802F0C6F8681CC5B21F2DF4DB606810
:100A900002F02AF97855606802F0F6F8606802F012
:100AA0008CF90120B7E72DE9F04104460E461746C0
:100AB0000025606802F065F9A021606802F035F950
:100AC000606802F09BF928B9606802F076F90020AE
:100AD000BDE8F0817201C2F30721606802F025F9D8
:100AE000606802F08BF920B9606802F066F90020B6
:100AF000EEE77207110E606802F017F9606802F005
:100B00007DF920B9606802F058F90020E0E700257F
:100B10000EE0795D606802F008F9606802F06EF935
:100B200020B9606802F049F90020D1E7681CC5B21D
:100B3000202DEEDB606802F040F900250CE005EBAB
:100B4000461081B22046FFF707FF795D884201D049
:100B50000020BDE7681CC5B2202DF0DB0120B7E7FF
:100B6000014908607047000000860D4210B5044638
:100B7000A10201F18040002106F0C2FEA10201F1B4
:100B80008040012106F0B9FEA10201F18040002160
:100B900006F0DBFF10BD10B50446A10201F1804054
:100BA000012106F0ADFE10BD10B502464FF0E02069
:100BB000006920F004004FF0E02420611046D417B3
:100BC00002EB5474E3100A4890FBF1F043434FF0FA
:100BD000E020006940F002004FF0E0242061204650
:100BE0004361006940F001002061012010BD000058
:100BF00040420F00F8B505460C461646072D01DBAE
:100C00000020F8BD102C01DB0020FAE7062E01DBE6
:100C10000020F6E7042101FA05F0012106F05CFB53
:100C2000022D0CD10D2C01D00E2C08D1012006F084
:100C300073FA002006F0DAFB0020FFF791FF012D88
:100C400003D1032C04D0042C02D02DB90F2C03D1D6
:100C50000121264804F0B6F95DB90D2C01D00E2C07
:100C600007D10121084606F037FB01211F4804F097
:100C7000A9F90120A04080B2ADF80000062E1CD2D8
:100C8000DFE806F003070B0F131704208DF80300AD
:100C900015E010208DF8030011E014208DF80300FA
:100CA0000DE028208DF8030009E048208DF80300AE
:100CB00005E000208DF8030001E00020A1E700BF5F
:100CC00003208DF802000A490A1502FB0510694647
:100CD00004F0ECF8022D06D10D2C01D00E2C02D11F
:100CE000002006F019FA01208BE700000002300016
:100CF000000801402DE9FF4780460F460020039081
:100D0000019002900090B8F1070F02DB04B0BDE83B
:100D1000F087102F01DB0020F8E7042101FA08F129
:100D200041F00100012106F0D7FAB8F1020F0CD111
:100D30000D2F01D00E2F08D1012006F0EDF9002073
:100D400006F054FB0020FFF70BFF0120B84080B2F3
:100D5000ADF80C0004208DF80F0003208DF80E0074
:100D600057490A1502FB081003A904F09FF8B8F1CF
:100D7000020F06D10D2F01D00E2F02D1002006F058
:100D8000CBF94FF4A06004F0BBFCB8F1070F1AD206
:100D9000DFE808F004070A0D101316004FF00009F1
:100DA00013E04FF0010910E04FF002090DE04FF0A1
:100DB00003090AE04FF0040907E04FF0050904E0D9
:100DC0004FF0060901E00020A0E700BF102F51D22C
:100DD000DFE807F0080C1014181C2024282D3237E7
:100DE0003C41464B06250124002645E00725022408
:100DF000012641E00825042402263DE009250824B7
:100E0000032639E00A251024042635E0172520247E
:100E1000052631E01725402406262DE017258024DD
:100E2000072629E017254FF48074082624E01725AB
:100E30004FF4007409261FE028254FF480640A2629
:100E40001AE028254FF400640B2615E028254FF4FE
:100E500080540C2610E028254FF400540D260BE09A
:100E600028254FF480440E2606E028254FF4004440
:100E70000F2601E0002049E700BFE8B28DF800002E
:100E800001208DF801008DF802008DF803006846FE
:100E900004F0FEFB204602F0F1FB3146484603F029
:100EA000E5FF019400208DF8080010208DF809005E
:100EB00001208DF80A0001A802F0FAFB012025E7C5
:100EC000000801407FB504460D46164600200190FB
:100ED000029003900090012101FA04F006F0DCF981
:100EE000062C1CD2DFE804F003070B0F13171C209D
:100EF0008DF8000016E01D208DF8000012E01E2085
:100F00008DF800000EE032208DF800000AE0362057
:100F10008DF8000006E037208DF8000002E0002088
:100F200004B070BD00BF4FF4A06004F0E9FB0120E5
:100F30008DF801008DF802008DF80300684604F07A
:100F4000A7FBA10201F1804006F0E6FC01A806F033
:100F500051FEADF80850ADF804600020ADF80A006D
:100F6000ADF80600A10201F1804001A906F0F0FDF4
:100F7000A10201F18040002106F0B0FCA10201F1C4
:100F80008040202106F0D6FDA10201F18040012120
:100F900006F0B0FCA10201F180400122114606F0EA
:100FA000C0FD0120BCE700002DE9F04786B00546F2
:100FB0000F4614469846DDE90E9A35B1012D09D049
:100FC000022D0CD0032D14D10EE00121880306F070
:100FD00083F912E00121480406F05EF90DE00121D9
:100FE000880406F059F908E00121C80406F054F914
:100FF00003E0002006B0BDE8F08700BF0421A14057
:10100000042202FA09F2114341F00100012106F025
:1010100063F935B1012D0BD0022D10D0032D1ED157
:101020001CE0012C03D10121042003F0CBFF18E0C8
:10103000032C03D10121082003F0C4FF11E0022C8E
:1010400004D10121594803F0BDFF06E0032C04D16F
:1010500001215648203003F0B5FF02E001E00020F6
:10106000C8E700BF012000FA08F080B2ADF8140014
:1010700018208DF8170003208DF816004C490A152A
:1010800002FB041005A903F011FF012000FA0AF089
:1010900080B2ADF8140004208DF817004449020214
:1010A00002FB091005A903F001FF01970020ADF82C
:1010B0000800ADF80A00ADF80C00ADF810000C20E7
:1010C000ADF80E0035B1012D0ED0022D16D0032D36
:1010D00028D11DE001A9374807F0FCFB0121354864
:1010E00007F086FB25261FE001A9334807F0F2FB35
:1010F0000121314807F07CFB262615E001A92F4885
:1011000007F0E8FB01212D4807F072FB27260BE0D2
:1011100001A92B4807F0DEFB0121294807F068FBF5
:10112000342601E0002065E700BF4FF4A06004F022
:10113000E7FA8DF8006001208DF801008DF80200BB
:101140008DF80300684604F0A3FA35B1012D0BD0E9
:10115000022D10D0032D1CD114E0012240F22441B5
:10116000144807F091FB16E0012240F22551124885
:1011700007F08AFB0FE0012240F225510F4807F0EB
:1011800083FB08E0012240F225510D4807F07CFB6B
:1011900001E000202EE700BF01224021054807F0B2
:1011A00033FB00F0F3FB012024E7000010001400E3
:1011B0000008014000380140004400400048004061
:1011C000004C004070B504460D4624B1012C17D0E8
:1011D000022C3FD129E001231A4629461E48FFF779
:1011E0000FFB01211C48FFF76CFB00BF02211A48CE
:1011F000FFF7CBFA0028F9D01748FFF7C2FA70BD05
:1012000001231A4629461548FFF7FAFA0121134827
:10121000FFF757FB00BF02211048FFF7B6FA00287E
:10122000F9D00E48FFF7ADFAE9E701231A4629463F
:101230000B48FFF7E5FA01210948FFF742FB00BF21
:1012400002210748FFF7A1FA0028F9D00448FFF768
:1012500098FAD4E70020D2E700240140002801409A
:10126000003C014070B504460D460122AA4091B2EF
:10127000054A131503FB042003F0ECFE08B101201E
:1012800070BD0020FCE7000000080140012080F351
:10129000138800BF00BF0748006800F4E0600649FB
:1012A0000843001D03490860BFF34F8F00BF00BF14
:1012B000FEE700000CED00E00000FA0570B5044602
:1012C0000D46A9B2A20202F1804006F03CFC70BDBE
:1012D00010B5044634B1012C09D0022C0CD0032CDB
:1012E00014D10EE00A4807F061FBC0B210BD0948F6
:1012F00007F05CFBC0B2F9E7074807F057FBC0B244
:10130000F4E7064807F052FBC0B2EFE70020EDE734
:10131000003801400044004000480040004C0040BC
:1013200070B504460D46FEF775FF064634B1012C34
:1013300010D0022C1AD0032C30D123E029461B48B0
:1013400007F039FB00BF4021184807F066FA002873
:10135000F9D025E02946164807F02DFB00BF802173
:10136000134807F05AFA0028F9D019E02946114825
:1013700007F021FB00BF80210E4807F04EFA00283D
:10138000F9D00DE029460C4807F015FB00BF80217D
:10139000094807F042FA0028F9D001E0002070BDAA
:1013A00000BF3046FEF73AFF0120F8E70038014061
:1013B0000044004000480040004C004070B5044626
:1013C0000D4616460122AA4091B2044A131503FBAA
:1013D0000420324603F047FE70BD000000080140C3
:1013E00000BFFEE710B500F5D87303EB01131B68CF
:1013F00003F004031372137A53B900F5D87303EBA7
:1014000001131B6840F2FF7404EA5353136009E0B0
:1014100000F5D87303EB01131B686FF0604404EA16
:10142000D303536000F5D87303EB01131B6803F07B
:101430000203537200F5D87303EB01135B6803F0EA
:101440000F03937200F5D87303EB01135B681B0A5B
:10145000D37400F5D87303EB01139B68D37200F5C6
:10146000D87303EB01139B681C0A147300F5D8733F
:1014700003EB01139B681C0C547300F5D87303EB4A
:1014800001139B681B0E937300F5D87303EB0113D4
:10149000DB68D37300F5D87303EB0113DB681C0A18
:1014A000147400F5D87303EB0113DB681C0C54743F
:1014B00000F5D87303EB0113DB681B0E937421B99D
:1014C000C36843F02003C36003E0036943F02003D3
:1014D000036110BD2DE9FF4F9FB093462099086826
:1014E00009F02AFFCDE91C012099486809F024FF82
:1014F000CDE91A012099C86809F01EFFCDE918014D
:101500002099086909F018FF0022F94BCDE9100174
:1015100009F00AFD04460D461F9809F00DFFCDE9BC
:1015200016011AA80FC80AF0D7F90022F14BCDE92D
:101530000C0109F051FF22462B46CDE90E0109F0BE
:10154000F3FC22462B46CDE9100109F0EDFC804664
:10155000894622462B464046494609F03DFF224631
:101560002B46CDE9000109F037FF22462B46CDE995
:10157000020109F031FF0022DF4BCDE9040109F03F
:10158000D3FCCDE9080120462946DDE91C2309F0FA
:1015900023FFCDE90601DDE9082309F009FCCDE9C7
:1015A0000A01DDE9162309F017FFCDE90C01DDE999
:1015B000182309F0B9FCCDE90E0109F057FB119091
:1015C00009F0A3FECDE9140120462946DDE91823E0
:1015D00009F0AAFCCDE9120100BF4FF0000ABBF1EF
:1015E000000F0DD00022C54BDDE9180109F0B8FE4F
:1015F00006D9002213462046294609F0B1FE02D83A
:1016000023B0BDE8F08F4FF0000A5EE100224FF0FA
:1016100080432046294609F087FCCDE91001504659
:1016200009F073FECDE90C01DDE9122309F0D4FEC7
:10163000CDE90E01DDE9102309F092FE57D850469E
:1016400009F063FECDE91001DDE9122309F0C4FEC3
:1016500006460F4632463B463046394609F0BCFE48
:1016600042464B46CDE90A0109F0B6FE00224FF092
:101670008043CDE90C0109F057FCCDE90E01DDE90D
:101680001C2309F095FBCDE9100109F011FE2BF8A0
:101690001A0032463B463046394609F09DFE424626
:1016A0004B46CDE9060109F097FE00224FF080433A
:1016B000CDE9080109F038FCCDE90A01DDE91C2378
:1016C00009F076FBCDE90C01DDE9122309F084FE77
:1016D000CDE90E01DDE9162309F07EFECDE910010A
:1016E00009F0C4FAC1B2229800F80A10DFE05046AF
:1016F00009F00BFECDE90E01DDE9122309F06CFEC5
:1017000022462B46CDE9100109F02AFE7DD850462D
:1017100009F0FBFDCDE91001DDE9122309F05CFEC3
:1017200006460F4622462B464046494609F054FEDF
:1017300022462B46CDE9080109F04EFE00226D4BF2
:10174000CDE90A0109F0F0FB32463B46CDE90E0136
:101750004046494609F040FE32463B46CDE9040189
:1017600009F03AFE00224FF08043CDE9060109F06E
:10177000DBFB22462B46CDE90A014046494609F0EB
:101780002BFE32463B46CDE9040109F025FECDE9AA
:101790000601DDE91C2309F00BFBCDE90801DDE9B9
:1017A0000A230AF099F8CDE90C01DDE90E230AF0CD
:1017B00093F8CDE9100109F07BFD2BF81A002246C1
:1017C0002B464046494609F007FE22462B46CDE906
:1017D000040109F001FE0022464BCDE9060109F0A3
:1017E000A3FB32463B46CDE90A014046494609F093
:1017F000F3FD32463B46CDE9000109F0EDFD002244
:101800004FF08043CDE9020100E036E009F08CFBA7
:1018100022462B46CDE906014046494609F0DCFD4B
:1018200032463B46CDE9000109F0D6FDCDE9020183
:10183000DDE91C2309F0BCFACDE90401DDE906234A
:101840000AF04AF8CDE90801DDE90A230AF044F874
:10185000CDE90C01DDE9122309F0BEFDCDE90E0151
:10186000DDE9162309F0B8FDCDE9100109F0FEF914
:10187000C1B2229800F80A1019E0DDE91A0109F056
:1018800017FD2BF81A00DDE91223DDE91A0109F032
:10189000A3FD00221A4BCDE90E0109F09DFDCDE913
:1018A000100109F0E3F9C1B2229800F80A103BF8E0
:1018B0001A0040001F994843124991FBF0F02BF8A1
:1018C0001A000AF101000FFA80FA504609F01DFDD6
:1018D000CDE91001DDE9182309F042FDFFF496AED1
:1018E000DDE9140109F0E4FC2099886000BF87E677
:1018F000006AF84000001040000020400000F03F67
:101900000000304000127A002DE9F04107460C46F5
:1019100015462946204607F042F9064616B900202A
:10192000BDE8F08132460021384608F029FA01204E
:10193000F6E7000070B505460E4608210120FEF7C7
:10194000DBFC04460CB9002070BD022D04DB2046F0
:10195000FEF715FD0020F7E70B4850F8250030B1E1
:101960002046FEF70CFD084850F8254002E00648E6
:1019700040F825402570667008F06AFA606060687B
:1019800002F0BCFC2046DFE78C07002000B58BB0DE
:101990000121084605F070FC0F4800900F480190A7
:1019A0000020029064200390002004908020059085
:1019B00000200690079008904FF4005009900020F6
:1019C0000A906946064800F01DF80121044800F01D
:1019D00009F80BB000BD000004380140542C002071
:1019E0005800024021B1026842F00102026004E0A6
:1019F00002684FF6FE731A4002607047014648685D
:101A000080B2704710B50022026847F6F0739A431F
:101A10000C6A8B6823430C6923434C6923438C690C
:101A20002343CC6923434C6A23438C6A23431A43E0
:101A30000260CB6843600B6883604B68C36010BD75
:101A400070470000014621B101290AD0022918D1AE
:101A50000FE00E48806900F4007008B9002070475C
:101A600011E00A48806900F4806008B90020F6E7B8
:101A700009E00648806900F4004008B90020EEE75C
:101A800001E00020EBE700BF0120E8E70010024082
:101A9000014621B101290AD0022918D10FE00E48D0
:101AA000806900F4007008B90020704711E00A480E
:101AB000806900F4806008B90020F6E709E0064874
:101AC000806900F4004008B90020EEE701E0002042
:101AD000EBE700BF0120E8E70010024000240025EA
:101AE0005CE0012300221146104604F0BDFB0024F7
:101AF00052E02B4850F8240000284BD0284A52F8D6
:101B00002420517C264A52F82420107CFFF7AAFB9F
:101B10000546234850F824004078A8423AD00123D3
:101B200000221146104604F09FFB1D4A52F8242063
:101B3000517C1B4A52F82420107CFFF793FBA842EB
:101B400028D1174850F824004078A84222D01448E1
:101B500050F82400407A01280CD1114850F8240094
:101B60004078A84212DA0E4951F82410C86804F0EF
:101B700041F80BE00A4850F824004078A84205DDFF
:101B8000074951F82410C86804F034F8044850F8A4
:101B900024004570601CC4B20A2CAADBA1E7000037
:101BA000F02D00202DE9F05F83460E4615461F46B6
:101BB000DDF838A0DDF83090DDF828801020FEF741
:101BC000AFFB044614B90020BDE8F09F84F800B0D4
:101BD000A670E570277184F805800B98A07184F8D1
:101BE00007900D98207284F809A0114803F030FE88
:101BF000E06029463046FFF77DF841463846FFF75A
:101C000079F849460B98FFF775F851460D98FFF79C
:101C100071F80848084941F82500084841F82800AB
:101C2000074841F82900074841F82A002046CBE739
:101C30000007002045370008EC2B0020C9370008BA
:101C40004D380008D13800082DE9F0410546884696
:101C500016461F4606210120FEF74EFB044614B926
:101C60000020BDE8F081072D04DB2046FEF787FB4E
:101C70000020F6E7154850F8250030B12046FEF761
:101C80007EFB124850F8254002E0104840F82540FD
:101C9000A57084F8038026716771012239463046A9
:101CA000FEF7A8FFE07838B90020607062786179AB
:101CB0002079FFF783FB06E001206070627861798C
:101CC0002079FFF77BFB2046CBE70000D82C0020D3
:101CD00010B50446E07838B9002060706278617908
:101CE0002079FFF76BFB06E0012060706278617974
:101CF0002079FFF763FB0220207010BD10B5044669
:101D0000E07838B901206070627861792079FFF756
:101D100055FB06E000206070627861792079FFF75A
:101D20004DFB0120207010BD0246D2E90201704730
:101D30002DE9F04FF9B004464FF0000B002020824F
:101D4000322104F11200FEF786FBD9460AE009EBC6
:101D50004900C549084400210180817009F1010052
:101D600000F0FF09B9F1320FF1DBB4F85000E8B927
:101D7000204601F06FFB78AA4FF4FA71606C03F013
:101D8000BFFE9DF8E00120B10020014679B0BDE81A
:101D9000F08FA17CE07C61F31F20A4F850000020AC
:101DA0002082322104F11200FEF755FB012084F855
:101DB0004800204601F042F978AA40F6B831606C3C
:101DC00003F09EFE204601F0B3FA002084F848009C
:101DD0009DF8E00110B100200146D7E74FF000095F
:101DE000B6E009EB4900A049085CFF280BD109EBDC
:101DF000490008444078FF2805D109EB4900084410
:101E00008078FF287DD009EB4901974A11448878F2
:101E100009F092FA0022954BCDE9100109F084F8FF
:101E2000CDE9120109EB49018F4A525C09EB4901E6
:101E30008D4B1944497862F31F21084609F065FA71
:101E40000746DDE9122308F0B3FF14AA02EBCB0228
:101E500003C2606E09F02AFECDE91201206E09F07E
:101E600025FECDE90A0114A800EBCB00D0E90073F0
:101E70003A460A9809F0B0FACDE90E0114A800EB31
:101E8000CB0000224FF08043D0E90071384608F0C3
:101E900001FACDE90601E06D09F008FECDE9040183
:101EA000DDE9062309F098FACDE90A0114A800EB50
:101EB000CB0000226E4BD0E90071384608F0EAF9F9
:101EC000CDE90201A06D09F0F1FDCDE90001DDE9E8
:101ED000022309F081FACDE9060114A800EBCB0139
:101EE000D1E900710022634B384608F0D3F9CDE9FF
:101EF0000201606D09F0DAFDCDE90001DDE90223A0
:101F000000E021E009F068FACDE90401DDE90623EB
:101F100008F04EFFCDE90801DDE90A2308F048FF8B
:101F2000CDE90C01DDE90E2308F042FFCDE91001F7
:101F3000DDE9122308F03CFF14AA02EBCB0203C236
:101F40000BF1010000F0FF0B09F1010000F0FF09A7
:101F5000B9F1320FFFF645AFBBF1280F6ADD4FF044
:101F6000000A43E014A800EBCA0000221346D0E99F
:101F70000071384609F030F934D014A90AF1010093
:101F800001EBC00000221346D0E90071384609F089
:101F900023F927D014A90AF1010001EBC00103C9FC
:101FA000CDE9120114A800EBCA00D0E900780B4675
:101FB00038464146129A09F0D3F913D214A800EB1F
:101FC000CA0060C814A90AF1010001EBC000D0E901
:101FD000001014AA02EBCA02C2E9001014A800EB18
:101FE000CA0060C00AF1010000F0FF0ADA45B9DD5D
:101FF0004FF0000A0021216061604FF00E0915E0EA
:1020000014A800EBC901D1E90073D4E900013A46F4
:10201000CDE9120108F0CCFEC4E900010AF101008B
:1020200000F0FF0A09F1010000F0FF09ABF10F0019
:102030004845E5DCBAF1010F03DC00202060606058
:102040000EE0504609F078F9CDE9120102460B4640
:10205000D4E900783846414608F066FFC4E900013B
:10206000D4E9000192E60000CC320020000070406C
:10207000000008400000104010B5044600206070C9
:1020800062782179E078FFF799F90220207010BD7D
:102090002DE9F04105460E46174605210120FEF7C1
:1020A0002BF9044614B90020BDE8F081082D04DBAB
:1020B0002046FEF764F90020F6E7104850F82500A6
:1020C00030B12046FEF75BF90C4850F8254002E09D
:1020D0000A4840F82540A570E6702771012239466C
:1020E0003046FEF787FD0220207000206070627885
:1020F0002179E078FFF762F92046D5E7F42C00203B
:1021000010B504460120607062782179E078FFF70D
:1021100055F90120207010BD70B586B004460D46FB
:102120001646052231462846FEF764FD2046FFF795
:1021300089FC10B1012006B070BD002001908DF81F
:1021400008008DF809004FF46020039000200490EF
:1021500001208DF8140024B1012C25D0022C69D166
:1021600045E00121480205F0B7F801A93448FEF71F
:102170001FFB4FF4404005F073F801213048FEF793
:10218000EBFA2F48FEF798FB00BF2D48FEF706FB41
:102190000028FAD12A48FEF79FFB00BF2848FEF727
:1021A000E6FA0028FAD147E00121880205F094F808
:1021B00001A92448FEF7FCFA4FF4404005F050F81E
:1021C00001212048FEF7C8FA1E48FEF775FB00BF44
:1021D0001C48FEF7E3FA0028FAD11A48FEF77CFB08
:1021E00000BF1848FEF7C3FA0028FAD124E0012105
:1021F000C80305F071F801A91348FEF7D9FA4FF4A6
:10220000404005F02DF801210F48FEF7A5FA0E48D1
:10221000FEF752FB00BF0C48FEF7C0FA0028FAD1C7
:102220000948FEF759FB00BF0748FEF7A0FA00284F
:10223000FAD101E000207EE700BF01207BE700002B
:102240000024014000280140003C01402DE9F041FC
:102250000024AEE0594850F8240000287ED0574AA8
:1022600052F8242092F85210544A52F8242092F83E
:102270005100FEF7A7FF514951F8241048604F491B
:1022800051F82410486809F057F807464FF06632B5
:102290004B4B09F0A1F8054600224A4B08F044FEDA
:1022A000464A52F82420C2E90201444850F824006A
:1022B000D0E91273414850F824003A46D0E902515F
:1022C000284608F031FE3D4A52F82420C2E90401B4
:1022D0003A4850F82400D0E90873384850F82400F0
:1022E0003A46D0E90451284608F01EFE334A52F817
:1022F0002420C2E90201314850F82400D0E902212B
:10230000104607F003FE2D4A52F82420C2E90201CC
:102310002A4850F82400D0E90A73284850F82400CD
:102320003A46D0E90251284608F0FEFD234A52F809
:102330002420C2E90201214850F82410D1E90C53AD
:102340002A460020204908F0EFFD07461B4850F8B8
:102350002400D0E902532A46384600E027E008F07E
:1023600027FD164A52F82420C2E90201134850F80A
:102370002400D0E902532A460020134908F0D4FD76
:102380000E4A52F82420C2E902010C4850F82410E9
:10239000D1E90E7350F82410D1E902513A4628468B
:1023A00009F09AFA054A52F82420C2E90201601C99
:1023B000C4B20A2CFFF64EAFBDE8F0818C3200208B
:1023C00066661A400000B0400000F03F2DE9F0477B
:1023D00006468A4691461D46DDE9087858210120C7
:1023E000FDF78AFF044614B90020BDE8F0870A2EE5
:1023F00004DB2046FDF7C3FF0020F6E73D4850F818
:10240000260030B12046FDF7BAFF3A4850F8264082
:1024100002E0384840F82640B9F1000F06D0B9F183
:10242000010F0FD0B9F1020F28D119E0002D04DB04
:10243000072D02DC84F8525022E02046FDF79FFF72
:102440000020D2E7002D06DB012D04DC05F1080099
:1024500084F8520014E02046FDF791FF0020C4E705
:10246000002D06DB052D04DC05F10A0084F852007E
:1024700006E02046FDF783FF0020B6E70020B4E722
:1024800000BF84F8506084F851A084F8539084F819
:102490005450C4E90678DDE90A01C4E90801DDE920
:1024A0000C01C4E90A01DDE90E01C4E91001DDE90E
:1024B0001001C4E912014FF066310F48C4E90C1055
:1024C0000E48C4E90E102A4649465046FFF724FE3E
:1024D00020B92046FDF753FF002086E70120207039
:1024E0000021A160E16000206060216161612046FF
:1024F0007BE700008C32002066A2724066127140B9
:102500002DE9FF5F04468A464FF0000B0020039040
:1025100002900190814600902068606051462069D9
:1025200009F09EFD20602168A06809F0EBFAA06028
:10253000206809F0BBFA054621F00041052801DDBD
:102540000020A060A06909F0B1FA054621F0004121
:10255000804609F027FC07464FF0505109F04EFD28
:102560000ED2A06909F0A2FA07463A460B460020AF
:10257000244908F0D9FC054608F0E8FB814601E053
:102580004FF000094946A06809F038FD02D2C4F8AE
:10259000089009E089F000452846A16809F02EFD61
:1025A00002D289F00040A0602168606909F05AFCFD
:1025B0008346A168A06909F055FC0390D4E90001A5
:1025C00009F04EFD0546E16909F04CFC02905846C1
:1025D000039909F097FA0546029909F093FA0190D8
:1025E0000021019809F00AFC03D8002004B0BDE8DE
:1025F000F09F0549019809F001FD01D80248F5E76F
:102600000198F3E700006940000048432DE9F047D6
:1026100005460E4617469846DDF8209020210120F9
:10262000FDF76AFE044614B90020BDE8F087082DC6
:1026300004DB2046FDF7A3FE0020F6E70E4850F825
:10264000250030B12046FDF79AFE0B4850F8254092
:1026500002E0094840F82540657326616761C4F8C7
:102660001880C4F81C900120207300202060606056
:10267000A0602046D9E70000B82C00202DE9F041E9
:1026800004460D4620680669E07E07287ED0E07E7D
:1026900005287CD2DFE800F0032B537EAF002946EB
:1026A000304609F0ABFC0FD2A06A002801DA002006
:1026B000A062A06A401CA062A06A032816DB00206A
:1026C000A062A068804711E0A06A002801DD002018
:1026D000A062A06A401EA062A06A10F1030F05DC90
:1026E0000020A0620120E076E0688047D2E0294621
:1026F000304609F083FC11D2A06A002801DA0020DC
:10270000A062A06A401CA062A06A032816DB002019
:10271000A0620220E076A06880470FE0A06A00284F
:1027200001DD0020A062A06A401EA062A06A10F134
:10273000030F03DC0020A062E0688047AAE029467E
:10274000304609F05BFC0FD2A06A002801DA0020B5
:10275000A062A06A401CA062A06A032819DB0020C6
:10276000A062A068804714E0A06A002801DD002074
:10277000A062A06A401EA062A06A10F1030F08DCEC
:102780000020A0620320E076E06801E083E080E0C2
:1027900080477FE02946304609F030FC11D2A06A1C
:1027A000002801DA0020A062A06A401CA062A06A92
:1027B000032816DB0020A0620420E076A068804792
:1027C0000FE0A06A002801DD0020A062A06A401E80
:1027D000A062A06A10F1030F03DC0020A062E06891
:1027E0008047606A401C60622946E06909F006FB88
:1027F00000D2E5614EE02946304609F0FFFB0FD2DA
:10280000A06A002801DA0020A062A06A401CA06231
:10281000A06A032833DB0020A062A06880472EE076
:10282000A06A002801DD0020A062A06A401EA0620C
:10283000A06A10F1030F22DC0020A0620720E076DE
:10284000012021680873606A09F0C4FA8046216992
:1028500009F008FB074609F085FA6062D4E9070130
:1028600009F0FEFB80464FF0804109F0B9F90746B8
:102870003A462046616A06F047FAE0688047606A97
:10288000401C60622946206A09F0B8FB00D225622C
:1028900000E000BF00BFE07EBDE8F08170B5049CA1
:1028A000016000250668357342608360C4604FF0A4
:1028B0007E5505610025C5768576C561034D0562A7
:1028C000002585624561C825058370BD0000C842AA
:1028D00070B586B004460D46164605223146284698
:1028E000FEF788F92046FFF7D3F810B1012006B0B3
:1028F00070BD002001908DF808008DF809004FF49C
:10290000602003900020049001208DF8140024B171
:10291000012C25D0022C69D145E00121480204F0A8
:10292000DBFC01A93448FDF743FF4FF4404004F0BD
:1029300097FC01213048FDF70FFF2F48FDF7BCFF42
:1029400000BF2D48FDF72AFF0028FAD12A48FDF7DD
:10295000C3FF00BF2848FDF70AFF0028FAD147E06F
:102960000121880204F0B8FC01A92448FDF720FFEA
:102970004FF4404004F074FC01212048FDF7ECFEC8
:102980001E48FDF799FF00BF1C48FDF707FF002810
:10299000FAD11A48FDF7A0FF00BF1848FDF7E7FE7F
:1029A0000028FAD124E00121C80304F095FC01A914
:1029B0001348FDF7FDFE4FF4404004F051FC0121A7
:1029C0000F48FDF7C9FE0E48FDF776FF00BF0C4823
:1029D000FDF7E4FE0028FAD10948FDF77DFF00BFAE
:1029E0000748FDF7C4FE0028FAD101E000207EE789
:1029F00000BF01207BE700000024014000280140C7
:102A0000003C01402DE9FC474FF0000A4EE02A4807
:102A100050F82A000078012844D1274A52F82A2089
:102A2000117C254A52F82A20D07BFEF7CBFB0446C6
:102A300009F0D0F9204951F82A1048601E4951F890
:102A40002A10486809F032F806464FF066321B4BF0
:102A500008F0C2FC04460022194B08F065FA8046D3
:102A60000022184B08F060FACDE9000108F06EF979
:102A7000114951F82A1048600F4951F82A108889E5
:102A800009F0A8F905460C4951F82A10486829466A
:102A900009F0A6F804460C4909F0E4F9064951F892
:102AA0002A1088600AF1010000F0FF0ABAF1060F4F
:102AB000ADDBBDE8FC870000B432002066660A404A
:102AC0000000B0400000494000007A4410B50446C0
:102AD000002060706278A17C607CFEF76FFC0220B1
:102AE000207010BD2DE9F05F06460F4690469946CE
:102AF000DDE90B5BDDF828A018210120FDF7FCFBC8
:102B0000044614B90020BDE8F09F062E04DB2046E1
:102B1000FDF735FC0020F6E7334850F8260030B1C9
:102B20002046FDF72CFC304850F8264002E02E48A5
:102B300040F82640BAF1000F06D0BAF1010F0ED0CE
:102B4000BAF1020F25D117E0002D03DB072D01DCC0
:102B5000257420E02046FDF712FC0020D3E7002D6D
:102B600005DB012D03DC05F10800207413E020468D
:102B7000FDF705FC0020C6E7002D05DB052D03DC75
:102B800005F10A00207406E02046FDF7F8FB00205E
:102B9000B9E70020B7E700BFA67384F80F90A4F848
:102BA0000CB0677484F8128084F813A025752A4647
:102BB00051464846FFF78CFE20B92046FDF7DFFB63
:102BC0000020A0E7012241463846FEF713F8022014
:102BD000207000206060A06060706278A17C607CE2
:102BE000FEF7ECFB20468EE7B43200200146087861
:102BF000012800D170470020FCE710B504460120F1
:102C000060706278A17C607CFEF7D8FB01202070A8
:102C100010BD10B504460021204606F055F90021EC
:102C2000204606F060F90521204600F01AF801213F
:102C3000204606F049F90521204600F012F800214F
:102C4000204606F041F90521204600F00AF801214E
:102C5000204606F048F90521204600F002F8012040
:102C600010BD10B50246002307E0108983B200BFF3
:102C7000181EA3F10104A3B2FAD1081EA1F10104A8
:102C8000A1B2F2D1012010BD10B5044600212046AA
:102C900006F01AF90021204606F025F90521204604
:102CA000FFF7DFFF0121204606F01DF90521204630
:102CB000FFF7D7FF0121204606F006F9052120463F
:102CC000FFF7CFFF0021204606F0FEF80521204641
:102CD000FFF7C7FF0021204606F005F90521204631
:102CE000FFF7BFFF012010BD70B506460025002488
:102CF00017E00021304606F0E7F805213046FFF7DF
:102D0000B0FF0121304606F0DFF8304606F0D4F877
:102D100040EA4500C5B205213046FFF7A2FF601C1E
:102D2000C4B2082CE5DB284670BD70B506460C46DB
:102D30000021304606F0C8F800251EE0E00920B169
:102D40000121304606F0CFF803E00021304606F0BE
:102D5000CAF86006040E05213046FFF782FF012104
:102D6000304606F0B1F805213046FFF77AFF002122
:102D7000304606F0A9F8681CC5B2082DDEDB01203C
:102D800070BD10B504460121204606F0ACF80121C3
:102D9000204606F099F805212046FFF762FF002142
:102DA000204606F0A0F805212046FFF75AFF002133
:102DB000204606F089F8012010BD10B50446002118
:102DC000204606F081F80021204606F08CF8052107
:102DD0002046FFF746FF0121204606F075F8052141
:102DE0002046FFF73EFF0121204606F07CF84CF21A
:102DF00050312046FFF735FF012010BD70B5054664
:102E000000240121284606F06EF805212846FFF728
:102E100028FF0121284606F057F805212846FFF72C
:102E200020FF05E0601C84B2FA2C01DD002070BD9B
:102E3000284606F041F80028F4D10021284606F083
:102E400043F80120F3E700002DE9F04705460F465F
:102E500090461E46DDF8209014210120FDF74CFA23
:102E6000044614B90020BDE8F0870A2D04DB204693
:102E7000FDF785FA0020F6E7144850F8250030B138
:102E80002046FDF77CFA114850F8254002E00F4833
:102E900040F8254025726772A4F80A80E06818B9E6
:102EA000002002F003FEE060267484F811900022F6
:102EB00049463046FDF79EFE0120207060700020DC
:102EC000A070A080A071E0712046CCE7F02D00201A
:102ED0002DE9FC5F06460F4690469946DDE90CABAE
:102EE000002578210120FDF707FA044614B90020D7
:102EF000BDE8FC9F022E04DB2046FDF740FA0020CF
:102F0000F6E7344850F8260030B12046FDF737FA8E
:102F1000304850F8264002E02E4840F8264004F899
:102F2000696F6770C4F8038084F8079084F808A07C
:102F300084F809B00E98A072A07A617ACDE90010E9
:102F4000237AE279D4F803106078FEF72DF86078E0
:102F5000693C28B9204894F86A10204A42F82100B8
:102F600094F86A00012805D11D4894F86A101B4A9C
:102F700042F82100002002F099FD6067002504E07E
:102F80000021601C4155681CC5B2642DF8DB00258A
:102F900015E005EBC50101EB0511124A02EB8100BA
:102FA0006421FDF758FA05EBC50101EB05110E4A46
:102FB00002EB81006421FDF74EFA681CC5B2052DB5
:102FC000E7DB002084F86800204600F031F8204656
:102FD0008EE70000DC060020718F0008442C0020E2
:102FE00011900008A42E0020983000202DE9F04117
:102FF000044660790830C6B20025FDF70BF9074694
:1030000000BF08E0615D094A126892F86A00FEF7A5
:1030100087F9681CC5B2B542F4DB3846FDF7FEF807
:1030200031462046FDF717FABDE8F081D8060020AA
:103030000021A0F8661001210170704710B5044608
:103040000B4A117814F8530FFEF76AF9084A5178C1
:103050002078FEF765F9064A91782078FEF760F946
:10306000034AD17814F85309FEF75AF910BD00004D
:10307000E406002010B5AB49096891F85300FEF74B
:1030800027F90446A7480068008A00F40040002899
:103090007ED0A4480068008A00F48040002878D0E0
:1030A000A0480068B0F850000A2878DA9D48006807
:1030B00090F84800012822D19A48006812309949B6
:1030C0000968098AC1F30D01445496480068008AD2
:1030D000401C94490968088292480068007C0228D4
:1030E0000CDB90480068008AC0F30D008D49096828
:1030F00008828C490968486C02F07CFD10E189481F
:10310000006890F84800022822D1864800681230F2
:1031100084490968098AC1F30D0144548148006853
:10312000008A401C7F49096808827E480068007C4C
:103130000228E3DB7B480068008AC0F30D00794970
:103140000968088277490968486C02F053FDE7E096
:1031500074480068123073490968098AC1F30D0187
:10316000445470480068008A401C6E49096808820F
:103170006C480068007C0228C0DB6A480068008A4E
:10318000C0F30D006749096808826649096802E0D2
:103190009AE064E003E0486C02F02CFDC0E0614876
:1031A000006890F84800012836D15E480068123067
:1031B0005C490968098AC1F30D0144545948006803
:1031C000008A401C57490968088256480068007CFC
:1031D000032893DB5448007800EB4000534908442F
:1031E000504909684A8A0280097D81704E480078FA
:1031F000401C4D49087008460078322807D14949DB
:103200000968486C02F0F6FC00204749087000206D
:1032100044490968088283E0424800681230414905
:103220000968098AC1F30D0144543E480068008AC8
:10323000401C3C49096808823A480068007C022822
:103240006EDB38480068008AC0F30D003549096814
:10325000088234490968486C02F0CCFC60E0FF2C1D
:103260000ED13048006890F84800012808D12D4858
:103270000068008A40F480402A49096808824FE0CB
:10328000572C05D12748006890F84800022807D03D
:10329000562C0ED12348006890F84800022808D127
:1032A00020480068008A40F480401E49096808826E
:1032B00036E0032C34D11B480068008A40F480407B
:1032C0001849096808822BE0FE2C0ED115480068C9
:1032D00090F84800012808D112480068008A40F49C
:1032E00000401049096808821AE0FC2C0ED10D48F4
:1032F000006890F84800022808D10A480068008A4F
:1033000040F4004007490968088209E0FC2C07D115
:1033100004480068008A40F40040024909680882B5
:1033200010BD0000F4060020F8060020CC3200207A
:1033300010B504460B4A117814F8530FFDF7F0FF4F
:10334000084A51782078FDF7EBFF064A91782078FB
:10335000FDF7E6FF034AD17814F85309FDF7E0FFC3
:1033600010BD0000E80600202DE9FC5F05468946F7
:1033700016469846DDE90CAB70210120FCF7BCFF36
:10338000044614B90020BDE8FC9F012D04DB204653
:10339000FCF7F5FF0020F6E72A4850F8250030B189
:1033A0002046FCF7ECFF274850F8254002E025486E
:1033B00040F825404C34A571C4F80090E67184F8BB
:1033C0001C8084F81DA084F81EB00E98E0770F983A
:1033D000A0604C3C1098A0651198E065129820669A
:1033E000139860660E98534642464946CDE900B0B0
:1033F0003046FDF7D9FD1448144941F82600002154
:1034000021606160A160E16000202082A4F850008A
:10341000322104F11200FDF71EF8002084F8480064
:1034200002F044FB6064002708E007EB470008490E
:103430000844002101808170781CC7B2322FF4DB70
:103440002046A0E7F406002075300008442C002038
:10345000CC32002010B50446064A117894F8530087
:10346000FDF75EFF034A517894F85300FDF758FFCB
:1034700010BD0000EC06002010B5012000F004F99A
:1034800040B1012000F0FAF80348006810B1024989
:103490000868804710BD0000EC2B002010B54FF4E9
:1034A000806000F0F1F848B14FF4806000F0E6F879
:1034B0002848806A10B12749886A80474FF4006025
:1034C00000F0E2F848B14FF4006000F0D7F821486E
:1034D000C06A10B11F49C86A80474FF4805000F09D
:1034E000D3F848B14FF4805000F0C8F81948006B89
:1034F00010B11849086B80474FF4005000F0C4F831
:1035000048B14FF4005000F0B9F81248406B10B1C8
:103510001049486B80474FF4804000F0B5F848B13F
:103520004FF4804000F0AAF80A48806B10B10949B6
:10353000886B80474FF4004000F0A6F848B14FF484
:10354000004000F09BF80348C06B10B10149C86B04
:10355000804710BDEC2B002010B5022000F094F83D
:1035600040B1022000F08AF80348406810B10249D7
:103570004868804710BD0000EC2B002010B50420E7
:1035800000F082F840B1042000F078F80348806829
:1035900010B102498868804710BD0000EC2B002064
:1035A00010B5082000F070F840B1082000F066F86F
:1035B0000348C06810B10249C868804710BD0000C8
:1035C000EC2B002010B5102000F05EF840B1102068
:1035D00000F054F80348006910B1024908698047B7
:1035E00010BD0000EC2B002010B5202000F04CF89E
:1035F00040B1202000F042F81F48406910B11E4938
:1036000048698047402000F03FF840B1402000F07A
:1036100035F81948806910B11749886980478020BA
:1036200000F032F840B1802000F028F81248C0695C
:1036300010B11149C86980474FF4807000F024F838
:1036400048B14FF4807000F019F80B48006A10B1CF
:103650000949086A80474FF4007000F015F848B136
:103660004FF4007000F00AF80348406A10B10249B4
:10367000486A804710BD0000EC2B0020014908601B
:103680007047000014040140014600200022074B4F
:103690001B6803EA0102054B14331B680B4013B18E
:1036A0000AB1012000E00020704700000004014042
:1036B000002123498279002A3AD00A461268036819
:1036C0009A430B461A600A1D126803689A430B1D41
:1036D0001A60027911440A6803681A430A60184A9A
:1036E0000832126803689A43154B08331A601A1D92
:1036F000126803689A43124B0C331A604279102AFD
:103700000ED11A1F126803681A430D4B08331A6052
:103710001A1D126803681A43094B0C331A600DE036
:103720000749427911440A6803681A430A6005E0B0
:10373000027911440A6803689A430A6070470000DE
:103740000004014010B51D4A1268D1781B4A126866
:103750009078FDF787FD90B91948007818B90520D1
:103760001749087028E0164800781E2803D1232046
:103770001349087020E00020114908701CE010482F
:1037800000780A2803D10F200D49087014E00C4876
:10379000007828280DD100200A4908704870074990
:1037A0000968C868074902F003F900200449087055
:1037B00002E000200249087010BD0000FC06002055
:1037C000020700200007002010B51D4A1268517939
:1037D0001B4A12681079FDF745FD90B11948007831
:1037E00018B91E201749087029E0164800780528E6
:1037F00003D10A201349087021E000201149087004
:103800001DE010480078232803D128200D490870B6
:1038100015E00C4800780F280ED100200A490870E6
:103820000120487006490968C868074902F0C0F8D5
:1038300000200449087002E000200249087010BD11
:10384000FC060020020700200007002010B51D4ADA
:103850001268D1781B4A12689078FDF703FD90B981
:103860001948007818B905201749087029E016484A
:1038700000781E2803D123201349087021E000207E
:10388000114908701DE0104800780A2803D10F2064
:103890000D49087015E00C48007828280ED1012049
:1038A0000A4908700020487006490968C868074935
:1038B00002F07EF800200449087002E0002002496E
:1038C000087010BDFC060020030700200007002040
:1038D00010B51D4A126851791B4A12681079FDF71C
:1038E000C1FC90B91948007818B91E201749087012
:1038F00028E016480078052803D10A2013490870EB
:1039000020E00020114908701CE0104800782328AE
:1039100003D128200D49087014E00C4800780F28C6
:103920000DD101200A490870487007490968C86824
:10393000074902F03DF800200449087002E0002029
:103940000249087010BD0000FC060020030700209B
:10395000000700202DE9F05F07460025B94609F170
:1039600008040420FCF7DCFC80460420FCF7D8FCAB
:103970000646D9F800B0B4F800A0A8F800A04FF6A9
:10398000027030800420B070A078F070A078052814
:103990002CDCA07805280FDAE07830B1A178224A33
:1039A00052F82100FEF7AAF92FE0A1781E4A52F83A
:1039B0002100FEF78DF928E0E07858B1002506E0F7
:1039C000194951F82500FEF799F9681CC5B2052D73
:1039D000F6DB1AE0002506E0134951F82500FEF752
:1039E00077F9681CC5B2052DF6DB0EE033460422DC
:1039F0005146584605F046FC3046FCF7C0FC4046B0
:103A0000FCF7BDFC0020BDE8F09F43460422514670
:103A1000584605F0DBFB3046FCF7B1FC4046FCF7AE
:103A2000AEFC0120EFE70000643300202DE9F05FD9
:103A300007460024B94609F108050420FCF770FC8C
:103A400080460420FCF76CFC0646D9F800B0B5F8B7
:103A500000A0A8F800A04FF6027030800520B070DA
:103A6000A878F070A87804283BDCA878042814DA39
:103A7000E87858B1A978294A52F82100FFF7BDF833
:103A8000274951F82400FEF739F939E0A978234A8B
:103A900052F82100FFF71AF832E0E87880B10024EC
:103AA0000BE01E4951F82400FFF7A7F81C4951F814
:103AB0002400FEF723F9601CC4B2042CF1DB1FE0E4
:103AC00000240BE0154951F82400FEF7FFFF1449CC
:103AD00051F82400FEF7FCF8601CC4B2042CF1DBA2
:103AE0000EE0334604225146584605F0CBFB3046E3
:103AF000FCF745FC4046FCF742FC0020BDE8F09F87
:103B0000434604225146584605F060FB3046FCF718
:103B100036FC4046FCF733FC0120EFE784330020FD
:103B2000643300202DE9F05F07460025B94609F10E
:103B300008040420FCF7F4FB80460420FCF7F0FBAB
:103B40000646D9F800B0B4F800A0A8F800A04FF6D7
:103B5000027030800620B070A078F070A078022843
:103B60002CDCA07802280FDAE07830B1A178224A64
:103B700052F82100FEF7C4FA2FE0A1781E4A52F84D
:103B80002100FEF779FA28E0E07858B1002506E038
:103B9000194951F82500FEF7B3FA681CC5B2042D87
:103BA000F6DB1AE0002506E0134951F82500FEF780
:103BB00063FA681CC5B2042DF6DB0EE0334604221E
:103BC0005146584605F05EFB3046FCF7D8FB4046B0
:103BD000FCF7D5FB0020BDE8F09F43460422514688
:103BE000584605F0F3FA3046FCF7C9FB4046FCF7AF
:103BF000C6FB0120EFE700000C0700202DE9FF5F66
:103C00008146CA460AF108040420FCF789FB0646EF
:103C10000420FCF785FB07460420FCF781FB804667
:103C2000DAF800B0208803900420029060884D49A3
:103C30000880608808F0CEF80190002003464A4AC8
:103C400000900199FEF7E2FC48490860608808F09E
:103C5000C1F8019000200346434A009001200199D9
:103C6000FEF7D4FC4149C862608808F0B3F80190BF
:103C7000002003463C4A009002200199FEF7C6FC52
:103C80003A498865608808F0A5F80190002003464D
:103C9000354A009003200199FEF7B8FC3349C1F87A
:103CA0008400002517E03248324B009053F825205D
:103CB00005EB450303EBC503DFF8B0C05CF8231048
:103CC00005EB450303EBC5030CEB83002A4BFEF722
:103CD000E5FD681CC5B2042DE5DB2088308000209E
:103CE000B0700021F17033465846DDE9022105F03D
:103CF0006DFAC82300221146104602F0B5FA41F2CF
:103D00000900A8F80000002088F8020088F80300E5
:103D10001A4A1268517C194A1268107CFDF7A2FAFF
:103D200068B14FF60F7038800720B8700220F87025
:103D30003B4604220021084605F090F905E0434681
:103D400004220021084605F0E5F93046FCF717FB90
:103D50004046FCF714FB3846FCF711FB012004B089
:103D6000BDE8F09F480700200000C842F033002063
:103D700085940008843300204D9400081407002027
:103D80002DE9F04705462F4607F108093820FCF7D2
:103D9000C7FA04462CB92046FCF7F1FA0020BDE82A
:103DA000F087D7F80080B9F80060268020220AA1A9
:103DB000A01CFCF70BFB16220DA104F12200FCF75E
:103DC00005FB234638223146404605F0FFF92046E0
:103DD000FCF7D5FA0120E2E7417072203239203237
:103DE0003032322030303A32353A3531000000007E
:103DF00056312E302E302E30000000002DE9F047D5
:103E00000646B04608F108040420FCF789FA074684
:103E10000420FCF785FA0546D8F800A0B4F8009015
:103E2000A7F800904FF6027028800A20A870A078AA
:103E3000E8706088032843DA608820B1012811D037
:103E400002282DD11DE02C49486801F059F92A4972
:103E5000886801F055F96188274A52F8210001F07D
:103E600065F92CE02449086801F04AF9224988687C
:103E700001F046F96188204A52F8210001F056F914
:103E80001DE01D49086801F03BF91B49486801F035
:103E900037F96188184A52F8210001F047F90EE01D
:103EA0002B4604224946504605F0ECF92846FCF71B
:103EB00066FA3846FCF763FA0020BDE8F0870DE0AB
:103EC0002B4604224946504605F0DCF92846FCF70B
:103ED00056FA3846FCF753FA0020EEE73B46042238
:103EE0004946504605F072F92846FCF748FA38462C
:103EF000FCF745FA0120E0E7AC3300202DE9F0475C
:103F00000746B84608F108040420FCF709FA0546FC
:103F10000420FCF705FA0646D8F800A0B4F8009093
:103F2000A5F800904FF6027030800720B070A0789E
:103F3000F070608802280EDCA078A8706288144BAC
:103F400053F82220517C628853F82220107CFDF720
:103F500089F9E8700EE0334604224946504605F0E0
:103F600091F93046FCF70BFA2846FCF708FA0020D6
:103F7000BDE8F0872B4604224946504605F026F955
:103F80003046FCF7FCF92846FCF7F9F90120EFE789
:103F9000140700202DE9F05F07460025B94609F116
:103FA00008040420FCF7BCF980460420FCF7B8F9AB
:103FB0000646D9F800B0B4F800A0A8F800A04FF663
:103FC000027030800120B070A078F070A0780328D3
:103FD0002CDCA07803280FDAE07830B1A178224AEF
:103FE00052F8210003F02BF92FE0A1781E4A52F875
:103FF000210003F02CF928E0E07858B1002506E014
:10400000194951F8250003F01AF9681CC5B2032DAF
:10401000F6DB1AE0002506E0134951F8250003F00D
:1040200016F9681CC5B2032DF6DB0EE033460422F8
:104030005146584605F026F93046FCF7A0F94046AF
:10404000FCF79DF90020BDE8F09F4346042251464D
:10405000584605F0BBF83046FCF791F94046FCF7AE
:104060008EF90120EFE70000783300202DE9F04FB2
:1040700087B0064600200690B2460AF108040420E4
:10408000FCF74EF981460420FCF74AF90546DAF8B8
:1040900000000590B4F800B0A9F800B04FF6027027
:1040A00028800220A8700020E87060883C494860A1
:1040B000A0888860E088C8602089086160894861BC
:1040C0000A460A2137480068FCF7EDFC0022344814
:1040D000406933490969CDE9010200913048C3685C
:1040E000826841683048006801F074F901222C4868
:1040F00040692B490969CDE9010200912848C3684C
:10410000826841682848006801F064F9E068E0B11D
:10411000E068401CC8B1E06807F00EF90022234BAC
:10412000CDE9020106F000FF074688460120002184
:1041300002221F4BCDE90032CDE902103A46434638
:104140001948006801F02AF90690E068401C10B98F
:10415000012018490870E06810B90020154908705E
:10416000069878B12B4604225946059805F08AF83E
:104170002846FCF704F94846FCF701F9002007B08F
:10418000BDE8F08F4B4604225946059805F01EF80D
:104190002846FCF7F4F84846FCF7F1F80120EEE772
:1041A000580700202807002004070020000059407D
:1041B000B88201003C0700202DE9FE4F8146CA4627
:1041C0000AF108040820FCF7ABF806460420FCF7C7
:1041D000A7F80546DAF800000290B4F800B0A6F897
:1041E00000B04FF602702880608810B90920A870CE
:1041F00001E00820A870A078E8706088062812DC2A
:10420000608870806088164901EBC0000022154B61
:10421000D0E90071384607F0DFF8CDE9000107F07A
:1042200047F870600EE02B4604225946029805F0CC
:1042300029F82846FCF7A3F83046FCF7A0F8002040
:10424000BDE8FE8F334608225946029804F0BEFFAF
:104250002846FCF794F83046FCF791F80120EFE788
:10426000B8330020000059402DE9F0470546A94623
:1042700009F108060420FCF753F807460420FCF770
:104280004FF80446D9F800A0B6F80080A7F80080DF
:104290004FF6027020800320A070B078E070B078F4
:1042A00002280BDAF07820B11348006804F02AFCE9
:1042B00013E01148006804F0A5FB0EE02346042239
:1042C0004146504604F0DEFF2046FCF758F83846D9
:1042D000FCF755F80020BDE8F0873B460422414634
:1042E000504604F073FF2046FCF749F83846FCF7C7
:1042F00046F80120EFE700000807002010B504464B
:10430000204600F0B1F810BD2DE9F04705462F46D4
:1043100007F108090C20FCF703F804460026D7F83B
:1043200000A0B9F80080A4F80080FEF76BFB00BF86
:1043300012E0124951F82610886807F013FD00EBCF
:10434000C00101EB00104FF6FF7101EA8001A01CD3
:1043500020F81610701CC6B2042EEADB0020A072F2
:104360000021E17223460C224146504604F02EFF04
:104370002046FCF704F80120BDE8F08784330020D4
:104380002DE9F0470446264606F108070420FBF70E
:10439000C7FF0546D6F80080B7F8009013480078AC
:1043A000022815D00220114908701149886802F0CE
:1043B0004EFF0F49086802F04AFF0D49486802F0B5
:1043C0003EFF0C48006804F09DFB00200A4948703D
:1043D000388828802B4604224946404604F0F6FEE1
:1043E0002846FBF7CCFF0120BDE8F08788070020B6
:1043F00078330020080700204C0700202DE9F04703
:104400000446264606F108070420FBF789FF054607
:10441000D6F80080B7F800901048007801280ED038
:1044200001200E4908700E49486802F010FF0D483F
:10443000006804F0E7FA0A49086802F000FF3888CB
:1044400028802B4604224946404604F0BFFE2846F9
:10445000FBF795FF0120BDE8F087000088070020EA
:10446000783300200807002010B5044600F0ACF8AF
:104470002D4A01212046FDF747FA2C4A0221204609
:10448000FDF742FA2A4A03212046FDF73DFA294A60
:1044900005212046FDF738FA274A04212046FDF77A
:1044A00033FA264A06212046FDF72EFA244A072130
:1044B0002046FDF729FA234A08212046FDF724FA71
:1044C000214A09212046FDF71FFA204A0A212046E9
:1044D000FDF71AFA1E4A0C212046FDF715FA1D4A6F
:1044E0000B212046FDF710FA1B4A11212046FDF74B
:1044F0000BFA1A4A12212046FDF706FA184A132130
:104500002046FDF701FA174A14212046FDF7FCF971
:10451000154A15212046FDF7F7F9144A16212046C1
:10452000FDF7F2F9012010BDFD3B0008953F0008A2
:104530006D40000855390008694200082D3A00080E
:10454000253B0008FD3E0008B9410008FD3D00087C
:10455000813D0008914D0008494C0008FD430008CA
:104560008143000871450008394D000809430008DF
:104570002DE9F04705462F4607F108060420FBF712
:10458000CFFE0446D7F80090B6F80080A4F800806B
:104590000020A0700021E170708818B10120094945
:1045A000087002E0002007490870234604224146B3
:1045B000484604F00BFE2046FBF7E1FE0120BDE873
:1045C000F08700003C07002000B599B0002018904B
:1045D000052001230622194600900020FCF782F9ED
:1045E000FE490860002001F061FAFD4908600020E2
:1045F00001F05CFAFB490860FB4A1421F7480068A7
:10460000FCF751FA1898112805D1F74A1421F348FC
:104610000068FCF7EBF9092004210722CDE9131209
:10462000CDE91510082010220723CDE90F32CDE97E
:104630000B32CDE90D32CDE911101046012207925F
:10464000CDE908230A9000200522CDE90420014687
:104650000690E648CDE902100020E449E44AE54B23
:10466000CDE90001022100F0FDFDE34908600122CF
:104670000A210420FCF7BEFA01220A210420FCF7DB
:104680009DFE012208210420FCF798FEDA4800680C
:1046900010B9002019B000BD0720022300221146E6
:1046A0000090104604F0E0F9D4490860084600681C
:1046B00008B90020EEE7D148006804F0A3F9102003
:1046C000072108220223CDE90232CDE9041005209A
:1046D000642142F210730022CDE900101146104609
:1046E00002F030FDC649086010200721092202238C
:1046F000CDE90232CDE904100520642142F21073A5
:104700000022CDE900101146012002F01BFDBC493A
:1047100048601020072101220323CDE90232CDE9B0
:1047200004100520642142F210730022CDE900102C
:104730001146022002F006FDB14988600020179062
:1047400011E0AF49179851F8200008B90020A1E7FF
:10475000AB49179851F82000169002F078FD179891
:10476000401CC0B2179017980328EADB07230322E6
:1047700000210846FDF768FAA249086006230322D3
:1047800000210120FDF760FA9E49486005230322BD
:1047900000210220FDF758FA9A4988600423032279
:1047A00000211046FDF750FA9649C86003231A46C7
:1047B00000210420FDF748FA924908610020179073
:1047C00011E09049179851F8200008B9002061E7DE
:1047D0008C49179851F820001690FDF779FA179830
:1047E000401CC0B2179017980528EADB854800697D
:1047F0001690FDF783FA0A20002101220B46CDE92D
:10480000002102900F2204210020FEF76BF97E495F
:1048100008600A20062100221346CDE900210290FB
:104820000E2204210120FEF75DF9774948600A2035
:10483000042100221346CDE9002102900D2202201E
:10484000FEF750F9704988600A20022100221346C1
:10485000CDE9002102900C2204210320FEF742F949
:104860006949C8600020179011E06749179851F80E
:10487000200008B900200DE76349179851F820007F
:104880001690FEF723F91798401CC0B2179017989E
:104890000428EADB0A2202210020FDF7F9FB5B492C
:1048A00008600B2202210120FDF7F2FB5749486006
:1048B0000020179011E05549179851F8200008B9C9
:1048C0000020E7E65149179851F820001690FDF7AF
:1048D000D3FB1798401CC0B2179017980228EADB48
:1048E0004B484C49CDE9080141424B48CDE90610FF
:1048F00000214A48CDE904104948CDE90210084694
:10490000474905230222CDE9000100210846FDF7B1
:104910005DFD444908603E493E48CDE908104842E3
:104920003D49CDE9060100213C48CDE90410084687
:104930003B49CDE902010021394804230222CDE997
:1049400000100120FDF742FD3649486030493148EA
:10495000CDE9081049423048CDE9061000202F4922
:10496000CDE9040101462E48CDE9021000202C4972
:1049700003230222CDE9000101461046FDF726FD82
:104980002849886022482349CDE90801414222484C
:10499000CDE9061000202149CDE904010146204857
:1049A000CDE9021000201E4902231A46CDE900017C
:1049B00001460320FDF70AFD1A49C860144915484D
:1049C000CDE9081049421448CDE9061000211348EA
:1049D000CDE904101248CDE9021025E02807002097
:1049E0003407002038070020700700200080764040
:1049F000CDCCCCCCCCCCFC3F040700200807002059
:104A00007833002064330020843300200C0700201A
:104A10009A9999999999B93F66660A4000D6AA4031
:104A200000002440943300200846764901230222E6
:104A3000CDE9000100210420FDF7C8FC724908619E
:104A400072497348CDE9081048427249CDE9060120
:104A500000217148CDE904106A48CDE902100846EA
:104A6000684900230222CDE9000119460520FDF71F
:104A7000ADFC65494861002017900AE0624917982B
:104A800051F8200008B9002004E61798401CC0B275
:104A9000179017980628F1DB072001230A221946F0
:104AA00000900020FEF7D0F95C490860082001233F
:104AB0000A22194600901846FEF7C6F95749486081
:104AC000002017900AE05549179851F8200008B9BE
:104AD0000020DFE51798401CC0B2179017980228F5
:104AE000F1DB4F4840694E4909694D4AD2684C4B49
:104AF0009B68CDE90432CDE90610494840680B2394
:104B000001210A22CDE90113009203900B460222F3
:104B10004FF461410020FEF727FC42490860084637
:104B2000006808B90020B5E50F2003230A22002100
:104B300000900420FEF788F93B4908600A20032111
:104B40000B22CDE90112CDE903100D200B460E22F8
:104B500000900020FDF726F8344908600C2003235C
:104B60000A22002100900720FEF76EF92E494860C6
:104B7000002017900AE02C49179851F8200008B936
:104B8000002087E51798401CC0B21790179802289C
:104B9000F1DB082303220021012000F06BFA2449F5
:104BA0000860092303220021022000F063FA204953
:104BB0004860002303221946104600F05BFA1C49A6
:104BC0008860002017900AE01949179851F82000D2
:104BD00008B900205EE51798401CC0B217901798DE
:104BE0000328F1DB12484068169000F09FFA114844
:104BF0001149086011484860114888601148C86030
:104C0000012047E500002440943300209A999999A7
:104C10009999B93F66660A4000D6AA401407002059
:104C2000700700201C07002020070020FC06002041
:104C3000AC3300209575000808350020F975000890
:104C400065760008D17600082DE9F0470546A846AC
:104C500008F108040420FBF763FB07460420FBF778
:104C60005FFB0646D8F800A0B4F80090A7F80090C3
:104C70004FF6027030800B20B0700020F070A078EA
:104C8000E8B12B488078207129484078E0702848A6
:104C90008088E08026488068A0602548C0786071E0
:104CA00023460C224946504604F090FA3046FBF762
:104CB00066FB3846FBF763FB0120BDE8F0872079EF
:104CC0001B498870E0784870E0888880A068886018
:104CD0006079C870A06807F07DF816490968086116
:104CE000A06807F077F81349C96A0861A06807F05F
:104CF00071F81049896D0861A06807F06BF80D49DB
:104D0000D1F884100861E07818B904F08DFB04F044
:104D100071FB3B4604224946504604F057FA3046A0
:104D2000FBF72DFB3846FBF72AFB0120C5E7000007
:104D30004C070020F03300202DE9F04705462F46B0
:104D400007F108060420FBF7EBFA0446D7F80090B9
:104D5000B6F80080A4F800800020A0700021E17067
:104D6000708818B101200949087002E00020074945
:104D70000870234604224146484604F027FA20469C
:104D8000FBF7FDFA0120BDE8F08700004407002092
:104D90002DE9F04705462F4607F108040420FBF7EC
:104DA000BFFA0646D7F80090B4F80080A6F8008055
:104DB000608820B32B49486804F042FB60602949B1
:104DC000886804F03DFBA0602649C86804F038FB01
:104DD000E0602449086904F033FB206121494869F7
:104DE00004F02EFB6061234618224146484604F039
:104DF000EDF93046FBF7C3FA0120BDE8F0876068A3
:104E000004F08AFB17494860A06804F085FB154947
:104E10008860E06804F080FB1249C860206904F0F3
:104E20007BFB10490861606904F076FB0D4948611D
:104E30000A4614210C480068FBF735FE334604226D
:104E40004146484604F0C2F93046FBF798FA32234F
:104E500000221146104601F007FAFCF717FA01206C
:104E6000CBE70000700700202807002030B50022A3
:104E70008B071C0F0F2303FA04F20B4B8C1053F813
:104E800024309343084C8D1044F8253023468C1071
:104E900053F824308C07240F00FA04F42343024C07
:104EA0008D1044F8253030BD080001402DE9F04157
:104EB000024600250026002000230024002791F848
:104EC00003C00CF00F0591F803C00CF0100CBCF1FE
:104ED000000F03D091F802C04CEA050591F800C01C
:104EE000BCF1000F31D0146800202BE04FF0010C12
:104EF0000CFA00F3B1F800C00CEA03069E4220D180
:104F000083004FF00F0C0CFA03F7BC4305FA03FCC7
:104F10004CEA040491F803C0BCF1280F06D14FF00D
:104F2000010C0CFA00FCC2F814C00AE091F803C0AE
:104F3000BCF1480F05D14FF0010C0CFA00FCC2F88F
:104F400010C0401C0828D1D31460B1F800C0BCF1D7
:104F5000FF0F34DD546800202EE000F1080C4FF004
:104F6000010808FA0CF3B1F800C00CEA03069E42EF
:104F700021D183004FF00F0C0CFA03F7BC4305FA64
:104F800003FC4CEA040491F803C0BCF1280F05D1DE
:104F900000F1080C08FA0CF8C2F8148091F803C06C
:104FA000BCF1480F07D100F1080C4FF0010808FAD6
:104FB0000CF8C2F81080401C0828CED35460BDE81D
:104FC000F0810000F0B50A460023002400210025EE
:104FD00000F00046B6F1004F02D11D4EF16901E02C
:104FE0001B4E7168C0F3034583B200F44016B6F55A
:104FF000401F08D121F07061154E766826F070666A
:10500000134F7E6012E000F48016B6F5801F06D1C3
:10501000032606FA05F4A14341F0706106E0460D4F
:10502000360103FA06F6B14341F0706122B1460D34
:10503000360103FA06F6314300F00046B6F1004FA0
:1050400002D1034EF16101E0014E7160F0BD00003C
:10505000000001400246002093680B400BB1012084
:1050600000E0002070470AB1016100E04161704733
:1050700000BFFEE72DE9F0410546884616461F466B
:1050800006210120FBF738F9044614B90020BDE8D9
:10509000F081042D04DB2046FBF771F90020F6E7D0
:1050A000164850F8250030B12046FBF768F9134840
:1050B00050F8254002E0114840F82540A57084F8DA
:1050C000038026716771012239463046FBF792FD55
:1050D000E07838B900206070627861792079FCF757
:1050E0006DF906E001206070627861792079FCF743
:1050F00065F9022020702046C9E70000142D002029
:1051000010B50446E07838B90020607062786179A3
:105110002079FCF753F906E001206070627861792C
:105120002079FCF74BF90220207010BD10B5044621
:10513000E07838B901206070627861792079FCF7F5
:105140003DF906E000206070627861792079FCF713
:1051500035F90120207010BD2DE9F0478AB0814655
:1051600015461E4699F82C0006F0E6F8CDE9060132
:10517000D9E90C733A460020394905F0D5FECDE94E
:105180000201D9E90E733A462846314605F0CCFEB5
:10519000CDE90001DDE9022306F01EF9CDE90401A5
:1051A000DDE9062306F018F9CDE9080106F050F80C
:1051B0000446002C01DC012000E00020824699F822
:1051C0002C10201E01DB024600E0424299F82C30F0
:1051D00092FBF3F703FB172201EBD173B2EB630FE2
:1051E0001EDBBAF1000F0DD1201E01DB014600E0ED
:1051F000414299F82C2091FBF2F302FB1311511A52
:105200000C4429E0201E01DB014600E0414299F8F0
:105210002C2091FBF2F302FB1311511A641A1BE0CC
:10522000BAF1000F0CD1201E01DB014600E0414223
:1052300099F82C2091FBF2F302FB1311641A0BE096
:10524000201E01DB014600E0414299F82C2091FB31
:10525000F2F302FB13110C4420460AB0BDE8F087BC
:10526000008076402DE9FF5F84B0054617469846DA
:1052700025AE96E8400E58210120FBF73DF8044684
:105280001CB9002008B0BDE8F09F042D04DB2046C7
:10529000FBF775F80020F5E73D4850F8250030B1E0
:1052A0002046FBF76CF83A4850F8254002E03848B1
:1052B00040F8254035B1012D0ED0022D16D0032D1A
:1052C00028D11DE08DE8400E0020DDE9232305995B
:1052D00000F0F4F8206522E08DE8400E0120DDE9C1
:1052E0002323059900F0EAF8206518E08DE8400EC8
:1052F0000220DDE92323059900F0E0F820650EE0A7
:105300008DE8400E0320DDE92323059900F0D6F84F
:10531000206504E02046FBF732F80020B2E700BF2A
:1053200004F81C5F169860701A4800EB85006060F6
:1053300005EBC50000EB0510174901EB0010A0605C
:1053400017982073189860731998A0731A98E073CF
:1053500005982074C4E90578DDE91201C4E9070164
:105360001C3C2046DDE91423FFF7F6FE2064606C48
:1053700018B9002000F09AFB606400206061A06111
:1053800020706060A060E06020746074204679E75F
:10539000242D002088000020980000202DE9FE4FD9
:1053A000064614461D460CAF97E880074FF0000BE9
:1053B00022462B463046FFF7CFFE029043463A4640
:1053C000CDE9009A3046029904F005F98346584623
:1053D000BDE8FE8F2DE9F04704460D4616461F46F0
:1053E000DDE9099ADDF82080BAF1000F06D0BAF1A4
:1053F000010F21D0BAF1020F5AD13BE0206DC06CF1
:105400000560206DC06C4660206DC06C8760206DAB
:10541000C06CC0F80C80206DC06CC0F81090D4F83F
:1054200050C09CF88000DCF87430DCF86820DCF8B0
:105430004C10FCF74FF83BE0206D006D0560206DCF
:10544000006D4660206D006D8760206D006DC0F8B6
:105450000C80206D006DC0F81090D4F850C09CF8FE
:105460008000DCF87830DCF86C20DCF85010FCF7B9
:1054700031F81DE0206D406D0560206D406D466087
:10548000206D406D8760206D406DC0F80C80206DF0
:10549000406DC0F81090D4F850C09CF88000DCF843
:1054A0007C30DCF87020DCF85410FCF713F800BFF7
:1054B00000BF0120BDE8F08700BFFEE72DE9F05FE7
:1054C00005468A469346DDE90A89DDE90C678421B1
:1054D0000120FAF711FF044614B90020BDE8F09F3F
:1054E000042D04DB2046FAF74AFF0020F6E7344893
:1054F00050F8250030B12046FAF741FF304850F807
:10550000254002E02E4840F8254035B1012D0CD051
:10551000022D12D0032D20D117E03B463246002148
:10552000084601F085FDA0641CE03B46324601219F
:10553000084601F07DFDA06414E03B46324602219E
:10554000084601F075FDA0640CE03B46324603219D
:10555000084601F06DFDA06404E02046FAF70FFF55
:105560000020BBE700BF002020756075A061A0830C
:105570002062606284F82800E06220636063A063B8
:10558000E06320706060A060E0602061237D0BB16B
:10559000012300E000231A4694F8421094F84100D9
:1055A000FBF70CFF637D0BB1012300E000231A46DB
:1055B00094F8441094F84300FBF700FF20468DE771
:1055C000E02D00202DE9F04104460D4616461F4609
:1055D000DDF818806575637D0BB1012300E00023C1
:1055E0001A4694F8441094F84300FBF7E7FEF019CC
:1055F000A0610420207000206060A060A4F81C80DE
:10560000204604F0B3F9BDE8F0812DE9F0410446ED
:105610000D4616461F46DDF818806575637D0BB193
:10562000012300E000231A4694F8441094F8430044
:10563000FBF7C4FEA7610120207000206060A0601D
:1056400084F8818042463146204603F0B7FA20466E
:1056500004F08CF9BDE8F08110B50446A06C01F0AF
:10566000BFFC607D48B9A06C8068A16C4968A0EB64
:10567000510021690844206108E0A06C8068A16C99
:105680004968A0EB51002169081A206110BD7047DC
:1056900070B5002100230F22C47804B3154C246890
:1056A00004F4E064C4F5E064210AC1F10403CA40D3
:1056B000447804FA03F184781440214309010E4C24
:1056C0000678A155047804F01F050124AC40057844
:1056D0006D11AD0005F1E025C5F8004109E0047841
:1056E00004F01F050124AC40044D0678761145F8FE
:1056F000264070BD0CED00E000E400E080E100E039
:1057000002490143024A1160704700000000FA0597
:105710000CED00E02DE9F04105460E461446002749
:105720001DB904202070BDE8F08116B90C2020704E
:10573000F9E71148007810B112202070F3E72878BB
:10574000012808D0022807D0032802D0042804D159
:1057500000E000BF00BF00BF02E001202070E2E7D0
:1057600000BFFAF757FD07462E613846FAF756FD97
:105770000020207000BFD6E73100002010B500F0F7
:1057800017F801F04DF901F07DF901F09DF901F0F4
:1057900017F901F0D7F801F02FFA01F059FA01F0EA
:1057A000D1F901F0F7F900F0EDFE00F007F810BDB7
:1057B0000020014908807047000000207047000069
:1057C00010B500241A480078012830D1FAF722FDDC
:1057D00004461848007820B116480078401E154944
:1057E000087014480078F8B913480078E0B901F05F
:1057F00091FA12481249097850F8210011490860BD
:105800000F4800781049097888420DD00D4800688B
:10581000806B401C0B49096888630C480068401C79
:105820000A490860FAF712FD2046FAF7F7FC10BDA6
:10583000400000203100002038000020C419002062
:105840003A000020500000203900002018000020FD
:1058500070B5054600261048007808B1002070BDDC
:10586000FAF7D8FC06460D480468006820B10B48DA
:1058700000684068094908603046FAF7CFFC4CB12F
:105880000120207000202081656005A02061204655
:1058900001F04AF82046E2E7310000201C00002019
:1058A0003F0000002DE9F04105460F4614464FF039
:1058B000000825B9042020700020BDE8F081287878
:1058C000012803D0012020700020F6E73548007839
:1058D00018B1022020700020EFE73348007818B19B
:1058E0000D2020700020E8E7FAF794FC80466E68EF
:1058F00046B1002068604046FAF790FC0020207016
:105900003046DAE72948006890F8300040F002009D
:105910002649096881F8300000202449096881F887
:10592000310022480068C762284600F0BFFF4046A9
:10593000FAF774FC01F0B4F9FAF76CFC80461B48E6
:10594000006890F8310020B101280DD002280AD15A
:1059500005E016480068066A002020700DE0002669
:105960000E20207009E000BF29461048006800F0B2
:1059700087FF00260A20207000BF00BF00200B49CF
:10598000096881F830000949096881F83100074940
:105990000968C8610549096808624046FAF73EFC93
:1059A00030468AE7310000203800002048000020FF
:1059B00070B504460D4600260CB9042070BD0DB923
:1059C0000320FBE72078012801D00120F6E7FAF751
:1059D00021FC0646A07A60B1002302222946204617
:1059E00000F00CFF3046FAF719FC01F059F90020DD
:1059F000E4E7606820B13046FAF710FC1420DDE7D8
:105A000065603046FAF70AFC0020D7E710B500249D
:105A10000B480078012811D1FAF7FCFB044609482D
:105A2000007840B908480078FF2804D2064800787A
:105A3000401C054908702046FAF7F0FB10BD000035
:105A400040000020310000203800002010B5002464
:105A500013480078012821D1FAF7DCFB04461148ED
:105A60000078C0B91048007888B10F480078401E0F
:105A70000D4908700846007828B92046FAF7CEFB91
:105A800001F00EF90AE02046FAF7C8FB06E02046CE
:105A9000FAF7C4FB02E02046FAF7C0FB10BD000095
:105AA00040000020310000203800002070B505467D
:105AB00000261048007808B1002070BDFAF7AAFB54
:105AC00006460D480468006820B10B48006840682D
:105AD000094908603046FAF7A1FB4CB10320207059
